{
    "abi": [
        {
            "type": "constructor",
            "inputs": [],
            "stateMutability": "nonpayable"
        },
        {
            "type": "function",
            "name": "DOMAIN_SEPARATOR",
            "inputs": [],
            "outputs": [
                {
                    "name": "",
                    "type": "bytes32",
                    "internalType": "bytes32"
                }
            ],
            "stateMutability": "view"
        },
        {
            "type": "function",
            "name": "_cacheDomainSeparatorV4",
            "inputs": [],
            "outputs": [
                {
                    "name": "",
                    "type": "bytes32",
                    "internalType": "bytes32"
                }
            ],
            "stateMutability": "nonpayable"
        },
        {
            "type": "function",
            "name": "_chainId",
            "inputs": [],
            "outputs": [
                {
                    "name": "chainId",
                    "type": "uint256",
                    "internalType": "uint256"
                }
            ],
            "stateMutability": "pure"
        },
        {
            "type": "function",
            "name": "_hashTypedDataV4",
            "inputs": [
                {
                    "name": "structHash",
                    "type": "bytes32",
                    "internalType": "bytes32"
                }
            ],
            "outputs": [
                {
                    "name": "",
                    "type": "bytes32",
                    "internalType": "bytes32"
                }
            ],
            "stateMutability": "view"
        },
        {
            "type": "function",
            "name": "_sellVoucher_new",
            "inputs": [
                {
                    "name": "claimAmount",
                    "type": "uint256",
                    "internalType": "uint256"
                },
                {
                    "name": "maximumSharesToBurn",
                    "type": "uint256",
                    "internalType": "uint256"
                },
                {
                    "name": "pol",
                    "type": "bool",
                    "internalType": "bool"
                }
            ],
            "outputs": [],
            "stateMutability": "nonpayable"
        },
        {
            "type": "function",
            "name": "_toTypedDataHash",
            "inputs": [
                {
                    "name": "domainSeparator",
                    "type": "bytes32",
                    "internalType": "bytes32"
                },
                {
                    "name": "structHash",
                    "type": "bytes32",
                    "internalType": "bytes32"
                }
            ],
            "outputs": [
                {
                    "name": "",
                    "type": "bytes32",
                    "internalType": "bytes32"
                }
            ],
            "stateMutability": "pure"
        },
        {
            "type": "function",
            "name": "activeAmount",
            "inputs": [],
            "outputs": [
                {
                    "name": "",
                    "type": "uint256",
                    "internalType": "uint256"
                }
            ],
            "stateMutability": "view"
        },
        {
            "type": "function",
            "name": "allowance",
            "inputs": [
                {
                    "name": "owner",
                    "type": "address",
                    "internalType": "address"
                },
                {
                    "name": "spender",
                    "type": "address",
                    "internalType": "address"
                }
            ],
            "outputs": [
                {
                    "name": "",
                    "type": "uint256",
                    "internalType": "uint256"
                }
            ],
            "stateMutability": "view"
        },
        {
            "type": "function",
            "name": "approve",
            "inputs": [
                {
                    "name": "spender",
                    "type": "address",
                    "internalType": "address"
                },
                {
                    "name": "value",
                    "type": "uint256",
                    "internalType": "uint256"
                }
            ],
            "outputs": [
                {
                    "name": "",
                    "type": "bool",
                    "internalType": "bool"
                }
            ],
            "stateMutability": "nonpayable"
        },
        {
            "type": "function",
            "name": "balanceOf",
            "inputs": [
                {
                    "name": "owner",
                    "type": "address",
                    "internalType": "address"
                }
            ],
            "outputs": [
                {
                    "name": "",
                    "type": "uint256",
                    "internalType": "uint256"
                }
            ],
            "stateMutability": "view"
        },
        {
            "type": "function",
            "name": "buyVoucher",
            "inputs": [
                {
                    "name": "_amount",
                    "type": "uint256",
                    "internalType": "uint256"
                },
                {
                    "name": "_minSharesToMint",
                    "type": "uint256",
                    "internalType": "uint256"
                }
            ],
            "outputs": [
                {
                    "name": "amountToDeposit",
                    "type": "uint256",
                    "internalType": "uint256"
                }
            ],
            "stateMutability": "nonpayable"
        },
        {
            "type": "function",
            "name": "buyVoucherPOL",
            "inputs": [
                {
                    "name": "_amount",
                    "type": "uint256",
                    "internalType": "uint256"
                },
                {
                    "name": "_minSharesToMint",
                    "type": "uint256",
                    "internalType": "uint256"
                }
            ],
            "outputs": [
                {
                    "name": "amountToDeposit",
                    "type": "uint256",
                    "internalType": "uint256"
                }
            ],
            "stateMutability": "nonpayable"
        },
        {
            "type": "function",
            "name": "buyVoucherWithPermit",
            "inputs": [
                {
                    "name": "_amount",
                    "type": "uint256",
                    "internalType": "uint256"
                },
                {
                    "name": "_minSharesToMint",
                    "type": "uint256",
                    "internalType": "uint256"
                },
                {
                    "name": "deadline",
                    "type": "uint256",
                    "internalType": "uint256"
                },
                {
                    "name": "v",
                    "type": "uint8",
                    "internalType": "uint8"
                },
                {
                    "name": "r",
                    "type": "bytes32",
                    "internalType": "bytes32"
                },
                {
                    "name": "s",
                    "type": "bytes32",
                    "internalType": "bytes32"
                }
            ],
            "outputs": [
                {
                    "name": "amountToDeposit",
                    "type": "uint256",
                    "internalType": "uint256"
                }
            ],
            "stateMutability": "nonpayable"
        },
        {
            "type": "function",
            "name": "commissionRate_deprecated",
            "inputs": [],
            "outputs": [
                {
                    "name": "",
                    "type": "uint256",
                    "internalType": "uint256"
                }
            ],
            "stateMutability": "view"
        },
        {
            "type": "function",
            "name": "decimals",
            "inputs": [],
            "outputs": [
                {
                    "name": "",
                    "type": "uint8",
                    "internalType": "uint8"
                }
            ],
            "stateMutability": "pure"
        },
        {
            "type": "function",
            "name": "decreaseAllowance",
            "inputs": [
                {
                    "name": "spender",
                    "type": "address",
                    "internalType": "address"
                },
                {
                    "name": "subtractedValue",
                    "type": "uint256",
                    "internalType": "uint256"
                }
            ],
            "outputs": [
                {
                    "name": "",
                    "type": "bool",
                    "internalType": "bool"
                }
            ],
            "stateMutability": "nonpayable"
        },
        {
            "type": "function",
            "name": "delegation",
            "inputs": [],
            "outputs": [
                {
                    "name": "",
                    "type": "bool",
                    "internalType": "bool"
                }
            ],
            "stateMutability": "view"
        },
        {
            "type": "function",
            "name": "eip712Version",
            "inputs": [],
            "outputs": [
                {
                    "name": "",
                    "type": "string",
                    "internalType": "string"
                }
            ],
            "stateMutability": "view"
        },
        {
            "type": "function",
            "name": "eventsHub",
            "inputs": [],
            "outputs": [
                {
                    "name": "",
                    "type": "address",
                    "internalType": "contract EventsHub"
                }
            ],
            "stateMutability": "view"
        },
        {
            "type": "function",
            "name": "exchangeRate",
            "inputs": [],
            "outputs": [
                {
                    "name": "",
                    "type": "uint256",
                    "internalType": "uint256"
                }
            ],
            "stateMutability": "view"
        },
        {
            "type": "function",
            "name": "getLiquidRewards",
            "inputs": [
                {
                    "name": "user",
                    "type": "address",
                    "internalType": "address"
                }
            ],
            "outputs": [
                {
                    "name": "",
                    "type": "uint256",
                    "internalType": "uint256"
                }
            ],
            "stateMutability": "view"
        },
        {
            "type": "function",
            "name": "getRewardPerShare",
            "inputs": [],
            "outputs": [
                {
                    "name": "",
                    "type": "uint256",
                    "internalType": "uint256"
                }
            ],
            "stateMutability": "view"
        },
        {
            "type": "function",
            "name": "getStakeAndRewards",
            "inputs": [
                {
                    "name": "user",
                    "type": "address",
                    "internalType": "address"
                }
            ],
            "outputs": [
                {
                    "name": "stakeAmount",
                    "type": "uint256",
                    "internalType": "uint256"
                },
                {
                    "name": "liquidRewards",
                    "type": "uint256",
                    "internalType": "uint256"
                }
            ],
            "stateMutability": "view"
        },
        {
            "type": "function",
            "name": "getTotalStake",
            "inputs": [
                {
                    "name": "user",
                    "type": "address",
                    "internalType": "address"
                }
            ],
            "outputs": [
                {
                    "name": "",
                    "type": "uint256",
                    "internalType": "uint256"
                },
                {
                    "name": "",
                    "type": "uint256",
                    "internalType": "uint256"
                }
            ],
            "stateMutability": "view"
        },
        {
            "type": "function",
            "name": "increaseAllowance",
            "inputs": [
                {
                    "name": "spender",
                    "type": "address",
                    "internalType": "address"
                },
                {
                    "name": "addedValue",
                    "type": "uint256",
                    "internalType": "uint256"
                }
            ],
            "outputs": [
                {
                    "name": "",
                    "type": "bool",
                    "internalType": "bool"
                }
            ],
            "stateMutability": "nonpayable"
        },
        {
            "type": "function",
            "name": "initalRewardPerShare",
            "inputs": [
                {
                    "name": "",
                    "type": "address",
                    "internalType": "address"
                }
            ],
            "outputs": [
                {
                    "name": "",
                    "type": "uint256",
                    "internalType": "uint256"
                }
            ],
            "stateMutability": "view"
        },
        {
            "type": "function",
            "name": "initialize",
            "inputs": [
                {
                    "name": "_validatorId",
                    "type": "uint256",
                    "internalType": "uint256"
                },
                {
                    "name": "_stakingLogger",
                    "type": "address",
                    "internalType": "address"
                },
                {
                    "name": "_stakeManager",
                    "type": "address",
                    "internalType": "address"
                }
            ],
            "outputs": [],
            "stateMutability": "nonpayable"
        },
        {
            "type": "function",
            "name": "isOwner",
            "inputs": [],
            "outputs": [
                {
                    "name": "",
                    "type": "bool",
                    "internalType": "bool"
                }
            ],
            "stateMutability": "view"
        },
        {
            "type": "function",
            "name": "lock",
            "inputs": [],
            "outputs": [],
            "stateMutability": "nonpayable"
        },
        {
            "type": "function",
            "name": "locked",
            "inputs": [],
            "outputs": [
                {
                    "name": "",
                    "type": "bool",
                    "internalType": "bool"
                }
            ],
            "stateMutability": "view"
        },
        {
            "type": "function",
            "name": "migrateIn",
            "inputs": [
                {
                    "name": "user",
                    "type": "address",
                    "internalType": "address"
                },
                {
                    "name": "amount",
                    "type": "uint256",
                    "internalType": "uint256"
                }
            ],
            "outputs": [],
            "stateMutability": "nonpayable"
        },
        {
            "type": "function",
            "name": "migrateOut",
            "inputs": [
                {
                    "name": "user",
                    "type": "address",
                    "internalType": "address"
                },
                {
                    "name": "amount",
                    "type": "uint256",
                    "internalType": "uint256"
                }
            ],
            "outputs": [],
            "stateMutability": "nonpayable"
        },
        {
            "type": "function",
            "name": "minAmount",
            "inputs": [],
            "outputs": [
                {
                    "name": "",
                    "type": "uint256",
                    "internalType": "uint256"
                }
            ],
            "stateMutability": "view"
        },
        {
            "type": "function",
            "name": "name",
            "inputs": [],
            "outputs": [
                {
                    "name": "",
                    "type": "string",
                    "internalType": "string"
                }
            ],
            "stateMutability": "view"
        },
        {
            "type": "function",
            "name": "nonces",
            "inputs": [
                {
                    "name": "owner",
                    "type": "address",
                    "internalType": "address"
                }
            ],
            "outputs": [
                {
                    "name": "",
                    "type": "uint256",
                    "internalType": "uint256"
                }
            ],
            "stateMutability": "view"
        },
        {
            "type": "function",
            "name": "owner",
            "inputs": [],
            "outputs": [
                {
                    "name": "",
                    "type": "address",
                    "internalType": "address"
                }
            ],
            "stateMutability": "view"
        },
        {
            "type": "function",
            "name": "permit",
            "inputs": [
                {
                    "name": "owner",
                    "type": "address",
                    "internalType": "address"
                },
                {
                    "name": "spender",
                    "type": "address",
                    "internalType": "address"
                },
                {
                    "name": "value",
                    "type": "uint256",
                    "internalType": "uint256"
                },
                {
                    "name": "deadline",
                    "type": "uint256",
                    "internalType": "uint256"
                },
                {
                    "name": "v",
                    "type": "uint8",
                    "internalType": "uint8"
                },
                {
                    "name": "r",
                    "type": "bytes32",
                    "internalType": "bytes32"
                },
                {
                    "name": "s",
                    "type": "bytes32",
                    "internalType": "bytes32"
                }
            ],
            "outputs": [],
            "stateMutability": "nonpayable"
        },
        {
            "type": "function",
            "name": "polToken",
            "inputs": [],
            "outputs": [
                {
                    "name": "",
                    "type": "address",
                    "internalType": "contract IERC20Permit"
                }
            ],
            "stateMutability": "view"
        },
        {
            "type": "function",
            "name": "renounceOwnership",
            "inputs": [],
            "outputs": [],
            "stateMutability": "nonpayable"
        },
        {
            "type": "function",
            "name": "restake",
            "inputs": [],
            "outputs": [
                {
                    "name": "",
                    "type": "uint256",
                    "internalType": "uint256"
                },
                {
                    "name": "",
                    "type": "uint256",
                    "internalType": "uint256"
                }
            ],
            "stateMutability": "nonpayable"
        },
        {
            "type": "function",
            "name": "restakeAndStakePOL",
            "inputs": [
                {
                    "name": "_amount",
                    "type": "uint256",
                    "internalType": "uint256"
                }
            ],
            "outputs": [
                {
                    "name": "",
                    "type": "uint256",
                    "internalType": "uint256"
                },
                {
                    "name": "",
                    "type": "uint256",
                    "internalType": "uint256"
                }
            ],
            "stateMutability": "nonpayable"
        },
        {
            "type": "function",
            "name": "restakeAndTransferFrom",
            "inputs": [
                {
                    "name": "from",
                    "type": "address",
                    "internalType": "address"
                },
                {
                    "name": "value",
                    "type": "uint256",
                    "internalType": "uint256"
                }
            ],
            "outputs": [
                {
                    "name": "",
                    "type": "bool",
                    "internalType": "bool"
                },
                {
                    "name": "",
                    "type": "uint256",
                    "internalType": "uint256"
                }
            ],
            "stateMutability": "nonpayable"
        },
        {
            "type": "function",
            "name": "restakeAndUnstakePOL",
            "inputs": [
                {
                    "name": "_amount",
                    "type": "uint256",
                    "internalType": "uint256"
                }
            ],
            "outputs": [
                {
                    "name": "",
                    "type": "uint256",
                    "internalType": "uint256"
                }
            ],
            "stateMutability": "nonpayable"
        },
        {
            "type": "function",
            "name": "restakePOL",
            "inputs": [],
            "outputs": [
                {
                    "name": "",
                    "type": "uint256",
                    "internalType": "uint256"
                },
                {
                    "name": "",
                    "type": "uint256",
                    "internalType": "uint256"
                }
            ],
            "stateMutability": "nonpayable"
        },
        {
            "type": "function",
            "name": "rewardPerShare",
            "inputs": [],
            "outputs": [
                {
                    "name": "",
                    "type": "uint256",
                    "internalType": "uint256"
                }
            ],
            "stateMutability": "view"
        },
        {
            "type": "function",
            "name": "sellVoucher",
            "inputs": [
                {
                    "name": "claimAmount",
                    "type": "uint256",
                    "internalType": "uint256"
                },
                {
                    "name": "maximumSharesToBurn",
                    "type": "uint256",
                    "internalType": "uint256"
                }
            ],
            "outputs": [],
            "stateMutability": "nonpayable"
        },
        {
            "type": "function",
            "name": "sellVoucherPOL",
            "inputs": [
                {
                    "name": "claimAmount",
                    "type": "uint256",
                    "internalType": "uint256"
                },
                {
                    "name": "maximumSharesToBurn",
                    "type": "uint256",
                    "internalType": "uint256"
                }
            ],
            "outputs": [],
            "stateMutability": "nonpayable"
        },
        {
            "type": "function",
            "name": "sellVoucher_new",
            "inputs": [
                {
                    "name": "claimAmount",
                    "type": "uint256",
                    "internalType": "uint256"
                },
                {
                    "name": "maximumSharesToBurn",
                    "type": "uint256",
                    "internalType": "uint256"
                }
            ],
            "outputs": [],
            "stateMutability": "nonpayable"
        },
        {
            "type": "function",
            "name": "sellVoucher_newPOL",
            "inputs": [
                {
                    "name": "claimAmount",
                    "type": "uint256",
                    "internalType": "uint256"
                },
                {
                    "name": "maximumSharesToBurn",
                    "type": "uint256",
                    "internalType": "uint256"
                }
            ],
            "outputs": [],
            "stateMutability": "nonpayable"
        },
        {
            "type": "function",
            "name": "stakeManager",
            "inputs": [],
            "outputs": [
                {
                    "name": "",
                    "type": "address",
                    "internalType": "contract IStakeManager"
                }
            ],
            "stateMutability": "view"
        },
        {
            "type": "function",
            "name": "stakingLogger",
            "inputs": [],
            "outputs": [
                {
                    "name": "",
                    "type": "address",
                    "internalType": "contract StakingInfo"
                }
            ],
            "stateMutability": "view"
        },
        {
            "type": "function",
            "name": "symbol",
            "inputs": [],
            "outputs": [
                {
                    "name": "",
                    "type": "string",
                    "internalType": "string"
                }
            ],
            "stateMutability": "view"
        },
        {
            "type": "function",
            "name": "totalSupply",
            "inputs": [],
            "outputs": [
                {
                    "name": "",
                    "type": "uint256",
                    "internalType": "uint256"
                }
            ],
            "stateMutability": "view"
        },
        {
            "type": "function",
            "name": "transfer",
            "inputs": [
                {
                    "name": "to",
                    "type": "address",
                    "internalType": "address"
                },
                {
                    "name": "value",
                    "type": "uint256",
                    "internalType": "uint256"
                }
            ],
            "outputs": [
                {
                    "name": "",
                    "type": "bool",
                    "internalType": "bool"
                }
            ],
            "stateMutability": "nonpayable"
        },
        {
            "type": "function",
            "name": "transferFrom",
            "inputs": [
                {
                    "name": "from",
                    "type": "address",
                    "internalType": "address"
                },
                {
                    "name": "to",
                    "type": "address",
                    "internalType": "address"
                },
                {
                    "name": "value",
                    "type": "uint256",
                    "internalType": "uint256"
                }
            ],
            "outputs": [
                {
                    "name": "",
                    "type": "bool",
                    "internalType": "bool"
                }
            ],
            "stateMutability": "nonpayable"
        },
        {
            "type": "function",
            "name": "transferOwnership",
            "inputs": [
                {
                    "name": "newOwner",
                    "type": "address",
                    "internalType": "address"
                }
            ],
            "outputs": [],
            "stateMutability": "nonpayable"
        },
        {
            "type": "function",
            "name": "transferPOL",
            "inputs": [
                {
                    "name": "to",
                    "type": "address",
                    "internalType": "address"
                },
                {
                    "name": "value",
                    "type": "uint256",
                    "internalType": "uint256"
                }
            ],
            "outputs": [
                {
                    "name": "",
                    "type": "bool",
                    "internalType": "bool"
                }
            ],
            "stateMutability": "nonpayable"
        },
        {
            "type": "function",
            "name": "unbondNonces",
            "inputs": [
                {
                    "name": "",
                    "type": "address",
                    "internalType": "address"
                }
            ],
            "outputs": [
                {
                    "name": "",
                    "type": "uint256",
                    "internalType": "uint256"
                }
            ],
            "stateMutability": "view"
        },
        {
            "type": "function",
            "name": "unbonds",
            "inputs": [
                {
                    "name": "",
                    "type": "address",
                    "internalType": "address"
                }
            ],
            "outputs": [
                {
                    "name": "shares",
                    "type": "uint256",
                    "internalType": "uint256"
                },
                {
                    "name": "withdrawEpoch",
                    "type": "uint256",
                    "internalType": "uint256"
                }
            ],
            "stateMutability": "view"
        },
        {
            "type": "function",
            "name": "unbonds_new",
            "inputs": [
                {
                    "name": "",
                    "type": "address",
                    "internalType": "address"
                },
                {
                    "name": "",
                    "type": "uint256",
                    "internalType": "uint256"
                }
            ],
            "outputs": [
                {
                    "name": "shares",
                    "type": "uint256",
                    "internalType": "uint256"
                },
                {
                    "name": "withdrawEpoch",
                    "type": "uint256",
                    "internalType": "uint256"
                }
            ],
            "stateMutability": "view"
        },
        {
            "type": "function",
            "name": "unlock",
            "inputs": [],
            "outputs": [],
            "stateMutability": "nonpayable"
        },
        {
            "type": "function",
            "name": "unstakeClaimTokens",
            "inputs": [],
            "outputs": [],
            "stateMutability": "nonpayable"
        },
        {
            "type": "function",
            "name": "unstakeClaimTokensPOL",
            "inputs": [],
            "outputs": [],
            "stateMutability": "nonpayable"
        },
        {
            "type": "function",
            "name": "unstakeClaimTokens_new",
            "inputs": [
                {
                    "name": "unbondNonce",
                    "type": "uint256",
                    "internalType": "uint256"
                }
            ],
            "outputs": [],
            "stateMutability": "nonpayable"
        },
        {
            "type": "function",
            "name": "unstakeClaimTokens_newPOL",
            "inputs": [
                {
                    "name": "unbondNonce",
                    "type": "uint256",
                    "internalType": "uint256"
                }
            ],
            "outputs": [],
            "stateMutability": "nonpayable"
        },
        {
            "type": "function",
            "name": "updateDelegation",
            "inputs": [
                {
                    "name": "_delegation",
                    "type": "bool",
                    "internalType": "bool"
                }
            ],
            "outputs": [],
            "stateMutability": "nonpayable"
        },
        {
            "type": "function",
            "name": "validatorId",
            "inputs": [],
            "outputs": [
                {
                    "name": "",
                    "type": "uint256",
                    "internalType": "uint256"
                }
            ],
            "stateMutability": "view"
        },
        {
            "type": "function",
            "name": "validatorRewards_deprecated",
            "inputs": [],
            "outputs": [
                {
                    "name": "",
                    "type": "uint256",
                    "internalType": "uint256"
                }
            ],
            "stateMutability": "view"
        },
        {
            "type": "function",
            "name": "version",
            "inputs": [],
            "outputs": [
                {
                    "name": "",
                    "type": "string",
                    "internalType": "string"
                }
            ],
            "stateMutability": "pure"
        },
        {
            "type": "function",
            "name": "withdrawExchangeRate",
            "inputs": [],
            "outputs": [
                {
                    "name": "",
                    "type": "uint256",
                    "internalType": "uint256"
                }
            ],
            "stateMutability": "view"
        },
        {
            "type": "function",
            "name": "withdrawPool",
            "inputs": [],
            "outputs": [
                {
                    "name": "",
                    "type": "uint256",
                    "internalType": "uint256"
                }
            ],
            "stateMutability": "view"
        },
        {
            "type": "function",
            "name": "withdrawRewards",
            "inputs": [],
            "outputs": [],
            "stateMutability": "nonpayable"
        },
        {
            "type": "function",
            "name": "withdrawRewardsPOL",
            "inputs": [],
            "outputs": [],
            "stateMutability": "nonpayable"
        },
        {
            "type": "function",
            "name": "withdrawShares",
            "inputs": [],
            "outputs": [
                {
                    "name": "",
                    "type": "uint256",
                    "internalType": "uint256"
                }
            ],
            "stateMutability": "view"
        },
        {
            "type": "event",
            "name": "Approval",
            "inputs": [
                {
                    "name": "owner",
                    "type": "address",
                    "indexed": true,
                    "internalType": "address"
                },
                {
                    "name": "spender",
                    "type": "address",
                    "indexed": true,
                    "internalType": "address"
                },
                {
                    "name": "value",
                    "type": "uint256",
                    "indexed": false,
                    "internalType": "uint256"
                }
            ],
            "anonymous": false
        },
        {
            "type": "event",
            "name": "OwnershipTransferred",
            "inputs": [
                {
                    "name": "previousOwner",
                    "type": "address",
                    "indexed": true,
                    "internalType": "address"
                },
                {
                    "name": "newOwner",
                    "type": "address",
                    "indexed": true,
                    "internalType": "address"
                }
            ],
            "anonymous": false
        },
        {
            "type": "event",
            "name": "Transfer",
            "inputs": [
                {
                    "name": "from",
                    "type": "address",
                    "indexed": true,
                    "internalType": "address"
                },
                {
                    "name": "to",
                    "type": "address",
                    "indexed": true,
                    "internalType": "address"
                },
                {
                    "name": "value",
                    "type": "uint256",
                    "indexed": false,
                    "internalType": "uint256"
                }
            ],
            "anonymous": false
        }
    ],
    "bytecode": {
        "object": "0x60806040526003805460ff60a81b191690553480156200001e57600080fd5b5060038054610100338102610100600160a81b0319909216919091179182905560405191046001600160a01b0316906000907f8be0079c531659141344cd1fd0a4f28419497f9722a3daafe3b4186f6b6457e0908290a3620000886001600160e01b036200008e16565b620000a3565b6003805460ff60a81b1916600160a81b179055565b613fb480620000b36000396000f3fe608060405234801561001057600080fd5b506004361061043e5760003560e01c80637ecebe0011610236578063b60c76fa1161013b578063dd62ed3e116100c3578063e570b78b11610087578063e570b78b14610b9b578063e97fddc214610bbe578063eaf43bb514610bdb578063f2fde38b14610c19578063f83d08ba14610c3f5761043e565b8063dd62ed3e14610b14578063df5cf72314610b42578063e0db556b14610b4a578063e4457a8a14610b52578063e4cd1aec14610b755761043e565b8063c7b8981c1161010a578063c7b8981c14610a73578063c83ec04d14610a7b578063c8f1ecd814610a9e578063cf30901214610abb578063d505accf14610ac35761043e565b8063b60c76fa14610a14578063b6658d0714610a40578063b89b63c114610a48578063bfb18f2914610a6b5761043e565b80638f32d59b116101be578063a0c1ca341161018d578063a0c1ca3414610954578063a457c2d714610980578063a69df4b5146109ac578063a9059cbb146109b4578063b4988fd0146109e05761043e565b80638f32d59b1461093457806395d89b411461093c5780639ad5f5a4146109445780639b2cb5d81461094c5761043e565b8063883b455f11610205578063883b455f1461090c5780638ccdd289146109145780638d086da41461091c5780638d16a14a146109245780638da5cb5b1461092c5761043e565b80637ecebe00146108a457806383f3962a146108ca578063851e286e146108e75780638759c234146108ef5761043e565b8063446a2ec8116103475780636854d2a0116102cf5780637477341211610293578063747734121461082c5780637542ff951461083457806375cbee121461083c578063795be587146108595780637ba8c820146108855761043e565b80636854d2a0146107a75780636ab15071146107af5780636e7ce591146107d257806370a08231146107fe578063715018a6146108245761043e565b80635c42c733116103165780635c42c733146107205780635c5f7dae146107285780636035083f14610730578063653ec1341461075b578063676e5550146107815761043e565b8063446a2ec8146106e25780634f91440d146106ea578063533573b7146106f257806354fd4d50146107185761043e565b8063313ce567116103ca5780633950935111610399578063395093511461067a57806339c31e93146106a65780633a09bf44146106ae5780633ba0b9a9146106b65780633d94eb05146106be5761043e565b8063313ce567146105ea57806331f438a71461060857806333d266eb1461062b5780633644e515146106725761043e565b80631bf494a7116104115780631bf494a71461053f5780631e7ff8f614610547578063232e54151461058657806323b872dd1461058e5780633046c204146105c45761043e565b8063029d30401461044357806306fdde0314610468578063095ea7b3146104e557806318160ddd14610525575b600080fd5b6104666004803603604081101561045957600080fd5b5080359060200135610c47565b005b610470610c57565b6040805160208082528351818301528351919283929083019185019080838360005b838110156104aa578181015183820152602001610492565b50505050905090810190601f1680156104d75780820380516001836020036101000a031916815260200191505b509250505060405180910390f35b610511600480360360408110156104fb57600080fd5b506001600160a01b038135169060200135610cea565b604080519115158252519081900360200190f35b61052d610d01565b60408051918252519081900360200190f35b61052d610d07565b61056d6004803603602081101561055d57600080fd5b50356001600160a01b0316610d93565b6040805192835260208301919091528051918290030190f35b610466610df3565b610511600480360360608110156105a457600080fd5b506001600160a01b03813581169160208101359091169060400135610dff565b61052d600480360360208110156105da57600080fd5b50356001600160a01b0316610eb5565b6105f2610ec7565b6040805160ff9092168252519081900360200190f35b61052d6004803603604081101561061e57600080fd5b5080359060200135610ecc565b6106576004803603604081101561064157600080fd5b506001600160a01b038135169060200135610f07565b60408051921515835260208301919091528051918290030190f35b61052d6111ec565b6105116004803603604081101561069057600080fd5b506001600160a01b0381351690602001356111f2565b61052d611233565b61052d611239565b61052d61123f565b6106c66112fc565b604080516001600160a01b039092168252519081900360200190f35b61052d61130b565b61056d611311565b61056d6004803603602081101561070857600080fd5b50356001600160a01b0316611327565b610470611514565b61052d611533565b61052d611539565b6104666004803603606081101561074657600080fd5b5080359060208101359060400135151561153f565b61056d6004803603602081101561077157600080fd5b50356001600160a01b031661173a565b61052d6004803603602081101561079757600080fd5b50356001600160a01b0316611753565b61047061176e565b61052d600480360360408110156107c557600080fd5b5080359060200135611789565b610466600480360360408110156107e857600080fd5b506001600160a01b03813516906020013561179e565b61052d6004803603602081101561081457600080fd5b50356001600160a01b0316611a2a565b610466611a45565b61052d611aa6565b6106c6611aaa565b61056d6004803603602081101561085257600080fd5b5035611ab9565b61056d6004803603604081101561086f57600080fd5b506001600160a01b038135169060200135611c8f565b6104666004803603602081101561089b57600080fd5b50351515611cb3565b61052d600480360360208110156108ba57600080fd5b50356001600160a01b0316611cd7565b61052d600480360360208110156108e057600080fd5b5035611cf2565b61052d611d0f565b6104666004803603602081101561090557600080fd5b5035611da2565b6106c6611db0565b61052d611dbf565b61052d611dc5565b610466611dcb565b6106c6611dd5565b610511611de9565b610470611dff565b61056d611e4c565b61052d611e5a565b6104666004803603604081101561096a57600080fd5b506001600160a01b038135169060200135611e60565b6105116004803603604081101561099657600080fd5b506001600160a01b038135169060200135611e8e565b610466611eca565b610511600480360360408110156109ca57600080fd5b506001600160a01b038135169060200135611ee3565b610466600480360360608110156109f657600080fd5b508035906001600160a01b0360208201358116916040013516611ef1565b61051160048036036040811015610a2a57600080fd5b506001600160a01b038135169060200135611fbf565b6106c6611fcd565b61046660048036036040811015610a5e57600080fd5b5080359060200135611fdc565b61052d611fe8565b61046661202f565b61046660048036036040811015610a9157600080fd5b508035906020013561203a565b61052d60048036036020811015610ab457600080fd5b5035612046565b610511612054565b610466600480360360e0811015610ad957600080fd5b506001600160a01b03813581169160208101359091169060408101359060608101359060ff6080820135169060a08101359060c0013561205d565b61052d60048036036040811015610b2a57600080fd5b506001600160a01b03813581169160200135166121b1565b6105116121dc565b6104666121e5565b61052d60048036036040811015610b6857600080fd5b50803590602001356121f0565b61052d60048036036020811015610b8b57600080fd5b50356001600160a01b03166121fe565b61046660048036036040811015610bb157600080fd5b5080359060200135612210565b61046660048036036020811015610bd457600080fd5b503561221c565b61052d600480360360c0811015610bf157600080fd5b5080359060208101359060408101359060ff6060820135169060808101359060a00135612227565b61046660048036036020811015610c2f57600080fd5b50356001600160a01b0316612410565b61046661242a565b610c5382826000612443565b5050565b6060610c646006546125f3565b60405160200180806e44656c65676174656420504f4c202360881b815250600f0182805190602001908083835b60208310610cb05780518252601f199092019160209182019101610c91565b6001836020036101000a03801982511681845116808217855250505050505090500191505060405160208183030381529060405290505b90565b6000610cf73384846126ce565b5060015b92915050565b60025490565b6005546006546040805163072c21ef60e31b8152600481019290925251600092610d8e926001600160a01b03909116916339610f7891602480820192602092909190829003018186803b158015610d5d57600080fd5b505afa158015610d71573d6000803e3d6000fd5b505050506040513d6020811015610d8757600080fd5b5051612756565b905090565b6000806000610da184611a2a565b90506000610dad61123f565b905081610dc157600093509150610dee9050565b610de8610dcc6127ad565b610ddc838563ffffffff6127d416565b9063ffffffff6127fb16565b93509150505b915091565b610dfd600161281d565b565b6000610e0c8360016128ea565b50610e188460016128ea565b506000610e268585856129b3565b9050610e30612a05565b6006546040805163c08b3f9d60e01b815260048101929092526001600160a01b038881166024840152878116604484015260648301879052905192169163c08b3f9d9160848082019260009290919082900301818387803b158015610e9457600080fd5b505af1158015610ea8573d6000803e3d6000fd5b5092979650505050505050565b60146020526000908152604090205481565b601290565b6040805161190160f01b6020808301919091526022820194909452604280820193909352815180820390930183526062019052805191012090565b6000803381610f178660016128ea565b506000610f2383611a2a565b111561114c576000610f3783600c54612b42565b9050801561114a5760035460ff1661109b57610f54818285612bb7565b91508181111561101057610f988282038460405180604001604052806013815260200172496e737566666963656e74207265776172647360681b8152506001612e76565b600480546006546040805163b7721d2d60e01b8152938401919091526001600160a01b0386811660248501528585036044850152905191169163b7721d2d91606480830192600092919082900301818387803b158015610ff757600080fd5b505af115801561100b573d6000803e3d6000fd5b505050505b600061101b84610d93565b506004805460065460408051637f88a95760e01b8152938401919091526001600160a01b0388811660248501526044840185905290519394501691637f88a9579160648082019260009290919082900301818387803b15801561107d57600080fd5b505af1158015611091573d6000803e3d6000fd5b505050505061114a565b6110d3818460405180604001604052806013815260200172496e737566666963656e74207265776172647360681b8152506001612e76565b600480546006546040805163b7721d2d60e01b8152938401919091526001600160a01b03868116602485015260448401859052905191169163b7721d2d91606480830192600092919082900301818387803b15801561113157600080fd5b505af1158015611145573d6000803e3d6000fd5b505050505b505b60006111598784886129b3565b9050611163612a05565b6006546040805163c08b3f9d60e01b815260048101929092526001600160a01b038a811660248401528681166044840152606483018a9052905192169163c08b3f9d9160848082019260009290919082900301818387803b1580156111c757600080fd5b505af11580156111db573d6000803e3d6000fd5b509299939850929650505050505050565b60195490565b3360008181526001602090815260408083206001600160a01b03871684529091528120549091610cf791859061122e908663ffffffff61302a16565b6126ce565b60075481565b600d5481565b60008061124a610d01565b905060006112566127ad565b905081156112f35760055460065460408051637f4b432360e01b81526004810192909252516112ee928592610ddc9286926001600160a01b031691637f4b4323916024808301926020929190829003018186803b1580156112b657600080fd5b505afa1580156112ca573d6000803e3d6000fd5b505050506040513d60208110156112e057600080fd5b50519063ffffffff6127d416565b6112f5565b805b9250505090565b6004546001600160a01b031681565b600c5481565b60008061131f33600061303c565b915091509091565b600080600061133584611a2a565b905080611349575060009150819050610dee565b6000611353610d01565b60055460065460408051637f4b432360e01b81526004810192909252519293506000926001600160a01b0390921691637f4b432391602480820192602092909190829003018186803b1580156113a857600080fd5b505afa1580156113bc573d6000803e3d6000fd5b505050506040513d60208110156113d257600080fd5b505190506113ea82610ddc838663ffffffff6127d416565b6005546006546040805163072c21ef60e31b81526004810192909252519297506000926001600160a01b03909216916339610f7891602480820192602092909190829003018186803b15801561143f57600080fd5b505afa158015611453573d6000803e3d6000fd5b505050506040513d602081101561146957600080fd5b5051600c54909150811580159061147f57508315155b156114b6576114b36114a685610ddc856a084595161401484a00000063ffffffff6127d416565b829063ffffffff61302a16565b90505b6001600160a01b03881660009081526013602052604090205480821115611509576115066a084595161401484a000000610ddc886114fa868663ffffffff6131ac16565b9063ffffffff6127d416565b96505b505050505050915091565b6040805180820190915260058152640322e332e360dc1b602082015290565b600f5481565b60065481565b60008061154d8585856131c1565b336000908152601460205260408120549294509092509061157590600163ffffffff61302a16565b905061157f613ec1565b6040518060400160405280848152602001600560009054906101000a90046001600160a01b03166001600160a01b031663900cf0cf6040518163ffffffff1660e01b815260040160206040518083038186803b1580156115de57600080fd5b505afa1580156115f2573d6000803e3d6000fd5b505050506040513d602081101561160857600080fd5b505190523360008181526015602090815260408083208784528252808320855181558583015160019091015592825260149052208390559050611649612a05565b60065460408051632a9b5b4160e11b81526004810192909252336024830152604482018a90526064820187905260848201859052516001600160a01b039290921691635536b6829160a48082019260009290919082900301818387803b1580156116b257600080fd5b505af11580156116c6573d6000803e3d6000fd5b5050600480546006546040805163532e19a960e01b815293840191909152516001600160a01b03909116935063532e19a99250602480830192600092919082900301818387803b15801561171957600080fd5b505af115801561172d573d6000803e3d6000fd5b5050505050505050505050565b6012602052600090815260409020805460019091015482565b600061176682611761610d07565b612b42565b90505b919050565b6040805180820190915260018152603160f81b602082015290565b60006117978383600061338d565b9392505050565b6117a6611de9565b6117af57600080fd5b6117ba8260016128ea565b506000806117c784610d93565b9150915082821015611815576040805162461bcd60e51b815260206004820152601260248201527109ad2cee4c2e8d2dcce40e8dede40daeac6d60731b604482015290519081900360640190fd5b600061181f6127ad565b9050600061183783610ddc878563ffffffff6127d416565b90506118438682613507565b60055460065460408051629ff11560e81b815260048101929092526000888103602484015290516001600160a01b0390931692639ff1150092604480820193929182900301818387803b15801561189957600080fd5b505af11580156118ad573d6000803e3d6000fd5b5050600d546118c5925090508663ffffffff6131ac16565b600d55600480546006546040805163f1382b5360e01b8152938401919091526001600160a01b0389811660248501526044840189905260648401859052905191169163f1382b5391608480830192600092919082900301818387803b15801561192d57600080fd5b505af1158015611941573d6000803e3d6000fd5b5050600480546006546040805163532e19a960e01b815293840191909152516001600160a01b03909116935063532e19a99250602480830192600092919082900301818387803b15801561199457600080fd5b505af11580156119a8573d6000803e3d6000fd5b5050600480546006546040805163302df4df60e11b8152938401919091526001600160a01b038b81166024850152604484018b905290519116935063605be9be9250606480830192600092919082900301818387803b158015611a0a57600080fd5b505af1158015611a1e573d6000803e3d6000fd5b50505050505050505050565b6001600160a01b031660009081526020819052604090205490565b611a4d611de9565b611a5657600080fd5b60035460405160009161010090046001600160a01b0316907f8be0079c531659141344cd1fd0a4f28419497f9722a3daafe3b4186f6b6457e0908390a360038054610100600160a81b0319169055565b4690565b6005546001600160a01b031681565b6000806000611ac7336135ae565b90506000611adb858363ffffffff61302a16565b90506000611aea828333612bb7565b9050818114611b36576040805162461bcd60e51b815260206004820152601360248201527265786368616e67652072617465206e6f74203160681b604482015290519081900360640190fd5b6000611b4133610d93565b506004805460065460408051637f88a95760e01b81529384019190915233602484015260448301849052519293506001600160a01b031691637f88a9579160648082019260009290919082900301818387803b158015611ba057600080fd5b505af1158015611bb4573d6000803e3d6000fd5b505060055460065460408051624c025560e81b81526004810192909252602482018c9052336044830152516001600160a01b039092169350634c02550092506064808201926020929091908290030181600087803b158015611c1557600080fd5b505af1158015611c29573d6000803e3d6000fd5b505050506040513d6020811015611c3f57600080fd5b5051611c83576040805162461bcd60e51b815260206004820152600e60248201526d19195c1bdcda5d0819985a5b195960921b604482015290519081900360640190fd5b50935090915050915091565b60156020908152600092835260408084209091529082529020805460019091015482565b611cbb611de9565b611cc457600080fd5b600e805460ff1916911515919091179055565b6001600160a01b031660009081526018602052604090205490565b600080611d0033600161303c565b5090506117668384600161153f565b600080611d1a610c57565b805160209182012060408051808201825260018152603160f81b93019290925290519091507fc89efdaa54c0f20c7adf612882df0950f5a951637e0307cdcb4c672f298b8bc690806052613f2e8239604051908190036052019020601d5550601b829055601c819055611d8b611aa6565b601a55611d9661365c565b60198190559250505090565b611dad8160016136b5565b50565b6016546001600160a01b031681565b60085481565b60105481565b610dfd600061281d565b60035461010090046001600160a01b031690565b60035461010090046001600160a01b0316331490565b6060611e0c6006546125f3565b604051602001808063191413d360e21b815250600401828051906020019080838360208310610cb05780518252601f199092019160209182019101610c91565b60008061131f33600161303c565b600a5481565b611e68611de9565b611e7157600080fd5b611e7c8260016128ea565b50611e8981600084612bb7565b505050565b3360008181526001602090815260408083206001600160a01b03871684529091528120549091610cf791859061122e908663ffffffff6131ac16565b611ed2611de9565b611edb57600080fd5b610dfd6137a5565b6000610cf7838360006137b1565b600354600160a81b900460ff1615611f41576040805162461bcd60e51b815260206004820152600e60248201526d185b1c9958591e481a5b9a5d195960921b604482015290519081900360640190fd5b6003805460ff60a81b1916600160a81b1790556006839055600480546001600160a01b038085166001600160a01b0319928316179092556005805492841692909116919091179055611f928161383f565b611f9a612a05565b50611fa36138b9565b50600e805460ff19166001179055611fb9611d0f565b50505050565b6000610cf7838360016137b1565b6017546001600160a01b031681565b610c5382826001612443565b600080611ff36127ad565b905060086006541015612007579050610ce7565b6010548015612029576112ee81610ddc84600f546127d490919063ffffffff16565b50919050565b611dad3360006128ea565b610c538282600061153f565b600061176660195483610ecc565b60035460ff1681565b834211156120b2576040805162461bcd60e51b815260206004820152601760248201527f45524332363132457870697265645369676e6174757265000000000000000000604482015290519081900360640190fd5b60006040518080613edc60529139605201905060405180910390208888886120d98c613a33565b604080516020808201979097526001600160a01b0395861681830152939094166060840152608083019190915260a082015260c08082018990528251808303909101815260e090910190915280519101209050600061213782612046565b9050600061214782878787613a56565b9050896001600160a01b0316816001600160a01b0316146121a6576040805162461bcd60e51b815260206004820152601460248201527322a921991b189924b73b30b634b229b4b3b732b960611b604482015290519081900360640190fd5b611a1e8a8a8a6126ce565b6001600160a01b03918216600090815260016020908152604080832093909416825291909152205490565b600e5460ff1681565b611dad3360016128ea565b60006117978383600161338d565b60136020526000908152604090205481565b610c538282600161153f565b611dad8160006136b5565b6000806122326138b9565b60408051623f675f60e91b815233600482015290519192506000916001600160a01b03841691637ecebe00916024808301926020929190829003018186803b15801561227d57600080fd5b505afa158015612291573d6000803e3d6000fd5b505050506040513d60208110156122a757600080fd5b50516005546040805163d505accf60e01b81523360048201526001600160a01b039283166024820152604481018d9052606481018b905260ff8a16608482015260a4810189905260c4810188905290519293509084169163d505accf9160e48082019260009290919082900301818387803b15801561232557600080fd5b505af1158015612339573d6000803e3d6000fd5b505060408051623f675f60e91b815233600482015290516001850193506001600160a01b0386169250637ecebe0091602480820192602092909190829003018186803b15801561238857600080fd5b505afa15801561239c573d6000803e3d6000fd5b505050506040513d60208110156123b257600080fd5b5051146123f7576040805162461bcd60e51b815260206004820152600e60248201526d125b9d985b1a59081c195c9b5a5d60921b604482015290519081900360640190fd5b6124038989600161338d565b9998505050505050505050565b612418611de9565b61242157600080fd5b611dad8161383f565b612432611de9565b61243b57600080fd5b610dfd613b1e565b6000806124518585856131c1565b9150915061245d613ec1565b5033600090815260126020908152604091829020825180840190935280548084526001909101549183019190915261249b908363ffffffff61302a16565b81526005546040805163900cf0cf60e01b815290516001600160a01b039092169163900cf0cf91600480820192602092909190829003018186803b1580156124e257600080fd5b505afa1580156124f6573d6000803e3d6000fd5b505050506040513d602081101561250c57600080fd5b505160208281019182523360008181526012909252604080832085518155935160019094019390935560048054600654855163f1382b5360e01b8152928301526024820192909252604481018a90526064810187905292516001600160a01b0390911692839263f1382b539260848084019382900301818387803b15801561259357600080fd5b505af11580156125a7573d6000803e3d6000fd5b50505050806001600160a01b031663532e19a96006546040518263ffffffff1660e01b815260040180828152602001915050600060405180830381600087803b15801561171957600080fd5b60608161261857506040805180820190915260018152600360fc1b6020820152611769565b8160005b81156126315760049190911c9060010161261c565b6060816040519080825280601f01601f19166020018201604052801561265e576020820181803883390190505b509050815b80156126c5576f181899199a1a9b1b9c1cb0b131b232b360811b86600f166010811061268b57fe5b1a60f81b82600183038151811061269e57fe5b60200101906001600160f81b031916908160001a90535060049590951c9460001901612663565b50949350505050565b6001600160a01b0382166126e157600080fd5b6001600160a01b0383166126f457600080fd5b6001600160a01b03808416600081815260016020908152604080832094871680845294825291829020859055815185815291517f8c5be1e5ebec7d5bd14f71427d1e84f3dd0314c0f7b2291e5b200ac8c7c3b9259281900390910190a3505050565b600c54600090821561176657600061276c610d01565b905080156127a6576127a361279682610ddc876a084595161401484a00000063ffffffff6127d416565b839063ffffffff61302a16565b91505b5092915050565b6000600860065410156127c257506064610ce7565b506c01431e0fae6d7217caa000000090565b6000826127e357506000610cfb565b828202828482816127f057fe5b041461179757600080fd5b600080821161280957600080fd5b600082848161281457fe5b04949350505050565b612825613ec1565b5033600090815260126020908152604080832081518083019092528054825260010154918101919091529061285a8284613b2d565b3360008181526012602052604080822082815560010182905560048054600654835163302df4df60e11b81529283015260248201949094526044810185905290519394506001600160a01b039092169263605be9be92606480820193929182900301818387803b1580156128cd57600080fd5b505af11580156128e1573d6000803e3d6000fd5b50505050505050565b6000806128f6846135ae565b9050801561179757612935818560405180604001604052806013815260200172496e737566666963656e74207265776172647360681b81525086612e76565b600480546006546040805163b7721d2d60e01b8152938401919091526001600160a01b03878116602485015260448401859052905191169163b7721d2d91606480830192600092919082900301818387803b15801561299357600080fd5b505af11580156129a7573d6000803e3d6000fd5b50505050905092915050565b60006129c0848484613d0d565b6001600160a01b0384166000908152600160209081526040808320338085529252909120546129fb91869161122e908663ffffffff6131ac16565b5060019392505050565b6016546000906001600160a01b031680610d8e57600560009054906101000a90046001600160a01b03166001600160a01b0316635ab1bd536040518163ffffffff1660e01b815260040160206040518083038186803b158015612a6757600080fd5b505afa158015612a7b573d6000803e3d6000fd5b505050506040513d6020811015612a9157600080fd5b5051604080516832bb32b73a39a43ab160b91b8152815190819003600901812063cac39a0560e01b8252600482015290516001600160a01b039092169163cac39a0591602480820192602092909190829003018186803b158015612af457600080fd5b505afa158015612b08573d6000803e3d6000fd5b505050506040513d6020811015612b1e57600080fd5b5051601680546001600160a01b0319166001600160a01b0383161790559050905090565b600080612b4e84611a2a565b905080612b5f576000915050610cfb565b6001600160a01b03841660009081526013602052604090205483811415612b8b57600092505050610cfb565b612bae6a084595161401484a000000610ddc846114fa888663ffffffff6131ac16565b95945050505050565b6000612bc1613dd8565b600e5460ff16612c11576040805162461bcd60e51b815260206004820152601660248201527511195b1959d85d1a5bdb881a5cc8191a5cd8589b195960521b604482015290519081900360640190fd5b6000612c1b61123f565b90506000612c276127ad565b90506000612c3f83610ddc898563ffffffff6127d416565b905085811015612c8a576040805162461bcd60e51b8152602060048201526011602482015270546f6f206d75636820736c69707061676560781b604482015290519081900360640190fd5b6001600160a01b03851660009081526012602052604090205415612ce4576040805162461bcd60e51b815260206004820152600c60248201526b13db99dbda5b99c8195e1a5d60a21b604482015290519081900360640190fd5b612cee8582613e19565b612d0282610ddc858463ffffffff6127d416565b60055460065460408051629ff11560e81b8152600481019290925260248201849052519299506001600160a01b0390911691639ff115009160448082019260009290919082900301818387803b158015612d5b57600080fd5b505af1158015612d6f573d6000803e3d6000fd5b5050600d54612d87925090508863ffffffff61302a16565b600d55600480546006546040805163c69d057360e01b8152938401919091526001600160a01b038881166024850152604484018b9052606484018590529051911691829163c69d05739160848082019260009290919082900301818387803b158015612df257600080fd5b505af1158015612e06573d6000803e3d6000fd5b50505050806001600160a01b031663532e19a96006546040518263ffffffff1660e01b815260040180828152602001915050600060405180830381600087803b158015612e5257600080fd5b505af1158015612e66573d6000803e3d6000fd5b50999a9950505050505050505050565b80612f0c576005546006546040805163bc8756a960e01b81526004810192909252602482018790526001600160a01b038681166044840152905192169163bc8756a9916064808201926020929091908290030181600087803b158015612edb57600080fd5b505af1158015612eef573d6000803e3d6000fd5b505050506040513d6020811015612f0557600080fd5b5051612f99565b6005546006546040805163c7f067cb60e01b81526004810192909252602482018790526001600160a01b038681166044840152905192169163c7f067cb916064808201926020929091908290030181600087803b158015612f6c57600080fd5b505af1158015612f80573d6000803e3d6000fd5b505050506040513d6020811015612f9657600080fd5b50515b82906130235760405162461bcd60e51b81526004018080602001828103825283818151815260200191508051906020019080838360005b83811015612fe8578181015183820152602001612fd0565b50505050905090810190601f1680156130155780820380516001836020036101000a031916815260200191505b509250505060405180910390fd5b5050505050565b60008282018381101561179757600080fd5b600080600061304a856135ae565b9050600081156131a25761306082600088612bb7565b90508082111561311b576130a38183038760405180604001604052806013815260200172496e737566666963656e74207265776172647360681b81525088612e76565b600480546006546040805163b7721d2d60e01b8152938401919091526001600160a01b0389811660248501528486036044850152905191169163b7721d2d91606480830192600092919082900301818387803b15801561310257600080fd5b505af1158015613116573d6000803e3d6000fd5b505050505b600061312687610d93565b506004805460065460408051637f88a95760e01b8152938401919091526001600160a01b038b811660248501526044840185905290519394501691637f88a9579160648082019260009290919082900301818387803b15801561318857600080fd5b505af115801561319c573d6000803e3d6000fd5b50505050505b9590945092505050565b6000828211156131bb57600080fd5b50900390565b6000806000806131d033610d93565b91509150816000141580156131e55750868210155b61322b576040805162461bcd60e51b8152602060048201526012602482015271151bdbc81b5d58da081c995c5d595cdd195960721b604482015290519081900360640190fd5b60006132356127ad565b9050600061324d83610ddc8b8563ffffffff6127d416565b905087811115613298576040805162461bcd60e51b8152602060048201526011602482015270746f6f206d75636820736c69707061676560781b604482015290519081900360640190fd5b6132a233886128ea565b506132ad3382613507565b60055460065460408051629ff11560e81b8152600481019290925260008c8103602484015290516001600160a01b0390931692639ff1150092604480820193929182900301818387803b15801561330357600080fd5b505af1158015613317573d6000803e3d6000fd5b5050600d5461332f925090508a63ffffffff6131ac16565b600d55600061334f61333f611fe8565b610ddc8c8663ffffffff6127d416565b600f54909150613365908b63ffffffff61302a16565b600f5560105461337b908263ffffffff61302a16565b60105590999098509650505050505050565b600061339933836128ea565b506133a5848433612bb7565b90508161343b5760055460065460408051636901b25360e01b8152600481019290925260248201849052336044830152516001600160a01b0390921691636901b253916064808201926020929091908290030181600087803b15801561340a57600080fd5b505af115801561341e573d6000803e3d6000fd5b505050506040513d602081101561343457600080fd5b50516134c5565b60055460065460408051624c025560e81b8152600481019290925260248201849052336044830152516001600160a01b0390921691634c025500916064808201926020929091908290030181600087803b15801561349857600080fd5b505af11580156134ac573d6000803e3d6000fd5b505050506040513d60208110156134c257600080fd5b50515b611797576040805162461bcd60e51b815260206004820152600e60248201526d19195c1bdcda5d0819985a5b195960921b604482015290519081900360640190fd5b6001600160a01b03821661351a57600080fd5b60025461352d908263ffffffff6131ac16565b6002556001600160a01b038216600090815260208190526040902054613559908263ffffffff6131ac16565b6001600160a01b038316600081815260208181526040808320949094558351858152935191937fddf252ad1be2c89b69c2b068fc378daa952ba7f163c4a11628f55a4df523b3ef929081900390910190a35050565b600080613625600560009054906101000a90046001600160a01b03166001600160a01b0316637ed4b27c6006546040518263ffffffff1660e01b815260040180828152602001915050602060405180830381600087803b15801561361157600080fd5b505af1158015610d71573d6000803e3d6000fd5b905060006136338483612b42565b600c8390556001600160a01b038516600090815260136020526040902092909255509050919050565b6000601d54601b54601c5461366f611aa6565b6040805160208082019690965280820194909452606084019290925260808301523060a0808401919091528151808403909101815260c090920190528051910120905090565b6136bd613ec1565b5033600090815260156020908152604080832085845282528083208151808301909252805482526001015491810191909152906136fa8284613b2d565b3360009081526015602090815260408083208884529091528120818155600101559050613725612a05565b60065460408051636e699d8760e01b815260048101929092523360248301526044820184905260648201879052516001600160a01b039290921691636e699d879160848082019260009290919082900301818387803b15801561378757600080fd5b505af115801561379b573d6000803e3d6000fd5b5050505050505050565b6003805460ff19169055565b336137bc84836128ea565b506137c781836128ea565b506137d3818585613d0d565b6137db612a05565b6006546040805163c08b3f9d60e01b815260048101929092526001600160a01b038481166024840152878116604484015260648301879052905192169163c08b3f9d9160848082019260009290919082900301818387803b15801561378757600080fd5b6001600160a01b03811661385257600080fd5b6003546040516001600160a01b0380841692610100900416907f8be0079c531659141344cd1fd0a4f28419497f9722a3daafe3b4186f6b6457e090600090a3600380546001600160a01b0390921661010002610100600160a81b0319909216919091179055565b6017546000906001600160a01b031680610d8e57600560009054906101000a90046001600160a01b03166001600160a01b0316635ab1bd536040518163ffffffff1660e01b815260040160206040518083038186803b15801561391b57600080fd5b505afa15801561392f573d6000803e3d6000fd5b505050506040513d602081101561394557600080fd5b505160408051621c1bdb60ea1b8152815190819003600301812063cac39a0560e01b8252600482015290516001600160a01b039092169163cac39a0591602480820192602092909190829003018186803b1580156139a257600080fd5b505afa1580156139b6573d6000803e3d6000fd5b505050506040513d60208110156139cc57600080fd5b505190506001600160a01b038116613a13576040805162461bcd60e51b81526020600482015260056024820152641d5b9cd95d60da1b604482015290519081900360640190fd5b601780546001600160a01b0319166001600160a01b038316179055919050565b6001600160a01b0316600090815260186020526040902080546001810190915590565b60008060018686868660405160008152602001604052604051808581526020018460ff1660ff1681526020018381526020018281526020019450505050506020604051602081039080840390855afa158015613ab6573d6000803e3d6000fd5b5050604051601f1901519150506001600160a01b038116612bae576040805162461bcd60e51b815260206004820152601d60248201527f7369676e617475726520766572696669636174696f6e206661696c6564000000604482015290519081900360640190fd5b6003805460ff19166001179055565b81516005546040805163900cf0cf60e01b81529051600093926001600160a01b03169163900cf0cf916004808301926020929190829003018186803b158015613b7557600080fd5b505afa158015613b89573d6000803e3d6000fd5b505050506040513d6020811015613b9f57600080fd5b50516005546040805163a7ab696160e01b81529051613c24926001600160a01b03169163a7ab6961916004808301926020929190829003018186803b158015613be757600080fd5b505afa158015613bfb573d6000803e3d6000fd5b505050506040513d6020811015613c1157600080fd5b505160208701519063ffffffff61302a16565b11158015613c325750600081115b613c83576040805162461bcd60e51b815260206004820152601c60248201527f496e636f6d706c657465207769746864726177616c20706572696f6400000000604482015290519081900360640190fd5b6000613c9c613c906127ad565b610ddc846114fa611fe8565b601054909150613cb2908363ffffffff6131ac16565b601055600f54613cc8908263ffffffff6131ac16565b600f81905550613d05813360405180604001604052806013815260200172496e737566666963656e74207265776172647360681b81525087612e76565b949350505050565b6001600160a01b038216613d2057600080fd5b6001600160a01b038316600090815260208190526040902054613d49908263ffffffff6131ac16565b6001600160a01b038085166000908152602081905260408082209390935590841681522054613d7e908263ffffffff61302a16565b6001600160a01b038084166000818152602081815260409182902094909455805185815290519193928716927fddf252ad1be2c89b69c2b068fc378daa952ba7f163c4a11628f55a4df523b3ef92918290030190a3505050565b60035460ff1615610dfd576040805162461bcd60e51b81526020600482015260066024820152651b1bd8dad95960d21b604482015290519081900360640190fd5b6001600160a01b038216613e2c57600080fd5b600254613e3f908263ffffffff61302a16565b6002556001600160a01b038216600090815260208190526040902054613e6b908263ffffffff61302a16565b6001600160a01b0383166000818152602081815260408083209490945583518581529351929391927fddf252ad1be2c89b69c2b068fc378daa952ba7f163c4a11628f55a4df523b3ef9281900390910190a35050565b60405180604001604052806000815260200160008152509056fe5065726d69742861646472657373206f776e65722c61646472657373207370656e6465722c75696e743235362076616c75652c75696e74323536206e6f6e63652c75696e7432353620646561646c696e6529454950373132446f6d61696e28737472696e67206e616d652c737472696e672076657273696f6e2c75696e7432353620636861696e49642c6164647265737320766572696679696e67436f6e747261637429a265627a7a723158207ddb214f0edecce8025c57b51ca0d5f7ddb792209ef4693972390be79575c1e464736f6c63430005110032",
        "linkReferences": {}
    },
    "methodIdentifiers": {
        "DOMAIN_SEPARATOR()": "3644e515",
        "_cacheDomainSeparatorV4()": "851e286e",
        "_chainId()": "74773412",
        "_hashTypedDataV4(bytes32)": "c8f1ecd8",
        "_sellVoucher_new(uint256,uint256,bool)": "6035083f",
        "_toTypedDataHash(bytes32,bytes32)": "31f438a7",
        "activeAmount()": "3a09bf44",
        "allowance(address,address)": "dd62ed3e",
        "approve(address,uint256)": "095ea7b3",
        "balanceOf(address)": "70a08231",
        "buyVoucher(uint256,uint256)": "6ab15071",
        "buyVoucherPOL(uint256,uint256)": "e4457a8a",
        "buyVoucherWithPermit(uint256,uint256,uint256,uint8,bytes32,bytes32)": "eaf43bb5",
        "commissionRate_deprecated()": "8ccdd289",
        "decimals()": "313ce567",
        "decreaseAllowance(address,uint256)": "a457c2d7",
        "delegation()": "df5cf723",
        "eip712Version()": "6854d2a0",
        "eventsHub()": "883b455f",
        "exchangeRate()": "3ba0b9a9",
        "getLiquidRewards(address)": "676e5550",
        "getRewardPerShare()": "1bf494a7",
        "getStakeAndRewards(address)": "533573b7",
        "getTotalStake(address)": "1e7ff8f6",
        "increaseAllowance(address,uint256)": "39509351",
        "initalRewardPerShare(address)": "e4cd1aec",
        "initialize(uint256,address,address)": "b4988fd0",
        "isOwner()": "8f32d59b",
        "lock()": "f83d08ba",
        "locked()": "cf309012",
        "migrateIn(address,uint256)": "a0c1ca34",
        "migrateOut(address,uint256)": "6e7ce591",
        "minAmount()": "9b2cb5d8",
        "name()": "06fdde03",
        "nonces(address)": "7ecebe00",
        "owner()": "8da5cb5b",
        "permit(address,address,uint256,uint256,uint8,bytes32,bytes32)": "d505accf",
        "polToken()": "b6658d07",
        "renounceOwnership()": "715018a6",
        "restake()": "4f91440d",
        "restakeAndStakePOL(uint256)": "75cbee12",
        "restakeAndTransferFrom(address,uint256)": "33d266eb",
        "restakeAndUnstakePOL(uint256)": "83f3962a",
        "restakePOL()": "9ad5f5a4",
        "rewardPerShare()": "446a2ec8",
        "sellVoucher(uint256,uint256)": "029d3040",
        "sellVoucherPOL(uint256,uint256)": "b89b63c1",
        "sellVoucher_new(uint256,uint256)": "c83ec04d",
        "sellVoucher_newPOL(uint256,uint256)": "e570b78b",
        "stakeManager()": "7542ff95",
        "stakingLogger()": "3d94eb05",
        "symbol()": "95d89b41",
        "totalSupply()": "18160ddd",
        "transfer(address,uint256)": "a9059cbb",
        "transferFrom(address,address,uint256)": "23b872dd",
        "transferOwnership(address)": "f2fde38b",
        "transferPOL(address,uint256)": "b60c76fa",
        "unbondNonces(address)": "3046c204",
        "unbonds(address)": "653ec134",
        "unbonds_new(address,uint256)": "795be587",
        "unlock()": "a69df4b5",
        "unstakeClaimTokens()": "8d16a14a",
        "unstakeClaimTokensPOL()": "232e5415",
        "unstakeClaimTokens_new(uint256)": "e97fddc2",
        "unstakeClaimTokens_newPOL(uint256)": "8759c234",
        "updateDelegation(bool)": "7ba8c820",
        "validatorId()": "5c5f7dae",
        "validatorRewards_deprecated()": "39c31e93",
        "version()": "54fd4d50",
        "withdrawExchangeRate()": "bfb18f29",
        "withdrawPool()": "5c42c733",
        "withdrawRewards()": "c7b8981c",
        "withdrawRewardsPOL()": "e0db556b",
        "withdrawShares()": "8d086da4"
    },
    "id": 44
}