{
    "abi": [
        {
            "type": "constructor",
            "inputs": [],
            "stateMutability": "nonpayable"
        },
        {
            "type": "function",
            "name": "DOMAIN_SEPARATOR",
            "inputs": [],
            "outputs": [
                {
                    "name": "",
                    "type": "bytes32",
                    "internalType": "bytes32"
                }
            ],
            "stateMutability": "view"
        },
        {
            "type": "function",
            "name": "_cacheDomainSeparatorV4",
            "inputs": [],
            "outputs": [
                {
                    "name": "",
                    "type": "bytes32",
                    "internalType": "bytes32"
                }
            ],
            "stateMutability": "nonpayable"
        },
        {
            "type": "function",
            "name": "_chainId",
            "inputs": [],
            "outputs": [
                {
                    "name": "chainId",
                    "type": "uint256",
                    "internalType": "uint256"
                }
            ],
            "stateMutability": "pure"
        },
        {
            "type": "function",
            "name": "_hashTypedDataV4",
            "inputs": [
                {
                    "name": "structHash",
                    "type": "bytes32",
                    "internalType": "bytes32"
                }
            ],
            "outputs": [
                {
                    "name": "",
                    "type": "bytes32",
                    "internalType": "bytes32"
                }
            ],
            "stateMutability": "view"
        },
        {
            "type": "function",
            "name": "_sellVoucher_new",
            "inputs": [
                {
                    "name": "claimAmount",
                    "type": "uint256",
                    "internalType": "uint256"
                },
                {
                    "name": "maximumSharesToBurn",
                    "type": "uint256",
                    "internalType": "uint256"
                },
                {
                    "name": "pol",
                    "type": "bool",
                    "internalType": "bool"
                }
            ],
            "outputs": [],
            "stateMutability": "nonpayable"
        },
        {
            "type": "function",
            "name": "_toTypedDataHash",
            "inputs": [
                {
                    "name": "domainSeparator",
                    "type": "bytes32",
                    "internalType": "bytes32"
                },
                {
                    "name": "structHash",
                    "type": "bytes32",
                    "internalType": "bytes32"
                }
            ],
            "outputs": [
                {
                    "name": "",
                    "type": "bytes32",
                    "internalType": "bytes32"
                }
            ],
            "stateMutability": "pure"
        },
        {
            "type": "function",
            "name": "activeAmount",
            "inputs": [],
            "outputs": [
                {
                    "name": "",
                    "type": "uint256",
                    "internalType": "uint256"
                }
            ],
            "stateMutability": "view"
        },
        {
            "type": "function",
            "name": "allowance",
            "inputs": [
                {
                    "name": "owner",
                    "type": "address",
                    "internalType": "address"
                },
                {
                    "name": "spender",
                    "type": "address",
                    "internalType": "address"
                }
            ],
            "outputs": [
                {
                    "name": "",
                    "type": "uint256",
                    "internalType": "uint256"
                }
            ],
            "stateMutability": "view"
        },
        {
            "type": "function",
            "name": "approve",
            "inputs": [
                {
                    "name": "spender",
                    "type": "address",
                    "internalType": "address"
                },
                {
                    "name": "value",
                    "type": "uint256",
                    "internalType": "uint256"
                }
            ],
            "outputs": [
                {
                    "name": "",
                    "type": "bool",
                    "internalType": "bool"
                }
            ],
            "stateMutability": "nonpayable"
        },
        {
            "type": "function",
            "name": "balanceOf",
            "inputs": [
                {
                    "name": "owner",
                    "type": "address",
                    "internalType": "address"
                }
            ],
            "outputs": [
                {
                    "name": "",
                    "type": "uint256",
                    "internalType": "uint256"
                }
            ],
            "stateMutability": "view"
        },
        {
            "type": "function",
            "name": "buyVoucher",
            "inputs": [
                {
                    "name": "_amount",
                    "type": "uint256",
                    "internalType": "uint256"
                },
                {
                    "name": "_minSharesToMint",
                    "type": "uint256",
                    "internalType": "uint256"
                }
            ],
            "outputs": [
                {
                    "name": "amountToDeposit",
                    "type": "uint256",
                    "internalType": "uint256"
                }
            ],
            "stateMutability": "nonpayable"
        },
        {
            "type": "function",
            "name": "buyVoucherPOL",
            "inputs": [
                {
                    "name": "_amount",
                    "type": "uint256",
                    "internalType": "uint256"
                },
                {
                    "name": "_minSharesToMint",
                    "type": "uint256",
                    "internalType": "uint256"
                }
            ],
            "outputs": [
                {
                    "name": "amountToDeposit",
                    "type": "uint256",
                    "internalType": "uint256"
                }
            ],
            "stateMutability": "nonpayable"
        },
        {
            "type": "function",
            "name": "buyVoucherWithPermit",
            "inputs": [
                {
                    "name": "_amount",
                    "type": "uint256",
                    "internalType": "uint256"
                },
                {
                    "name": "_minSharesToMint",
                    "type": "uint256",
                    "internalType": "uint256"
                },
                {
                    "name": "deadline",
                    "type": "uint256",
                    "internalType": "uint256"
                },
                {
                    "name": "v",
                    "type": "uint8",
                    "internalType": "uint8"
                },
                {
                    "name": "r",
                    "type": "bytes32",
                    "internalType": "bytes32"
                },
                {
                    "name": "s",
                    "type": "bytes32",
                    "internalType": "bytes32"
                }
            ],
            "outputs": [
                {
                    "name": "amountToDeposit",
                    "type": "uint256",
                    "internalType": "uint256"
                }
            ],
            "stateMutability": "nonpayable"
        },
        {
            "type": "function",
            "name": "commissionRate_deprecated",
            "inputs": [],
            "outputs": [
                {
                    "name": "",
                    "type": "uint256",
                    "internalType": "uint256"
                }
            ],
            "stateMutability": "view"
        },
        {
            "type": "function",
            "name": "decimals",
            "inputs": [],
            "outputs": [
                {
                    "name": "",
                    "type": "uint8",
                    "internalType": "uint8"
                }
            ],
            "stateMutability": "pure"
        },
        {
            "type": "function",
            "name": "decreaseAllowance",
            "inputs": [
                {
                    "name": "spender",
                    "type": "address",
                    "internalType": "address"
                },
                {
                    "name": "subtractedValue",
                    "type": "uint256",
                    "internalType": "uint256"
                }
            ],
            "outputs": [
                {
                    "name": "",
                    "type": "bool",
                    "internalType": "bool"
                }
            ],
            "stateMutability": "nonpayable"
        },
        {
            "type": "function",
            "name": "delegation",
            "inputs": [],
            "outputs": [
                {
                    "name": "",
                    "type": "bool",
                    "internalType": "bool"
                }
            ],
            "stateMutability": "view"
        },
        {
            "type": "function",
            "name": "eip712Version",
            "inputs": [],
            "outputs": [
                {
                    "name": "",
                    "type": "string",
                    "internalType": "string"
                }
            ],
            "stateMutability": "view"
        },
        {
            "type": "function",
            "name": "eventsHub",
            "inputs": [],
            "outputs": [
                {
                    "name": "",
                    "type": "address",
                    "internalType": "contract EventsHub"
                }
            ],
            "stateMutability": "view"
        },
        {
            "type": "function",
            "name": "exchangeRate",
            "inputs": [],
            "outputs": [
                {
                    "name": "",
                    "type": "uint256",
                    "internalType": "uint256"
                }
            ],
            "stateMutability": "view"
        },
        {
            "type": "function",
            "name": "getLiquidRewards",
            "inputs": [
                {
                    "name": "user",
                    "type": "address",
                    "internalType": "address"
                }
            ],
            "outputs": [
                {
                    "name": "",
                    "type": "uint256",
                    "internalType": "uint256"
                }
            ],
            "stateMutability": "view"
        },
        {
            "type": "function",
            "name": "getRewardPerShare",
            "inputs": [],
            "outputs": [
                {
                    "name": "",
                    "type": "uint256",
                    "internalType": "uint256"
                }
            ],
            "stateMutability": "view"
        },
        {
            "type": "function",
            "name": "getStakeAndRewards",
            "inputs": [
                {
                    "name": "user",
                    "type": "address",
                    "internalType": "address"
                }
            ],
            "outputs": [
                {
                    "name": "stakeAmount",
                    "type": "uint256",
                    "internalType": "uint256"
                },
                {
                    "name": "liquidRewards",
                    "type": "uint256",
                    "internalType": "uint256"
                }
            ],
            "stateMutability": "view"
        },
        {
            "type": "function",
            "name": "getTotalStake",
            "inputs": [
                {
                    "name": "user",
                    "type": "address",
                    "internalType": "address"
                }
            ],
            "outputs": [
                {
                    "name": "",
                    "type": "uint256",
                    "internalType": "uint256"
                },
                {
                    "name": "",
                    "type": "uint256",
                    "internalType": "uint256"
                }
            ],
            "stateMutability": "view"
        },
        {
            "type": "function",
            "name": "increaseAllowance",
            "inputs": [
                {
                    "name": "spender",
                    "type": "address",
                    "internalType": "address"
                },
                {
                    "name": "addedValue",
                    "type": "uint256",
                    "internalType": "uint256"
                }
            ],
            "outputs": [
                {
                    "name": "",
                    "type": "bool",
                    "internalType": "bool"
                }
            ],
            "stateMutability": "nonpayable"
        },
        {
            "type": "function",
            "name": "initalRewardPerShare",
            "inputs": [
                {
                    "name": "",
                    "type": "address",
                    "internalType": "address"
                }
            ],
            "outputs": [
                {
                    "name": "",
                    "type": "uint256",
                    "internalType": "uint256"
                }
            ],
            "stateMutability": "view"
        },
        {
            "type": "function",
            "name": "initialize",
            "inputs": [
                {
                    "name": "_validatorId",
                    "type": "uint256",
                    "internalType": "uint256"
                },
                {
                    "name": "_stakingLogger",
                    "type": "address",
                    "internalType": "address"
                },
                {
                    "name": "_stakeManager",
                    "type": "address",
                    "internalType": "address"
                }
            ],
            "outputs": [],
            "stateMutability": "nonpayable"
        },
        {
            "type": "function",
            "name": "isOwner",
            "inputs": [],
            "outputs": [
                {
                    "name": "",
                    "type": "bool",
                    "internalType": "bool"
                }
            ],
            "stateMutability": "view"
        },
        {
            "type": "function",
            "name": "lock",
            "inputs": [],
            "outputs": [],
            "stateMutability": "nonpayable"
        },
        {
            "type": "function",
            "name": "locked",
            "inputs": [],
            "outputs": [
                {
                    "name": "",
                    "type": "bool",
                    "internalType": "bool"
                }
            ],
            "stateMutability": "view"
        },
        {
            "type": "function",
            "name": "migrateIn",
            "inputs": [
                {
                    "name": "user",
                    "type": "address",
                    "internalType": "address"
                },
                {
                    "name": "amount",
                    "type": "uint256",
                    "internalType": "uint256"
                }
            ],
            "outputs": [],
            "stateMutability": "nonpayable"
        },
        {
            "type": "function",
            "name": "migrateOut",
            "inputs": [
                {
                    "name": "user",
                    "type": "address",
                    "internalType": "address"
                },
                {
                    "name": "amount",
                    "type": "uint256",
                    "internalType": "uint256"
                }
            ],
            "outputs": [],
            "stateMutability": "nonpayable"
        },
        {
            "type": "function",
            "name": "minAmount",
            "inputs": [],
            "outputs": [
                {
                    "name": "",
                    "type": "uint256",
                    "internalType": "uint256"
                }
            ],
            "stateMutability": "view"
        },
        {
            "type": "function",
            "name": "name",
            "inputs": [],
            "outputs": [
                {
                    "name": "",
                    "type": "string",
                    "internalType": "string"
                }
            ],
            "stateMutability": "view"
        },
        {
            "type": "function",
            "name": "nonces",
            "inputs": [
                {
                    "name": "owner",
                    "type": "address",
                    "internalType": "address"
                }
            ],
            "outputs": [
                {
                    "name": "",
                    "type": "uint256",
                    "internalType": "uint256"
                }
            ],
            "stateMutability": "view"
        },
        {
            "type": "function",
            "name": "owner",
            "inputs": [],
            "outputs": [
                {
                    "name": "",
                    "type": "address",
                    "internalType": "address"
                }
            ],
            "stateMutability": "view"
        },
        {
            "type": "function",
            "name": "permit",
            "inputs": [
                {
                    "name": "owner",
                    "type": "address",
                    "internalType": "address"
                },
                {
                    "name": "spender",
                    "type": "address",
                    "internalType": "address"
                },
                {
                    "name": "value",
                    "type": "uint256",
                    "internalType": "uint256"
                },
                {
                    "name": "deadline",
                    "type": "uint256",
                    "internalType": "uint256"
                },
                {
                    "name": "v",
                    "type": "uint8",
                    "internalType": "uint8"
                },
                {
                    "name": "r",
                    "type": "bytes32",
                    "internalType": "bytes32"
                },
                {
                    "name": "s",
                    "type": "bytes32",
                    "internalType": "bytes32"
                }
            ],
            "outputs": [],
            "stateMutability": "nonpayable"
        },
        {
            "type": "function",
            "name": "polToken",
            "inputs": [],
            "outputs": [
                {
                    "name": "",
                    "type": "address",
                    "internalType": "contract IERC20Permit"
                }
            ],
            "stateMutability": "view"
        },
        {
            "type": "function",
            "name": "renounceOwnership",
            "inputs": [],
            "outputs": [],
            "stateMutability": "nonpayable"
        },
        {
            "type": "function",
            "name": "restake",
            "inputs": [],
            "outputs": [
                {
                    "name": "",
                    "type": "uint256",
                    "internalType": "uint256"
                },
                {
                    "name": "",
                    "type": "uint256",
                    "internalType": "uint256"
                }
            ],
            "stateMutability": "nonpayable"
        },
        {
            "type": "function",
            "name": "restakeAndStakePOL",
            "inputs": [
                {
                    "name": "_amount",
                    "type": "uint256",
                    "internalType": "uint256"
                }
            ],
            "outputs": [
                {
                    "name": "",
                    "type": "uint256",
                    "internalType": "uint256"
                },
                {
                    "name": "",
                    "type": "uint256",
                    "internalType": "uint256"
                }
            ],
            "stateMutability": "nonpayable"
        },
        {
            "type": "function",
            "name": "restakeAndTransferFrom",
            "inputs": [
                {
                    "name": "from",
                    "type": "address",
                    "internalType": "address"
                },
                {
                    "name": "to",
                    "type": "address",
                    "internalType": "address"
                },
                {
                    "name": "value",
                    "type": "uint256",
                    "internalType": "uint256"
                }
            ],
            "outputs": [
                {
                    "name": "",
                    "type": "bool",
                    "internalType": "bool"
                },
                {
                    "name": "",
                    "type": "uint256",
                    "internalType": "uint256"
                }
            ],
            "stateMutability": "nonpayable"
        },
        {
            "type": "function",
            "name": "restakeAndUnstakePOL",
            "inputs": [
                {
                    "name": "_amount",
                    "type": "uint256",
                    "internalType": "uint256"
                }
            ],
            "outputs": [
                {
                    "name": "",
                    "type": "uint256",
                    "internalType": "uint256"
                }
            ],
            "stateMutability": "nonpayable"
        },
        {
            "type": "function",
            "name": "restakePOL",
            "inputs": [],
            "outputs": [
                {
                    "name": "",
                    "type": "uint256",
                    "internalType": "uint256"
                },
                {
                    "name": "",
                    "type": "uint256",
                    "internalType": "uint256"
                }
            ],
            "stateMutability": "nonpayable"
        },
        {
            "type": "function",
            "name": "rewardPerShare",
            "inputs": [],
            "outputs": [
                {
                    "name": "",
                    "type": "uint256",
                    "internalType": "uint256"
                }
            ],
            "stateMutability": "view"
        },
        {
            "type": "function",
            "name": "sellVoucher",
            "inputs": [
                {
                    "name": "claimAmount",
                    "type": "uint256",
                    "internalType": "uint256"
                },
                {
                    "name": "maximumSharesToBurn",
                    "type": "uint256",
                    "internalType": "uint256"
                }
            ],
            "outputs": [],
            "stateMutability": "nonpayable"
        },
        {
            "type": "function",
            "name": "sellVoucherPOL",
            "inputs": [
                {
                    "name": "claimAmount",
                    "type": "uint256",
                    "internalType": "uint256"
                },
                {
                    "name": "maximumSharesToBurn",
                    "type": "uint256",
                    "internalType": "uint256"
                }
            ],
            "outputs": [],
            "stateMutability": "nonpayable"
        },
        {
            "type": "function",
            "name": "sellVoucher_new",
            "inputs": [
                {
                    "name": "claimAmount",
                    "type": "uint256",
                    "internalType": "uint256"
                },
                {
                    "name": "maximumSharesToBurn",
                    "type": "uint256",
                    "internalType": "uint256"
                }
            ],
            "outputs": [],
            "stateMutability": "nonpayable"
        },
        {
            "type": "function",
            "name": "sellVoucher_newPOL",
            "inputs": [
                {
                    "name": "claimAmount",
                    "type": "uint256",
                    "internalType": "uint256"
                },
                {
                    "name": "maximumSharesToBurn",
                    "type": "uint256",
                    "internalType": "uint256"
                }
            ],
            "outputs": [],
            "stateMutability": "nonpayable"
        },
        {
            "type": "function",
            "name": "stakeManager",
            "inputs": [],
            "outputs": [
                {
                    "name": "",
                    "type": "address",
                    "internalType": "contract IStakeManager"
                }
            ],
            "stateMutability": "view"
        },
        {
            "type": "function",
            "name": "stakingLogger",
            "inputs": [],
            "outputs": [
                {
                    "name": "",
                    "type": "address",
                    "internalType": "contract StakingInfo"
                }
            ],
            "stateMutability": "view"
        },
        {
            "type": "function",
            "name": "symbol",
            "inputs": [],
            "outputs": [
                {
                    "name": "",
                    "type": "string",
                    "internalType": "string"
                }
            ],
            "stateMutability": "view"
        },
        {
            "type": "function",
            "name": "totalSupply",
            "inputs": [],
            "outputs": [
                {
                    "name": "",
                    "type": "uint256",
                    "internalType": "uint256"
                }
            ],
            "stateMutability": "view"
        },
        {
            "type": "function",
            "name": "transfer",
            "inputs": [
                {
                    "name": "to",
                    "type": "address",
                    "internalType": "address"
                },
                {
                    "name": "value",
                    "type": "uint256",
                    "internalType": "uint256"
                }
            ],
            "outputs": [
                {
                    "name": "",
                    "type": "bool",
                    "internalType": "bool"
                }
            ],
            "stateMutability": "nonpayable"
        },
        {
            "type": "function",
            "name": "transferFrom",
            "inputs": [
                {
                    "name": "from",
                    "type": "address",
                    "internalType": "address"
                },
                {
                    "name": "to",
                    "type": "address",
                    "internalType": "address"
                },
                {
                    "name": "value",
                    "type": "uint256",
                    "internalType": "uint256"
                }
            ],
            "outputs": [
                {
                    "name": "",
                    "type": "bool",
                    "internalType": "bool"
                }
            ],
            "stateMutability": "nonpayable"
        },
        {
            "type": "function",
            "name": "transferOwnership",
            "inputs": [
                {
                    "name": "newOwner",
                    "type": "address",
                    "internalType": "address"
                }
            ],
            "outputs": [],
            "stateMutability": "nonpayable"
        },
        {
            "type": "function",
            "name": "transferPOL",
            "inputs": [
                {
                    "name": "to",
                    "type": "address",
                    "internalType": "address"
                },
                {
                    "name": "value",
                    "type": "uint256",
                    "internalType": "uint256"
                }
            ],
            "outputs": [
                {
                    "name": "",
                    "type": "bool",
                    "internalType": "bool"
                }
            ],
            "stateMutability": "nonpayable"
        },
        {
            "type": "function",
            "name": "unbondNonces",
            "inputs": [
                {
                    "name": "",
                    "type": "address",
                    "internalType": "address"
                }
            ],
            "outputs": [
                {
                    "name": "",
                    "type": "uint256",
                    "internalType": "uint256"
                }
            ],
            "stateMutability": "view"
        },
        {
            "type": "function",
            "name": "unbonds",
            "inputs": [
                {
                    "name": "",
                    "type": "address",
                    "internalType": "address"
                }
            ],
            "outputs": [
                {
                    "name": "shares",
                    "type": "uint256",
                    "internalType": "uint256"
                },
                {
                    "name": "withdrawEpoch",
                    "type": "uint256",
                    "internalType": "uint256"
                }
            ],
            "stateMutability": "view"
        },
        {
            "type": "function",
            "name": "unbonds_new",
            "inputs": [
                {
                    "name": "",
                    "type": "address",
                    "internalType": "address"
                },
                {
                    "name": "",
                    "type": "uint256",
                    "internalType": "uint256"
                }
            ],
            "outputs": [
                {
                    "name": "shares",
                    "type": "uint256",
                    "internalType": "uint256"
                },
                {
                    "name": "withdrawEpoch",
                    "type": "uint256",
                    "internalType": "uint256"
                }
            ],
            "stateMutability": "view"
        },
        {
            "type": "function",
            "name": "unlock",
            "inputs": [],
            "outputs": [],
            "stateMutability": "nonpayable"
        },
        {
            "type": "function",
            "name": "unstakeClaimTokens",
            "inputs": [],
            "outputs": [],
            "stateMutability": "nonpayable"
        },
        {
            "type": "function",
            "name": "unstakeClaimTokensPOL",
            "inputs": [],
            "outputs": [],
            "stateMutability": "nonpayable"
        },
        {
            "type": "function",
            "name": "unstakeClaimTokens_new",
            "inputs": [
                {
                    "name": "unbondNonce",
                    "type": "uint256",
                    "internalType": "uint256"
                }
            ],
            "outputs": [],
            "stateMutability": "nonpayable"
        },
        {
            "type": "function",
            "name": "unstakeClaimTokens_newPOL",
            "inputs": [
                {
                    "name": "unbondNonce",
                    "type": "uint256",
                    "internalType": "uint256"
                }
            ],
            "outputs": [],
            "stateMutability": "nonpayable"
        },
        {
            "type": "function",
            "name": "updateDelegation",
            "inputs": [
                {
                    "name": "_delegation",
                    "type": "bool",
                    "internalType": "bool"
                }
            ],
            "outputs": [],
            "stateMutability": "nonpayable"
        },
        {
            "type": "function",
            "name": "validatorId",
            "inputs": [],
            "outputs": [
                {
                    "name": "",
                    "type": "uint256",
                    "internalType": "uint256"
                }
            ],
            "stateMutability": "view"
        },
        {
            "type": "function",
            "name": "validatorRewards_deprecated",
            "inputs": [],
            "outputs": [
                {
                    "name": "",
                    "type": "uint256",
                    "internalType": "uint256"
                }
            ],
            "stateMutability": "view"
        },
        {
            "type": "function",
            "name": "version",
            "inputs": [],
            "outputs": [
                {
                    "name": "",
                    "type": "string",
                    "internalType": "string"
                }
            ],
            "stateMutability": "pure"
        },
        {
            "type": "function",
            "name": "withdrawExchangeRate",
            "inputs": [],
            "outputs": [
                {
                    "name": "",
                    "type": "uint256",
                    "internalType": "uint256"
                }
            ],
            "stateMutability": "view"
        },
        {
            "type": "function",
            "name": "withdrawPool",
            "inputs": [],
            "outputs": [
                {
                    "name": "",
                    "type": "uint256",
                    "internalType": "uint256"
                }
            ],
            "stateMutability": "view"
        },
        {
            "type": "function",
            "name": "withdrawRewards",
            "inputs": [],
            "outputs": [],
            "stateMutability": "nonpayable"
        },
        {
            "type": "function",
            "name": "withdrawRewardsPOL",
            "inputs": [],
            "outputs": [],
            "stateMutability": "nonpayable"
        },
        {
            "type": "function",
            "name": "withdrawShares",
            "inputs": [],
            "outputs": [
                {
                    "name": "",
                    "type": "uint256",
                    "internalType": "uint256"
                }
            ],
            "stateMutability": "view"
        },
        {
            "type": "event",
            "name": "Approval",
            "inputs": [
                {
                    "name": "owner",
                    "type": "address",
                    "indexed": true,
                    "internalType": "address"
                },
                {
                    "name": "spender",
                    "type": "address",
                    "indexed": true,
                    "internalType": "address"
                },
                {
                    "name": "value",
                    "type": "uint256",
                    "indexed": false,
                    "internalType": "uint256"
                }
            ],
            "anonymous": false
        },
        {
            "type": "event",
            "name": "OwnershipTransferred",
            "inputs": [
                {
                    "name": "previousOwner",
                    "type": "address",
                    "indexed": true,
                    "internalType": "address"
                },
                {
                    "name": "newOwner",
                    "type": "address",
                    "indexed": true,
                    "internalType": "address"
                }
            ],
            "anonymous": false
        },
        {
            "type": "event",
            "name": "Transfer",
            "inputs": [
                {
                    "name": "from",
                    "type": "address",
                    "indexed": true,
                    "internalType": "address"
                },
                {
                    "name": "to",
                    "type": "address",
                    "indexed": true,
                    "internalType": "address"
                },
                {
                    "name": "value",
                    "type": "uint256",
                    "indexed": false,
                    "internalType": "uint256"
                }
            ],
            "anonymous": false
        }
    ],
    "bytecode": {
        "object": "0x60806040526003805460ff60a81b191690553480156200001e57600080fd5b5060038054610100338102610100600160a81b0319909216919091179182905560405191046001600160a01b0316906000907f8be0079c531659141344cd1fd0a4f28419497f9722a3daafe3b4186f6b6457e0908290a3620000886001600160e01b036200008e16565b620000a3565b6003805460ff60a81b1916600160a81b179055565b61408b80620000b36000396000f3fe608060405234801561001057600080fd5b506004361061043e5760003560e01c806383f3962a11610236578063b60c76fa1161013b578063dd62ed3e116100c3578063e570b78b11610087578063e570b78b14610ba5578063e97fddc214610bc8578063eaf43bb514610be5578063f2fde38b14610c23578063f83d08ba14610c495761043e565b8063dd62ed3e14610b1e578063df5cf72314610b4c578063e0db556b14610b54578063e4457a8a14610b5c578063e4cd1aec14610b7f5761043e565b8063c7b8981c1161010a578063c7b8981c14610a7d578063c83ec04d14610a85578063c8f1ecd814610aa8578063cf30901214610ac5578063d505accf14610acd5761043e565b8063b60c76fa14610a1e578063b6658d0714610a4a578063b89b63c114610a52578063bfb18f2914610a755761043e565b80639356f290116101be578063a0c1ca341161018d578063a0c1ca341461095e578063a457c2d71461098a578063a69df4b5146109b6578063a9059cbb146109be578063b4988fd0146109ea5761043e565b80639356f290146108f557806395d89b41146109465780639ad5f5a41461094e5780639b2cb5d8146109565761043e565b80638ccdd289116102055780638ccdd289146108cd5780638d086da4146108d55780638d16a14a146108dd5780638da5cb5b146108e55780638f32d59b146108ed5761043e565b806383f3962a14610883578063851e286e146108a05780638759c234146108a8578063883b455f146108c55761043e565b80634f91440d116103475780636ab15071116102cf5780637542ff95116102935780637542ff95146107ed57806375cbee12146107f5578063795be587146108125780637ba8c8201461083e5780637ecebe001461085d5761043e565b80636ab15071146107685780636e7ce5911461078b57806370a08231146107b7578063715018a6146107dd57806374773412146107e55761043e565b80635c5f7dae116103165780635c5f7dae146106e15780636035083f146106e9578063653ec13414610714578063676e55501461073a5780636854d2a0146107605761043e565b80634f91440d146106a3578063533573b7146106ab57806354fd4d50146106d15780635c42c733146106d95761043e565b8063313ce567116103ca57806339c31e931161039957806339c31e931461065f5780633a09bf44146106675780633ba0b9a91461066f5780633d94eb0514610677578063446a2ec81461069b5761043e565b8063313ce567146105ea57806331f438a7146106085780633644e5151461062b57806339509351146106335761043e565b80631bf494a7116104115780631bf494a71461053f5780631e7ff8f614610547578063232e54151461058657806323b872dd1461058e5780633046c204146105c45761043e565b8063029d30401461044357806306fdde0314610468578063095ea7b3146104e557806318160ddd14610525575b600080fd5b6104666004803603604081101561045957600080fd5b5080359060200135610c51565b005b610470610c61565b6040805160208082528351818301528351919283929083019185019080838360005b838110156104aa578181015183820152602001610492565b50505050905090810190601f1680156104d75780820380516001836020036101000a031916815260200191505b509250505060405180910390f35b610511600480360360408110156104fb57600080fd5b506001600160a01b038135169060200135610cf4565b604080519115158252519081900360200190f35b61052d610d0b565b60408051918252519081900360200190f35b61052d610d11565b61056d6004803603602081101561055d57600080fd5b50356001600160a01b0316610d9d565b6040805192835260208301919091528051918290030190f35b610466610dfd565b610511600480360360608110156105a457600080fd5b506001600160a01b03813581169160208101359091169060400135610e09565b61052d600480360360208110156105da57600080fd5b50356001600160a01b0316610ebf565b6105f2610ed1565b6040805160ff9092168252519081900360200190f35b61052d6004803603604081101561061e57600080fd5b5080359060200135610ed6565b61052d610f11565b6105116004803603604081101561064957600080fd5b506001600160a01b038135169060200135610f17565b61052d610f58565b61052d610f5e565b61052d610f64565b61067f611021565b604080516001600160a01b039092168252519081900360200190f35b61052d611030565b61056d611036565b61056d600480360360208110156106c157600080fd5b50356001600160a01b031661104c565b610470611239565b61052d611258565b61052d61125e565b610466600480360360608110156106ff57600080fd5b50803590602081013590604001351515611264565b61056d6004803603602081101561072a57600080fd5b50356001600160a01b031661145f565b61052d6004803603602081101561075057600080fd5b50356001600160a01b0316611478565b610470611493565b61052d6004803603604081101561077e57600080fd5b50803590602001356114ae565b610466600480360360408110156107a157600080fd5b506001600160a01b0381351690602001356114c3565b61052d600480360360208110156107cd57600080fd5b50356001600160a01b031661174f565b61046661176a565b61052d6117cb565b61067f6117cf565b61056d6004803603602081101561080b57600080fd5b50356117de565b61056d6004803603604081101561082857600080fd5b506001600160a01b0381351690602001356119b4565b6104666004803603602081101561085457600080fd5b503515156119d8565b61052d6004803603602081101561087357600080fd5b50356001600160a01b03166119fc565b61052d6004803603602081101561089957600080fd5b5035611a17565b61052d611a34565b610466600480360360208110156108be57600080fd5b5035611ac7565b61067f611ad5565b61052d611ae4565b61052d611aea565b610466611af0565b61067f611afa565b610511611b0e565b61092b6004803603606081101561090b57600080fd5b506001600160a01b03813581169160208101359091169060400135611b24565b60408051921515835260208301919091528051918290030190f35b610470611ebb565b61056d611f08565b61052d611f16565b6104666004803603604081101561097457600080fd5b506001600160a01b038135169060200135611f1c565b610511600480360360408110156109a057600080fd5b506001600160a01b038135169060200135611f4a565b610466611f86565b610511600480360360408110156109d457600080fd5b506001600160a01b038135169060200135611f9f565b61046660048036036060811015610a0057600080fd5b508035906001600160a01b0360208201358116916040013516611fad565b61051160048036036040811015610a3457600080fd5b506001600160a01b03813516906020013561207b565b61067f612089565b61046660048036036040811015610a6857600080fd5b5080359060200135612098565b61052d6120a4565b6104666120eb565b61046660048036036040811015610a9b57600080fd5b50803590602001356120f6565b61052d60048036036020811015610abe57600080fd5b5035612102565b610511612110565b610466600480360360e0811015610ae357600080fd5b506001600160a01b03813581169160208101359091169060408101359060608101359060ff6080820135169060a08101359060c00135612119565b61052d60048036036040811015610b3457600080fd5b506001600160a01b0381358116916020013516612288565b6105116122b3565b6104666122bc565b61052d60048036036040811015610b7257600080fd5b50803590602001356122c7565b61052d60048036036020811015610b9557600080fd5b50356001600160a01b03166122d5565b61046660048036036040811015610bbb57600080fd5b50803590602001356122e7565b61046660048036036020811015610bde57600080fd5b50356122f3565b61052d600480360360c0811015610bfb57600080fd5b5080359060208101359060408101359060ff6060820135169060808101359060a001356122fe565b61046660048036036020811015610c3957600080fd5b50356001600160a01b03166124e7565b610466612501565b610c5d8282600061251a565b5050565b6060610c6e6006546126ca565b60405160200180806e44656c65676174656420504f4c202360881b815250600f0182805190602001908083835b60208310610cba5780518252601f199092019160209182019101610c9b565b6001836020036101000a03801982511681845116808217855250505050505090500191505060405160208183030381529060405290505b90565b6000610d013384846127a5565b5060015b92915050565b60025490565b6005546006546040805163072c21ef60e31b8152600481019290925251600092610d98926001600160a01b03909116916339610f7891602480820192602092909190829003018186803b158015610d6757600080fd5b505afa158015610d7b573d6000803e3d6000fd5b505050506040513d6020811015610d9157600080fd5b505161282d565b905090565b6000806000610dab8461174f565b90506000610db7610f64565b905081610dcb57600093509150610df89050565b610df2610dd6612884565b610de6838563ffffffff6128ab16565b9063ffffffff6128d216565b93509150505b915091565b610e0760016128f4565b565b6000610e168360016129c1565b50610e228460016129c1565b506000610e30858585612a8a565b9050610e3a612adc565b6006546040805163c08b3f9d60e01b815260048101929092526001600160a01b038881166024840152878116604484015260648301879052905192169163c08b3f9d9160848082019260009290919082900301818387803b158015610e9e57600080fd5b505af1158015610eb2573d6000803e3d6000fd5b5092979650505050505050565b60146020526000908152604090205481565b601290565b6040805161190160f01b6020808301919091526022820194909452604280820193909352815180820390930183526062019052805191012090565b60195490565b3360008181526001602090815260408083206001600160a01b03871684529091528120549091610d01918590610f53908663ffffffff612c1916565b6127a5565b60075481565b600d5481565b600080610f6f610d0b565b90506000610f7b612884565b905081156110185760055460065460408051637f4b432360e01b8152600481019290925251611013928592610de69286926001600160a01b031691637f4b4323916024808301926020929190829003018186803b158015610fdb57600080fd5b505afa158015610fef573d6000803e3d6000fd5b505050506040513d602081101561100557600080fd5b50519063ffffffff6128ab16565b61101a565b805b9250505090565b6004546001600160a01b031681565b600c5481565b600080611044336000612c2b565b915091509091565b600080600061105a8461174f565b90508061106e575060009150819050610df8565b6000611078610d0b565b60055460065460408051637f4b432360e01b81526004810192909252519293506000926001600160a01b0390921691637f4b432391602480820192602092909190829003018186803b1580156110cd57600080fd5b505afa1580156110e1573d6000803e3d6000fd5b505050506040513d60208110156110f757600080fd5b5051905061110f82610de6838663ffffffff6128ab16565b6005546006546040805163072c21ef60e31b81526004810192909252519297506000926001600160a01b03909216916339610f7891602480820192602092909190829003018186803b15801561116457600080fd5b505afa158015611178573d6000803e3d6000fd5b505050506040513d602081101561118e57600080fd5b5051600c5490915081158015906111a457508315155b156111db576111d86111cb85610de6856a084595161401484a00000063ffffffff6128ab16565b829063ffffffff612c1916565b90505b6001600160a01b0388166000908152601360205260409020548082111561122e5761122b6a084595161401484a000000610de68861121f868663ffffffff612d9b16565b9063ffffffff6128ab16565b96505b505050505050915091565b6040805180820190915260058152640322e332e360dc1b602082015290565b600f5481565b60065481565b600080611272858585612db0565b336000908152601460205260408120549294509092509061129a90600163ffffffff612c1916565b90506112a4613f98565b6040518060400160405280848152602001600560009054906101000a90046001600160a01b03166001600160a01b031663900cf0cf6040518163ffffffff1660e01b815260040160206040518083038186803b15801561130357600080fd5b505afa158015611317573d6000803e3d6000fd5b505050506040513d602081101561132d57600080fd5b50519052336000818152601560209081526040808320878452825280832085518155858301516001909101559282526014905220839055905061136e612adc565b60065460408051632a9b5b4160e11b81526004810192909252336024830152604482018a90526064820187905260848201859052516001600160a01b039290921691635536b6829160a48082019260009290919082900301818387803b1580156113d757600080fd5b505af11580156113eb573d6000803e3d6000fd5b5050600480546006546040805163532e19a960e01b815293840191909152516001600160a01b03909116935063532e19a99250602480830192600092919082900301818387803b15801561143e57600080fd5b505af1158015611452573d6000803e3d6000fd5b5050505050505050505050565b6012602052600090815260409020805460019091015482565b600061148b82611486610d11565b612f7c565b90505b919050565b6040805180820190915260018152603160f81b602082015290565b60006114bc83836000612ff1565b9392505050565b6114cb611b0e565b6114d457600080fd5b6114df8260016129c1565b506000806114ec84610d9d565b915091508282101561153a576040805162461bcd60e51b815260206004820152601260248201527109ad2cee4c2e8d2dcce40e8dede40daeac6d60731b604482015290519081900360640190fd5b6000611544612884565b9050600061155c83610de6878563ffffffff6128ab16565b9050611568868261316b565b60055460065460408051629ff11560e81b815260048101929092526000888103602484015290516001600160a01b0390931692639ff1150092604480820193929182900301818387803b1580156115be57600080fd5b505af11580156115d2573d6000803e3d6000fd5b5050600d546115ea925090508663ffffffff612d9b16565b600d55600480546006546040805163f1382b5360e01b8152938401919091526001600160a01b0389811660248501526044840189905260648401859052905191169163f1382b5391608480830192600092919082900301818387803b15801561165257600080fd5b505af1158015611666573d6000803e3d6000fd5b5050600480546006546040805163532e19a960e01b815293840191909152516001600160a01b03909116935063532e19a99250602480830192600092919082900301818387803b1580156116b957600080fd5b505af11580156116cd573d6000803e3d6000fd5b5050600480546006546040805163302df4df60e11b8152938401919091526001600160a01b038b81166024850152604484018b905290519116935063605be9be9250606480830192600092919082900301818387803b15801561172f57600080fd5b505af1158015611743573d6000803e3d6000fd5b50505050505050505050565b6001600160a01b031660009081526020819052604090205490565b611772611b0e565b61177b57600080fd5b60035460405160009161010090046001600160a01b0316907f8be0079c531659141344cd1fd0a4f28419497f9722a3daafe3b4186f6b6457e0908390a360038054610100600160a81b0319169055565b4690565b6005546001600160a01b031681565b60008060006117ec33613212565b90506000611800858363ffffffff612c1916565b9050600061180f8283336132c0565b905081811461185b576040805162461bcd60e51b815260206004820152601360248201527265786368616e67652072617465206e6f74203160681b604482015290519081900360640190fd5b600061186633610d9d565b506004805460065460408051637f88a95760e01b81529384019190915233602484015260448301849052519293506001600160a01b031691637f88a9579160648082019260009290919082900301818387803b1580156118c557600080fd5b505af11580156118d9573d6000803e3d6000fd5b505060055460065460408051624c025560e81b81526004810192909252602482018c9052336044830152516001600160a01b039092169350634c02550092506064808201926020929091908290030181600087803b15801561193a57600080fd5b505af115801561194e573d6000803e3d6000fd5b505050506040513d602081101561196457600080fd5b50516119a8576040805162461bcd60e51b815260206004820152600e60248201526d19195c1bdcda5d0819985a5b195960921b604482015290519081900360640190fd5b50935090915050915091565b60156020908152600092835260408084209091529082529020805460019091015482565b6119e0611b0e565b6119e957600080fd5b600e805460ff1916911515919091179055565b6001600160a01b031660009081526018602052604090205490565b600080611a25336001612c2b565b50905061148b83846001611264565b600080611a3f610c61565b805160209182012060408051808201825260018152603160f81b93019290925290519091507fc89efdaa54c0f20c7adf612882df0950f5a951637e0307cdcb4c672f298b8bc6908060526140058239604051908190036052019020601d5550601b829055601c819055611ab06117cb565b601a55611abb61357f565b60198190559250505090565b611ad28160016135d8565b50565b6016546001600160a01b031681565b60085481565b60105481565b610e0760006128f4565b60035461010090046001600160a01b031690565b60035461010090046001600160a01b0316331490565b6000806000611b3286613212565b90508015611c84576005546006546040805163c7f067cb60e01b81526004810192909252602482018490526001600160a01b038981166044840152905192169163c7f067cb916064808201926020929091908290030181600087803b158015611b9a57600080fd5b505af1158015611bae573d6000803e3d6000fd5b505050506040513d6020811015611bc457600080fd5b5051611c0d576040805162461bcd60e51b8152602060048201526013602482015272496e737566666963656e74207265776172647360681b604482015290519081900360640190fd5b600480546006546040805163b7721d2d60e01b8152938401919091526001600160a01b03898116602485015260448401859052905191169163b7721d2d91606480830192600092919082900301818387803b158015611c6b57600080fd5b505af1158015611c7f573d6000803e3d6000fd5b505050505b600080611c908761174f565b1115611dfd576000611ca487600c54612f7c565b90508015611dfb57611cb8816000896132c0565b915081811115611d7457611cfc8282038860405180604001604052806013815260200172496e737566666963656e74207265776172647360681b81525060016136c8565b600480546006546040805163b7721d2d60e01b8152938401919091526001600160a01b038a811660248501528585036044850152905191169163b7721d2d91606480830192600092919082900301818387803b158015611d5b57600080fd5b505af1158015611d6f573d6000803e3d6000fd5b505050505b6000611d7f88610d9d565b506004805460065460408051637f88a95760e01b8152938401919091526001600160a01b038c811660248501526044840185905290519394501691637f88a9579160648082019260009290919082900301818387803b158015611de157600080fd5b505af1158015611df5573d6000803e3d6000fd5b50505050505b505b600c546001600160a01b038716600090815260136020526040812091909155611e27888888612a8a565b9050611e31612adc565b6006546040805163c08b3f9d60e01b815260048101929092526001600160a01b038b811660248401528a81166044840152606483018a9052905192169163c08b3f9d9160848082019260009290919082900301818387803b158015611e9557600080fd5b505af1158015611ea9573d6000803e3d6000fd5b50929a93995092975050505050505050565b6060611ec86006546126ca565b604051602001808063191413d360e21b815250600401828051906020019080838360208310610cba5780518252601f199092019160209182019101610c9b565b600080611044336001612c2b565b600a5481565b611f24611b0e565b611f2d57600080fd5b611f388260016129c1565b50611f45816000846132c0565b505050565b3360008181526001602090815260408083206001600160a01b03871684529091528120549091610d01918590610f53908663ffffffff612d9b16565b611f8e611b0e565b611f9757600080fd5b610e0761387c565b6000610d0183836000613888565b600354600160a81b900460ff1615611ffd576040805162461bcd60e51b815260206004820152600e60248201526d185b1c9958591e481a5b9a5d195960921b604482015290519081900360640190fd5b6003805460ff60a81b1916600160a81b1790556006839055600480546001600160a01b038085166001600160a01b031992831617909255600580549284169290911691909117905561204e81613916565b612056612adc565b5061205f613990565b50600e805460ff19166001179055612075611a34565b50505050565b6000610d0183836001613888565b6017546001600160a01b031681565b610c5d8282600161251a565b6000806120af612884565b9050600860065410156120c3579050610cf1565b60105480156120e55761101381610de684600f546128ab90919063ffffffff16565b50919050565b611ad23360006129c1565b610c5d82826000611264565b600061148b60195483610ed6565b60035460ff1681565b8342111561216e576040805162461bcd60e51b815260206004820152601760248201527f45524332363132457870697265645369676e6174757265000000000000000000604482015290519081900360640190fd5b60006040518080613fb360529139605201905060405180910390208888886121958c613b0a565b604080516020808201979097526001600160a01b0395861681830152939094166060840152608083019190915260a082015260c08082018990528251808303909101815260e09091019091528051910120601a549091506121f46117cb565b1461220357612201611a34565b505b600061220e82612102565b9050600061221e82878787613b2d565b9050896001600160a01b0316816001600160a01b03161461227d576040805162461bcd60e51b815260206004820152601460248201527322a921991b189924b73b30b634b229b4b3b732b960611b604482015290519081900360640190fd5b6117438a8a8a6127a5565b6001600160a01b03918216600090815260016020908152604080832093909416825291909152205490565b600e5460ff1681565b611ad23360016129c1565b60006114bc83836001612ff1565b60136020526000908152604090205481565b610c5d82826001611264565b611ad28160006135d8565b600080612309613990565b60408051623f675f60e91b815233600482015290519192506000916001600160a01b03841691637ecebe00916024808301926020929190829003018186803b15801561235457600080fd5b505afa158015612368573d6000803e3d6000fd5b505050506040513d602081101561237e57600080fd5b50516005546040805163d505accf60e01b81523360048201526001600160a01b039283166024820152604481018d9052606481018b905260ff8a16608482015260a4810189905260c4810188905290519293509084169163d505accf9160e48082019260009290919082900301818387803b1580156123fc57600080fd5b505af1158015612410573d6000803e3d6000fd5b505060408051623f675f60e91b815233600482015290516001850193506001600160a01b0386169250637ecebe0091602480820192602092909190829003018186803b15801561245f57600080fd5b505afa158015612473573d6000803e3d6000fd5b505050506040513d602081101561248957600080fd5b5051146124ce576040805162461bcd60e51b815260206004820152600e60248201526d125b9d985b1a59081c195c9b5a5d60921b604482015290519081900360640190fd5b6124da89896001612ff1565b9998505050505050505050565b6124ef611b0e565b6124f857600080fd5b611ad281613916565b612509611b0e565b61251257600080fd5b610e07613bf5565b600080612528858585612db0565b91509150612534613f98565b50336000908152601260209081526040918290208251808401909352805480845260019091015491830191909152612572908363ffffffff612c1916565b81526005546040805163900cf0cf60e01b815290516001600160a01b039092169163900cf0cf91600480820192602092909190829003018186803b1580156125b957600080fd5b505afa1580156125cd573d6000803e3d6000fd5b505050506040513d60208110156125e357600080fd5b505160208281019182523360008181526012909252604080832085518155935160019094019390935560048054600654855163f1382b5360e01b8152928301526024820192909252604481018a90526064810187905292516001600160a01b0390911692839263f1382b539260848084019382900301818387803b15801561266a57600080fd5b505af115801561267e573d6000803e3d6000fd5b50505050806001600160a01b031663532e19a96006546040518263ffffffff1660e01b815260040180828152602001915050600060405180830381600087803b15801561143e57600080fd5b6060816126ef57506040805180820190915260018152600360fc1b602082015261148e565b8160005b81156127085760049190911c906001016126f3565b6060816040519080825280601f01601f191660200182016040528015612735576020820181803883390190505b509050815b801561279c576f181899199a1a9b1b9c1cb0b131b232b360811b86600f166010811061276257fe5b1a60f81b82600183038151811061277557fe5b60200101906001600160f81b031916908160001a90535060049590951c946000190161273a565b50949350505050565b6001600160a01b0382166127b857600080fd5b6001600160a01b0383166127cb57600080fd5b6001600160a01b03808416600081815260016020908152604080832094871680845294825291829020859055815185815291517f8c5be1e5ebec7d5bd14f71427d1e84f3dd0314c0f7b2291e5b200ac8c7c3b9259281900390910190a3505050565b600c54600090821561148b576000612843610d0b565b9050801561287d5761287a61286d82610de6876a084595161401484a00000063ffffffff6128ab16565b839063ffffffff612c1916565b91505b5092915050565b60006008600654101561289957506064610cf1565b506c01431e0fae6d7217caa000000090565b6000826128ba57506000610d05565b828202828482816128c757fe5b04146114bc57600080fd5b60008082116128e057600080fd5b60008284816128eb57fe5b04949350505050565b6128fc613f98565b503360009081526012602090815260408083208151808301909252805482526001015491810191909152906129318284613c04565b3360008181526012602052604080822082815560010182905560048054600654835163302df4df60e11b81529283015260248201949094526044810185905290519394506001600160a01b039092169263605be9be92606480820193929182900301818387803b1580156129a457600080fd5b505af11580156129b8573d6000803e3d6000fd5b50505050505050565b6000806129cd84613212565b905080156114bc57612a0c818560405180604001604052806013815260200172496e737566666963656e74207265776172647360681b815250866136c8565b600480546006546040805163b7721d2d60e01b8152938401919091526001600160a01b03878116602485015260448401859052905191169163b7721d2d91606480830192600092919082900301818387803b158015612a6a57600080fd5b505af1158015612a7e573d6000803e3d6000fd5b50505050905092915050565b6000612a97848484613de4565b6001600160a01b038416600090815260016020908152604080832033808552925290912054612ad2918691610f53908663ffffffff612d9b16565b5060019392505050565b6016546000906001600160a01b031680610d9857600560009054906101000a90046001600160a01b03166001600160a01b0316635ab1bd536040518163ffffffff1660e01b815260040160206040518083038186803b158015612b3e57600080fd5b505afa158015612b52573d6000803e3d6000fd5b505050506040513d6020811015612b6857600080fd5b5051604080516832bb32b73a39a43ab160b91b8152815190819003600901812063cac39a0560e01b8252600482015290516001600160a01b039092169163cac39a0591602480820192602092909190829003018186803b158015612bcb57600080fd5b505afa158015612bdf573d6000803e3d6000fd5b505050506040513d6020811015612bf557600080fd5b5051601680546001600160a01b0319166001600160a01b0383161790559050905090565b6000828201838110156114bc57600080fd5b6000806000612c3985613212565b905060008115612d9157612c4f826000886132c0565b905080821115612d0a57612c928183038760405180604001604052806013815260200172496e737566666963656e74207265776172647360681b815250886136c8565b600480546006546040805163b7721d2d60e01b8152938401919091526001600160a01b0389811660248501528486036044850152905191169163b7721d2d91606480830192600092919082900301818387803b158015612cf157600080fd5b505af1158015612d05573d6000803e3d6000fd5b505050505b6000612d1587610d9d565b506004805460065460408051637f88a95760e01b8152938401919091526001600160a01b038b811660248501526044840185905290519394501691637f88a9579160648082019260009290919082900301818387803b158015612d7757600080fd5b505af1158015612d8b573d6000803e3d6000fd5b50505050505b9590945092505050565b600082821115612daa57600080fd5b50900390565b600080600080612dbf33610d9d565b9150915081600014158015612dd45750868210155b612e1a576040805162461bcd60e51b8152602060048201526012602482015271151bdbc81b5d58da081c995c5d595cdd195960721b604482015290519081900360640190fd5b6000612e24612884565b90506000612e3c83610de68b8563ffffffff6128ab16565b905087811115612e87576040805162461bcd60e51b8152602060048201526011602482015270746f6f206d75636820736c69707061676560781b604482015290519081900360640190fd5b612e9133886129c1565b50612e9c338261316b565b60055460065460408051629ff11560e81b8152600481019290925260008c8103602484015290516001600160a01b0390931692639ff1150092604480820193929182900301818387803b158015612ef257600080fd5b505af1158015612f06573d6000803e3d6000fd5b5050600d54612f1e925090508a63ffffffff612d9b16565b600d556000612f3e612f2e6120a4565b610de68c8663ffffffff6128ab16565b600f54909150612f54908b63ffffffff612c1916565b600f55601054612f6a908263ffffffff612c1916565b60105590999098509650505050505050565b600080612f888461174f565b905080612f99576000915050610d05565b6001600160a01b03841660009081526013602052604090205483811415612fc557600092505050610d05565b612fe86a084595161401484a000000610de68461121f888663ffffffff612d9b16565b95945050505050565b6000612ffd33836129c1565b506130098484336132c0565b90508161309f5760055460065460408051636901b25360e01b8152600481019290925260248201849052336044830152516001600160a01b0390921691636901b253916064808201926020929091908290030181600087803b15801561306e57600080fd5b505af1158015613082573d6000803e3d6000fd5b505050506040513d602081101561309857600080fd5b5051613129565b60055460065460408051624c025560e81b8152600481019290925260248201849052336044830152516001600160a01b0390921691634c025500916064808201926020929091908290030181600087803b1580156130fc57600080fd5b505af1158015613110573d6000803e3d6000fd5b505050506040513d602081101561312657600080fd5b50515b6114bc576040805162461bcd60e51b815260206004820152600e60248201526d19195c1bdcda5d0819985a5b195960921b604482015290519081900360640190fd5b6001600160a01b03821661317e57600080fd5b600254613191908263ffffffff612d9b16565b6002556001600160a01b0382166000908152602081905260409020546131bd908263ffffffff612d9b16565b6001600160a01b038316600081815260208181526040808320949094558351858152935191937fddf252ad1be2c89b69c2b068fc378daa952ba7f163c4a11628f55a4df523b3ef929081900390910190a35050565b600080613289600560009054906101000a90046001600160a01b03166001600160a01b0316637ed4b27c6006546040518263ffffffff1660e01b815260040180828152602001915050602060405180830381600087803b15801561327557600080fd5b505af1158015610d7b573d6000803e3d6000fd5b905060006132978483612f7c565b600c8390556001600160a01b038516600090815260136020526040902092909255509050919050565b60006132ca613eaf565b600e5460ff1661331a576040805162461bcd60e51b815260206004820152601660248201527511195b1959d85d1a5bdb881a5cc8191a5cd8589b195960521b604482015290519081900360640190fd5b6000613324610f64565b90506000613330612884565b9050600061334883610de6898563ffffffff6128ab16565b905085811015613393576040805162461bcd60e51b8152602060048201526011602482015270546f6f206d75636820736c69707061676560781b604482015290519081900360640190fd5b6001600160a01b038516600090815260126020526040902054156133ed576040805162461bcd60e51b815260206004820152600c60248201526b13db99dbda5b99c8195e1a5d60a21b604482015290519081900360640190fd5b6133f78582613ef0565b61340b82610de6858463ffffffff6128ab16565b60055460065460408051629ff11560e81b8152600481019290925260248201849052519299506001600160a01b0390911691639ff115009160448082019260009290919082900301818387803b15801561346457600080fd5b505af1158015613478573d6000803e3d6000fd5b5050600d54613490925090508863ffffffff612c1916565b600d55600480546006546040805163c69d057360e01b8152938401919091526001600160a01b038881166024850152604484018b9052606484018590529051911691829163c69d05739160848082019260009290919082900301818387803b1580156134fb57600080fd5b505af115801561350f573d6000803e3d6000fd5b50505050806001600160a01b031663532e19a96006546040518263ffffffff1660e01b815260040180828152602001915050600060405180830381600087803b15801561355b57600080fd5b505af115801561356f573d6000803e3d6000fd5b50999a9950505050505050505050565b6000601d54601b54601c546135926117cb565b6040805160208082019690965280820194909452606084019290925260808301523060a0808401919091528151808403909101815260c090920190528051910120905090565b6135e0613f98565b50336000908152601560209081526040808320858452825280832081518083019092528054825260010154918101919091529061361d8284613c04565b3360009081526015602090815260408083208884529091528120818155600101559050613648612adc565b60065460408051636e699d8760e01b815260048101929092523360248301526044820184905260648201879052516001600160a01b039290921691636e699d879160848082019260009290919082900301818387803b1580156136aa57600080fd5b505af11580156136be573d6000803e3d6000fd5b5050505050505050565b8061375e576005546006546040805163bc8756a960e01b81526004810192909252602482018790526001600160a01b038681166044840152905192169163bc8756a9916064808201926020929091908290030181600087803b15801561372d57600080fd5b505af1158015613741573d6000803e3d6000fd5b505050506040513d602081101561375757600080fd5b50516137eb565b6005546006546040805163c7f067cb60e01b81526004810192909252602482018790526001600160a01b038681166044840152905192169163c7f067cb916064808201926020929091908290030181600087803b1580156137be57600080fd5b505af11580156137d2573d6000803e3d6000fd5b505050506040513d60208110156137e857600080fd5b50515b82906138755760405162461bcd60e51b81526004018080602001828103825283818151815260200191508051906020019080838360005b8381101561383a578181015183820152602001613822565b50505050905090810190601f1680156138675780820380516001836020036101000a031916815260200191505b509250505060405180910390fd5b5050505050565b6003805460ff19169055565b3361389384836129c1565b5061389e81836129c1565b506138aa818585613de4565b6138b2612adc565b6006546040805163c08b3f9d60e01b815260048101929092526001600160a01b038481166024840152878116604484015260648301879052905192169163c08b3f9d9160848082019260009290919082900301818387803b1580156136aa57600080fd5b6001600160a01b03811661392957600080fd5b6003546040516001600160a01b0380841692610100900416907f8be0079c531659141344cd1fd0a4f28419497f9722a3daafe3b4186f6b6457e090600090a3600380546001600160a01b0390921661010002610100600160a81b0319909216919091179055565b6017546000906001600160a01b031680610d9857600560009054906101000a90046001600160a01b03166001600160a01b0316635ab1bd536040518163ffffffff1660e01b815260040160206040518083038186803b1580156139f257600080fd5b505afa158015613a06573d6000803e3d6000fd5b505050506040513d6020811015613a1c57600080fd5b505160408051621c1bdb60ea1b8152815190819003600301812063cac39a0560e01b8252600482015290516001600160a01b039092169163cac39a0591602480820192602092909190829003018186803b158015613a7957600080fd5b505afa158015613a8d573d6000803e3d6000fd5b505050506040513d6020811015613aa357600080fd5b505190506001600160a01b038116613aea576040805162461bcd60e51b81526020600482015260056024820152641d5b9cd95d60da1b604482015290519081900360640190fd5b601780546001600160a01b0319166001600160a01b038316179055919050565b6001600160a01b0316600090815260186020526040902080546001810190915590565b60008060018686868660405160008152602001604052604051808581526020018460ff1660ff1681526020018381526020018281526020019450505050506020604051602081039080840390855afa158015613b8d573d6000803e3d6000fd5b5050604051601f1901519150506001600160a01b038116612fe8576040805162461bcd60e51b815260206004820152601d60248201527f7369676e617475726520766572696669636174696f6e206661696c6564000000604482015290519081900360640190fd5b6003805460ff19166001179055565b81516005546040805163900cf0cf60e01b81529051600093926001600160a01b03169163900cf0cf916004808301926020929190829003018186803b158015613c4c57600080fd5b505afa158015613c60573d6000803e3d6000fd5b505050506040513d6020811015613c7657600080fd5b50516005546040805163a7ab696160e01b81529051613cfb926001600160a01b03169163a7ab6961916004808301926020929190829003018186803b158015613cbe57600080fd5b505afa158015613cd2573d6000803e3d6000fd5b505050506040513d6020811015613ce857600080fd5b505160208701519063ffffffff612c1916565b11158015613d095750600081115b613d5a576040805162461bcd60e51b815260206004820152601c60248201527f496e636f6d706c657465207769746864726177616c20706572696f6400000000604482015290519081900360640190fd5b6000613d73613d67612884565b610de68461121f6120a4565b601054909150613d89908363ffffffff612d9b16565b601055600f54613d9f908263ffffffff612d9b16565b600f81905550613ddc813360405180604001604052806013815260200172496e737566666963656e74207265776172647360681b815250876136c8565b949350505050565b6001600160a01b038216613df757600080fd5b6001600160a01b038316600090815260208190526040902054613e20908263ffffffff612d9b16565b6001600160a01b038085166000908152602081905260408082209390935590841681522054613e55908263ffffffff612c1916565b6001600160a01b038084166000818152602081815260409182902094909455805185815290519193928716927fddf252ad1be2c89b69c2b068fc378daa952ba7f163c4a11628f55a4df523b3ef92918290030190a3505050565b60035460ff1615610e07576040805162461bcd60e51b81526020600482015260066024820152651b1bd8dad95960d21b604482015290519081900360640190fd5b6001600160a01b038216613f0357600080fd5b600254613f16908263ffffffff612c1916565b6002556001600160a01b038216600090815260208190526040902054613f42908263ffffffff612c1916565b6001600160a01b0383166000818152602081815260408083209490945583518581529351929391927fddf252ad1be2c89b69c2b068fc378daa952ba7f163c4a11628f55a4df523b3ef9281900390910190a35050565b60405180604001604052806000815260200160008152509056fe5065726d69742861646472657373206f776e65722c61646472657373207370656e6465722c75696e743235362076616c75652c75696e74323536206e6f6e63652c75696e7432353620646561646c696e6529454950373132446f6d61696e28737472696e67206e616d652c737472696e672076657273696f6e2c75696e7432353620636861696e49642c6164647265737320766572696679696e67436f6e747261637429a265627a7a723158209bf5abf0029cb3c158ccb0fa52520046701c7e3a96c46b778bb0f78f80ff3d7c64736f6c63430005110032",
        "linkReferences": {}
    },
    "methodIdentifiers": {
        "DOMAIN_SEPARATOR()": "3644e515",
        "_cacheDomainSeparatorV4()": "851e286e",
        "_chainId()": "74773412",
        "_hashTypedDataV4(bytes32)": "c8f1ecd8",
        "_sellVoucher_new(uint256,uint256,bool)": "6035083f",
        "_toTypedDataHash(bytes32,bytes32)": "31f438a7",
        "activeAmount()": "3a09bf44",
        "allowance(address,address)": "dd62ed3e",
        "approve(address,uint256)": "095ea7b3",
        "balanceOf(address)": "70a08231",
        "buyVoucher(uint256,uint256)": "6ab15071",
        "buyVoucherPOL(uint256,uint256)": "e4457a8a",
        "buyVoucherWithPermit(uint256,uint256,uint256,uint8,bytes32,bytes32)": "eaf43bb5",
        "commissionRate_deprecated()": "8ccdd289",
        "decimals()": "313ce567",
        "decreaseAllowance(address,uint256)": "a457c2d7",
        "delegation()": "df5cf723",
        "eip712Version()": "6854d2a0",
        "eventsHub()": "883b455f",
        "exchangeRate()": "3ba0b9a9",
        "getLiquidRewards(address)": "676e5550",
        "getRewardPerShare()": "1bf494a7",
        "getStakeAndRewards(address)": "533573b7",
        "getTotalStake(address)": "1e7ff8f6",
        "increaseAllowance(address,uint256)": "39509351",
        "initalRewardPerShare(address)": "e4cd1aec",
        "initialize(uint256,address,address)": "b4988fd0",
        "isOwner()": "8f32d59b",
        "lock()": "f83d08ba",
        "locked()": "cf309012",
        "migrateIn(address,uint256)": "a0c1ca34",
        "migrateOut(address,uint256)": "6e7ce591",
        "minAmount()": "9b2cb5d8",
        "name()": "06fdde03",
        "nonces(address)": "7ecebe00",
        "owner()": "8da5cb5b",
        "permit(address,address,uint256,uint256,uint8,bytes32,bytes32)": "d505accf",
        "polToken()": "b6658d07",
        "renounceOwnership()": "715018a6",
        "restake()": "4f91440d",
        "restakeAndStakePOL(uint256)": "75cbee12",
        "restakeAndTransferFrom(address,address,uint256)": "9356f290",
        "restakeAndUnstakePOL(uint256)": "83f3962a",
        "restakePOL()": "9ad5f5a4",
        "rewardPerShare()": "446a2ec8",
        "sellVoucher(uint256,uint256)": "029d3040",
        "sellVoucherPOL(uint256,uint256)": "b89b63c1",
        "sellVoucher_new(uint256,uint256)": "c83ec04d",
        "sellVoucher_newPOL(uint256,uint256)": "e570b78b",
        "stakeManager()": "7542ff95",
        "stakingLogger()": "3d94eb05",
        "symbol()": "95d89b41",
        "totalSupply()": "18160ddd",
        "transfer(address,uint256)": "a9059cbb",
        "transferFrom(address,address,uint256)": "23b872dd",
        "transferOwnership(address)": "f2fde38b",
        "transferPOL(address,uint256)": "b60c76fa",
        "unbondNonces(address)": "3046c204",
        "unbonds(address)": "653ec134",
        "unbonds_new(address,uint256)": "795be587",
        "unlock()": "a69df4b5",
        "unstakeClaimTokens()": "8d16a14a",
        "unstakeClaimTokensPOL()": "232e5415",
        "unstakeClaimTokens_new(uint256)": "e97fddc2",
        "unstakeClaimTokens_newPOL(uint256)": "8759c234",
        "updateDelegation(bool)": "7ba8c820",
        "validatorId()": "5c5f7dae",
        "validatorRewards_deprecated()": "39c31e93",
        "version()": "54fd4d50",
        "withdrawExchangeRate()": "bfb18f29",
        "withdrawPool()": "5c42c733",
        "withdrawRewards()": "c7b8981c",
        "withdrawRewardsPOL()": "e0db556b",
        "withdrawShares()": "8d086da4"
    },
    "id": 44
}