{
    "abi": [
        {
            "type": "constructor",
            "inputs": [],
            "stateMutability": "nonpayable"
        },
        {
            "type": "function",
            "name": "DOMAIN_SEPARATOR",
            "inputs": [],
            "outputs": [
                {
                    "name": "",
                    "type": "bytes32",
                    "internalType": "bytes32"
                }
            ],
            "stateMutability": "view"
        },
        {
            "type": "function",
            "name": "_cacheDomainSeparatorV4",
            "inputs": [],
            "outputs": [
                {
                    "name": "",
                    "type": "bytes32",
                    "internalType": "bytes32"
                }
            ],
            "stateMutability": "nonpayable"
        },
        {
            "type": "function",
            "name": "_chainId",
            "inputs": [],
            "outputs": [
                {
                    "name": "chainId",
                    "type": "uint256",
                    "internalType": "uint256"
                }
            ],
            "stateMutability": "pure"
        },
        {
            "type": "function",
            "name": "_hashTypedDataV4",
            "inputs": [
                {
                    "name": "structHash",
                    "type": "bytes32",
                    "internalType": "bytes32"
                }
            ],
            "outputs": [
                {
                    "name": "",
                    "type": "bytes32",
                    "internalType": "bytes32"
                }
            ],
            "stateMutability": "view"
        },
        {
            "type": "function",
            "name": "_sellVoucher_new",
            "inputs": [
                {
                    "name": "claimAmount",
                    "type": "uint256",
                    "internalType": "uint256"
                },
                {
                    "name": "maximumSharesToBurn",
                    "type": "uint256",
                    "internalType": "uint256"
                },
                {
                    "name": "pol",
                    "type": "bool",
                    "internalType": "bool"
                }
            ],
            "outputs": [],
            "stateMutability": "nonpayable"
        },
        {
            "type": "function",
            "name": "_toTypedDataHash",
            "inputs": [
                {
                    "name": "domainSeparator",
                    "type": "bytes32",
                    "internalType": "bytes32"
                },
                {
                    "name": "structHash",
                    "type": "bytes32",
                    "internalType": "bytes32"
                }
            ],
            "outputs": [
                {
                    "name": "",
                    "type": "bytes32",
                    "internalType": "bytes32"
                }
            ],
            "stateMutability": "pure"
        },
        {
            "type": "function",
            "name": "activeAmount",
            "inputs": [],
            "outputs": [
                {
                    "name": "",
                    "type": "uint256",
                    "internalType": "uint256"
                }
            ],
            "stateMutability": "view"
        },
        {
            "type": "function",
            "name": "allowance",
            "inputs": [
                {
                    "name": "owner",
                    "type": "address",
                    "internalType": "address"
                },
                {
                    "name": "spender",
                    "type": "address",
                    "internalType": "address"
                }
            ],
            "outputs": [
                {
                    "name": "",
                    "type": "uint256",
                    "internalType": "uint256"
                }
            ],
            "stateMutability": "view"
        },
        {
            "type": "function",
            "name": "approve",
            "inputs": [
                {
                    "name": "spender",
                    "type": "address",
                    "internalType": "address"
                },
                {
                    "name": "value",
                    "type": "uint256",
                    "internalType": "uint256"
                }
            ],
            "outputs": [
                {
                    "name": "",
                    "type": "bool",
                    "internalType": "bool"
                }
            ],
            "stateMutability": "nonpayable"
        },
        {
            "type": "function",
            "name": "balanceOf",
            "inputs": [
                {
                    "name": "owner",
                    "type": "address",
                    "internalType": "address"
                }
            ],
            "outputs": [
                {
                    "name": "",
                    "type": "uint256",
                    "internalType": "uint256"
                }
            ],
            "stateMutability": "view"
        },
        {
            "type": "function",
            "name": "buyVoucher",
            "inputs": [
                {
                    "name": "_amount",
                    "type": "uint256",
                    "internalType": "uint256"
                },
                {
                    "name": "_minSharesToMint",
                    "type": "uint256",
                    "internalType": "uint256"
                }
            ],
            "outputs": [
                {
                    "name": "amountToDeposit",
                    "type": "uint256",
                    "internalType": "uint256"
                }
            ],
            "stateMutability": "nonpayable"
        },
        {
            "type": "function",
            "name": "buyVoucherPOL",
            "inputs": [
                {
                    "name": "_amount",
                    "type": "uint256",
                    "internalType": "uint256"
                },
                {
                    "name": "_minSharesToMint",
                    "type": "uint256",
                    "internalType": "uint256"
                }
            ],
            "outputs": [
                {
                    "name": "amountToDeposit",
                    "type": "uint256",
                    "internalType": "uint256"
                }
            ],
            "stateMutability": "nonpayable"
        },
        {
            "type": "function",
            "name": "buyVoucherWithPermit",
            "inputs": [
                {
                    "name": "_amount",
                    "type": "uint256",
                    "internalType": "uint256"
                },
                {
                    "name": "_minSharesToMint",
                    "type": "uint256",
                    "internalType": "uint256"
                },
                {
                    "name": "deadline",
                    "type": "uint256",
                    "internalType": "uint256"
                },
                {
                    "name": "v",
                    "type": "uint8",
                    "internalType": "uint8"
                },
                {
                    "name": "r",
                    "type": "bytes32",
                    "internalType": "bytes32"
                },
                {
                    "name": "s",
                    "type": "bytes32",
                    "internalType": "bytes32"
                }
            ],
            "outputs": [
                {
                    "name": "amountToDeposit",
                    "type": "uint256",
                    "internalType": "uint256"
                }
            ],
            "stateMutability": "nonpayable"
        },
        {
            "type": "function",
            "name": "commissionRate_deprecated",
            "inputs": [],
            "outputs": [
                {
                    "name": "",
                    "type": "uint256",
                    "internalType": "uint256"
                }
            ],
            "stateMutability": "view"
        },
        {
            "type": "function",
            "name": "decreaseAllowance",
            "inputs": [
                {
                    "name": "spender",
                    "type": "address",
                    "internalType": "address"
                },
                {
                    "name": "subtractedValue",
                    "type": "uint256",
                    "internalType": "uint256"
                }
            ],
            "outputs": [
                {
                    "name": "",
                    "type": "bool",
                    "internalType": "bool"
                }
            ],
            "stateMutability": "nonpayable"
        },
        {
            "type": "function",
            "name": "delegation",
            "inputs": [],
            "outputs": [
                {
                    "name": "",
                    "type": "bool",
                    "internalType": "bool"
                }
            ],
            "stateMutability": "view"
        },
        {
            "type": "function",
            "name": "eip712Version",
            "inputs": [],
            "outputs": [
                {
                    "name": "",
                    "type": "string",
                    "internalType": "string"
                }
            ],
            "stateMutability": "view"
        },
        {
            "type": "function",
            "name": "eventsHub",
            "inputs": [],
            "outputs": [
                {
                    "name": "",
                    "type": "address",
                    "internalType": "contract EventsHub"
                }
            ],
            "stateMutability": "view"
        },
        {
            "type": "function",
            "name": "exchangeRate",
            "inputs": [],
            "outputs": [
                {
                    "name": "",
                    "type": "uint256",
                    "internalType": "uint256"
                }
            ],
            "stateMutability": "view"
        },
        {
            "type": "function",
            "name": "getLiquidRewards",
            "inputs": [
                {
                    "name": "user",
                    "type": "address",
                    "internalType": "address"
                }
            ],
            "outputs": [
                {
                    "name": "",
                    "type": "uint256",
                    "internalType": "uint256"
                }
            ],
            "stateMutability": "view"
        },
        {
            "type": "function",
            "name": "getRewardPerShare",
            "inputs": [],
            "outputs": [
                {
                    "name": "",
                    "type": "uint256",
                    "internalType": "uint256"
                }
            ],
            "stateMutability": "view"
        },
        {
            "type": "function",
            "name": "getStakeAndRewards",
            "inputs": [
                {
                    "name": "user",
                    "type": "address",
                    "internalType": "address"
                }
            ],
            "outputs": [
                {
                    "name": "stakeAmount",
                    "type": "uint256",
                    "internalType": "uint256"
                },
                {
                    "name": "liquidRewards",
                    "type": "uint256",
                    "internalType": "uint256"
                }
            ],
            "stateMutability": "view"
        },
        {
            "type": "function",
            "name": "getTotalStake",
            "inputs": [
                {
                    "name": "user",
                    "type": "address",
                    "internalType": "address"
                }
            ],
            "outputs": [
                {
                    "name": "",
                    "type": "uint256",
                    "internalType": "uint256"
                },
                {
                    "name": "",
                    "type": "uint256",
                    "internalType": "uint256"
                }
            ],
            "stateMutability": "view"
        },
        {
            "type": "function",
            "name": "increaseAllowance",
            "inputs": [
                {
                    "name": "spender",
                    "type": "address",
                    "internalType": "address"
                },
                {
                    "name": "addedValue",
                    "type": "uint256",
                    "internalType": "uint256"
                }
            ],
            "outputs": [
                {
                    "name": "",
                    "type": "bool",
                    "internalType": "bool"
                }
            ],
            "stateMutability": "nonpayable"
        },
        {
            "type": "function",
            "name": "initalRewardPerShare",
            "inputs": [
                {
                    "name": "",
                    "type": "address",
                    "internalType": "address"
                }
            ],
            "outputs": [
                {
                    "name": "",
                    "type": "uint256",
                    "internalType": "uint256"
                }
            ],
            "stateMutability": "view"
        },
        {
            "type": "function",
            "name": "initialize",
            "inputs": [
                {
                    "name": "_validatorId",
                    "type": "uint256",
                    "internalType": "uint256"
                },
                {
                    "name": "_stakingLogger",
                    "type": "address",
                    "internalType": "address"
                },
                {
                    "name": "_stakeManager",
                    "type": "address",
                    "internalType": "address"
                }
            ],
            "outputs": [],
            "stateMutability": "nonpayable"
        },
        {
            "type": "function",
            "name": "isOwner",
            "inputs": [],
            "outputs": [
                {
                    "name": "",
                    "type": "bool",
                    "internalType": "bool"
                }
            ],
            "stateMutability": "view"
        },
        {
            "type": "function",
            "name": "lock",
            "inputs": [],
            "outputs": [],
            "stateMutability": "nonpayable"
        },
        {
            "type": "function",
            "name": "locked",
            "inputs": [],
            "outputs": [
                {
                    "name": "",
                    "type": "bool",
                    "internalType": "bool"
                }
            ],
            "stateMutability": "view"
        },
        {
            "type": "function",
            "name": "migrateIn",
            "inputs": [
                {
                    "name": "user",
                    "type": "address",
                    "internalType": "address"
                },
                {
                    "name": "amount",
                    "type": "uint256",
                    "internalType": "uint256"
                }
            ],
            "outputs": [],
            "stateMutability": "nonpayable"
        },
        {
            "type": "function",
            "name": "migrateOut",
            "inputs": [
                {
                    "name": "user",
                    "type": "address",
                    "internalType": "address"
                },
                {
                    "name": "amount",
                    "type": "uint256",
                    "internalType": "uint256"
                }
            ],
            "outputs": [],
            "stateMutability": "nonpayable"
        },
        {
            "type": "function",
            "name": "minAmount",
            "inputs": [],
            "outputs": [
                {
                    "name": "",
                    "type": "uint256",
                    "internalType": "uint256"
                }
            ],
            "stateMutability": "view"
        },
        {
            "type": "function",
            "name": "name",
            "inputs": [],
            "outputs": [
                {
                    "name": "",
                    "type": "string",
                    "internalType": "string"
                }
            ],
            "stateMutability": "view"
        },
        {
            "type": "function",
            "name": "nonces",
            "inputs": [
                {
                    "name": "owner",
                    "type": "address",
                    "internalType": "address"
                }
            ],
            "outputs": [
                {
                    "name": "",
                    "type": "uint256",
                    "internalType": "uint256"
                }
            ],
            "stateMutability": "view"
        },
        {
            "type": "function",
            "name": "owner",
            "inputs": [],
            "outputs": [
                {
                    "name": "",
                    "type": "address",
                    "internalType": "address"
                }
            ],
            "stateMutability": "view"
        },
        {
            "type": "function",
            "name": "permit",
            "inputs": [
                {
                    "name": "owner",
                    "type": "address",
                    "internalType": "address"
                },
                {
                    "name": "spender",
                    "type": "address",
                    "internalType": "address"
                },
                {
                    "name": "value",
                    "type": "uint256",
                    "internalType": "uint256"
                },
                {
                    "name": "deadline",
                    "type": "uint256",
                    "internalType": "uint256"
                },
                {
                    "name": "v",
                    "type": "uint8",
                    "internalType": "uint8"
                },
                {
                    "name": "r",
                    "type": "bytes32",
                    "internalType": "bytes32"
                },
                {
                    "name": "s",
                    "type": "bytes32",
                    "internalType": "bytes32"
                }
            ],
            "outputs": [],
            "stateMutability": "nonpayable"
        },
        {
            "type": "function",
            "name": "polToken",
            "inputs": [],
            "outputs": [
                {
                    "name": "",
                    "type": "address",
                    "internalType": "contract IERC20Permit"
                }
            ],
            "stateMutability": "view"
        },
        {
            "type": "function",
            "name": "renounceOwnership",
            "inputs": [],
            "outputs": [],
            "stateMutability": "nonpayable"
        },
        {
            "type": "function",
            "name": "restake",
            "inputs": [],
            "outputs": [
                {
                    "name": "",
                    "type": "uint256",
                    "internalType": "uint256"
                },
                {
                    "name": "",
                    "type": "uint256",
                    "internalType": "uint256"
                }
            ],
            "stateMutability": "nonpayable"
        },
        {
            "type": "function",
            "name": "restakeAndStakePOL",
            "inputs": [
                {
                    "name": "_amount",
                    "type": "uint256",
                    "internalType": "uint256"
                }
            ],
            "outputs": [
                {
                    "name": "",
                    "type": "uint256",
                    "internalType": "uint256"
                },
                {
                    "name": "",
                    "type": "uint256",
                    "internalType": "uint256"
                }
            ],
            "stateMutability": "nonpayable"
        },
        {
            "type": "function",
            "name": "restakeAndTransferFrom",
            "inputs": [
                {
                    "name": "from",
                    "type": "address",
                    "internalType": "address"
                },
                {
                    "name": "to",
                    "type": "address",
                    "internalType": "address"
                },
                {
                    "name": "value",
                    "type": "uint256",
                    "internalType": "uint256"
                }
            ],
            "outputs": [
                {
                    "name": "",
                    "type": "bool",
                    "internalType": "bool"
                }
            ],
            "stateMutability": "nonpayable"
        },
        {
            "type": "function",
            "name": "restakeAndUnstakePOL",
            "inputs": [
                {
                    "name": "_amount",
                    "type": "uint256",
                    "internalType": "uint256"
                }
            ],
            "outputs": [
                {
                    "name": "",
                    "type": "uint256",
                    "internalType": "uint256"
                },
                {
                    "name": "",
                    "type": "uint256",
                    "internalType": "uint256"
                }
            ],
            "stateMutability": "nonpayable"
        },
        {
            "type": "function",
            "name": "restakePOL",
            "inputs": [],
            "outputs": [
                {
                    "name": "",
                    "type": "uint256",
                    "internalType": "uint256"
                },
                {
                    "name": "",
                    "type": "uint256",
                    "internalType": "uint256"
                }
            ],
            "stateMutability": "nonpayable"
        },
        {
            "type": "function",
            "name": "rewardPerShare",
            "inputs": [],
            "outputs": [
                {
                    "name": "",
                    "type": "uint256",
                    "internalType": "uint256"
                }
            ],
            "stateMutability": "view"
        },
        {
            "type": "function",
            "name": "sellVoucher",
            "inputs": [
                {
                    "name": "claimAmount",
                    "type": "uint256",
                    "internalType": "uint256"
                },
                {
                    "name": "maximumSharesToBurn",
                    "type": "uint256",
                    "internalType": "uint256"
                }
            ],
            "outputs": [],
            "stateMutability": "nonpayable"
        },
        {
            "type": "function",
            "name": "sellVoucherPOL",
            "inputs": [
                {
                    "name": "claimAmount",
                    "type": "uint256",
                    "internalType": "uint256"
                },
                {
                    "name": "maximumSharesToBurn",
                    "type": "uint256",
                    "internalType": "uint256"
                }
            ],
            "outputs": [],
            "stateMutability": "nonpayable"
        },
        {
            "type": "function",
            "name": "sellVoucher_new",
            "inputs": [
                {
                    "name": "claimAmount",
                    "type": "uint256",
                    "internalType": "uint256"
                },
                {
                    "name": "maximumSharesToBurn",
                    "type": "uint256",
                    "internalType": "uint256"
                }
            ],
            "outputs": [],
            "stateMutability": "nonpayable"
        },
        {
            "type": "function",
            "name": "sellVoucher_newPOL",
            "inputs": [
                {
                    "name": "claimAmount",
                    "type": "uint256",
                    "internalType": "uint256"
                },
                {
                    "name": "maximumSharesToBurn",
                    "type": "uint256",
                    "internalType": "uint256"
                }
            ],
            "outputs": [],
            "stateMutability": "nonpayable"
        },
        {
            "type": "function",
            "name": "stakeManager",
            "inputs": [],
            "outputs": [
                {
                    "name": "",
                    "type": "address",
                    "internalType": "contract IStakeManager"
                }
            ],
            "stateMutability": "view"
        },
        {
            "type": "function",
            "name": "stakingLogger",
            "inputs": [],
            "outputs": [
                {
                    "name": "",
                    "type": "address",
                    "internalType": "contract StakingInfo"
                }
            ],
            "stateMutability": "view"
        },
        {
            "type": "function",
            "name": "symbol",
            "inputs": [],
            "outputs": [
                {
                    "name": "",
                    "type": "string",
                    "internalType": "string"
                }
            ],
            "stateMutability": "view"
        },
        {
            "type": "function",
            "name": "totalSupply",
            "inputs": [],
            "outputs": [
                {
                    "name": "",
                    "type": "uint256",
                    "internalType": "uint256"
                }
            ],
            "stateMutability": "view"
        },
        {
            "type": "function",
            "name": "transfer",
            "inputs": [
                {
                    "name": "to",
                    "type": "address",
                    "internalType": "address"
                },
                {
                    "name": "value",
                    "type": "uint256",
                    "internalType": "uint256"
                }
            ],
            "outputs": [
                {
                    "name": "",
                    "type": "bool",
                    "internalType": "bool"
                }
            ],
            "stateMutability": "nonpayable"
        },
        {
            "type": "function",
            "name": "transferFrom",
            "inputs": [
                {
                    "name": "from",
                    "type": "address",
                    "internalType": "address"
                },
                {
                    "name": "to",
                    "type": "address",
                    "internalType": "address"
                },
                {
                    "name": "value",
                    "type": "uint256",
                    "internalType": "uint256"
                }
            ],
            "outputs": [
                {
                    "name": "",
                    "type": "bool",
                    "internalType": "bool"
                }
            ],
            "stateMutability": "nonpayable"
        },
        {
            "type": "function",
            "name": "transferOwnership",
            "inputs": [
                {
                    "name": "newOwner",
                    "type": "address",
                    "internalType": "address"
                }
            ],
            "outputs": [],
            "stateMutability": "nonpayable"
        },
        {
            "type": "function",
            "name": "transferPOL",
            "inputs": [
                {
                    "name": "to",
                    "type": "address",
                    "internalType": "address"
                },
                {
                    "name": "value",
                    "type": "uint256",
                    "internalType": "uint256"
                }
            ],
            "outputs": [
                {
                    "name": "",
                    "type": "bool",
                    "internalType": "bool"
                }
            ],
            "stateMutability": "nonpayable"
        },
        {
            "type": "function",
            "name": "unbondNonces",
            "inputs": [
                {
                    "name": "",
                    "type": "address",
                    "internalType": "address"
                }
            ],
            "outputs": [
                {
                    "name": "",
                    "type": "uint256",
                    "internalType": "uint256"
                }
            ],
            "stateMutability": "view"
        },
        {
            "type": "function",
            "name": "unbonds",
            "inputs": [
                {
                    "name": "",
                    "type": "address",
                    "internalType": "address"
                }
            ],
            "outputs": [
                {
                    "name": "shares",
                    "type": "uint256",
                    "internalType": "uint256"
                },
                {
                    "name": "withdrawEpoch",
                    "type": "uint256",
                    "internalType": "uint256"
                }
            ],
            "stateMutability": "view"
        },
        {
            "type": "function",
            "name": "unbonds_new",
            "inputs": [
                {
                    "name": "",
                    "type": "address",
                    "internalType": "address"
                },
                {
                    "name": "",
                    "type": "uint256",
                    "internalType": "uint256"
                }
            ],
            "outputs": [
                {
                    "name": "shares",
                    "type": "uint256",
                    "internalType": "uint256"
                },
                {
                    "name": "withdrawEpoch",
                    "type": "uint256",
                    "internalType": "uint256"
                }
            ],
            "stateMutability": "view"
        },
        {
            "type": "function",
            "name": "unlock",
            "inputs": [],
            "outputs": [],
            "stateMutability": "nonpayable"
        },
        {
            "type": "function",
            "name": "unstakeClaimTokens",
            "inputs": [],
            "outputs": [],
            "stateMutability": "nonpayable"
        },
        {
            "type": "function",
            "name": "unstakeClaimTokensPOL",
            "inputs": [],
            "outputs": [],
            "stateMutability": "nonpayable"
        },
        {
            "type": "function",
            "name": "unstakeClaimTokens_new",
            "inputs": [
                {
                    "name": "unbondNonce",
                    "type": "uint256",
                    "internalType": "uint256"
                }
            ],
            "outputs": [],
            "stateMutability": "nonpayable"
        },
        {
            "type": "function",
            "name": "unstakeClaimTokens_newPOL",
            "inputs": [
                {
                    "name": "unbondNonce",
                    "type": "uint256",
                    "internalType": "uint256"
                }
            ],
            "outputs": [],
            "stateMutability": "nonpayable"
        },
        {
            "type": "function",
            "name": "updateDelegation",
            "inputs": [
                {
                    "name": "_delegation",
                    "type": "bool",
                    "internalType": "bool"
                }
            ],
            "outputs": [],
            "stateMutability": "nonpayable"
        },
        {
            "type": "function",
            "name": "validatorId",
            "inputs": [],
            "outputs": [
                {
                    "name": "",
                    "type": "uint256",
                    "internalType": "uint256"
                }
            ],
            "stateMutability": "view"
        },
        {
            "type": "function",
            "name": "validatorRewards_deprecated",
            "inputs": [],
            "outputs": [
                {
                    "name": "",
                    "type": "uint256",
                    "internalType": "uint256"
                }
            ],
            "stateMutability": "view"
        },
        {
            "type": "function",
            "name": "version",
            "inputs": [],
            "outputs": [
                {
                    "name": "",
                    "type": "string",
                    "internalType": "string"
                }
            ],
            "stateMutability": "pure"
        },
        {
            "type": "function",
            "name": "withdrawExchangeRate",
            "inputs": [],
            "outputs": [
                {
                    "name": "",
                    "type": "uint256",
                    "internalType": "uint256"
                }
            ],
            "stateMutability": "view"
        },
        {
            "type": "function",
            "name": "withdrawPool",
            "inputs": [],
            "outputs": [
                {
                    "name": "",
                    "type": "uint256",
                    "internalType": "uint256"
                }
            ],
            "stateMutability": "view"
        },
        {
            "type": "function",
            "name": "withdrawRewards",
            "inputs": [],
            "outputs": [],
            "stateMutability": "nonpayable"
        },
        {
            "type": "function",
            "name": "withdrawRewardsPOL",
            "inputs": [],
            "outputs": [],
            "stateMutability": "nonpayable"
        },
        {
            "type": "function",
            "name": "withdrawShares",
            "inputs": [],
            "outputs": [
                {
                    "name": "",
                    "type": "uint256",
                    "internalType": "uint256"
                }
            ],
            "stateMutability": "view"
        },
        {
            "type": "event",
            "name": "Approval",
            "inputs": [
                {
                    "name": "owner",
                    "type": "address",
                    "indexed": true,
                    "internalType": "address"
                },
                {
                    "name": "spender",
                    "type": "address",
                    "indexed": true,
                    "internalType": "address"
                },
                {
                    "name": "value",
                    "type": "uint256",
                    "indexed": false,
                    "internalType": "uint256"
                }
            ],
            "anonymous": false
        },
        {
            "type": "event",
            "name": "OwnershipTransferred",
            "inputs": [
                {
                    "name": "previousOwner",
                    "type": "address",
                    "indexed": true,
                    "internalType": "address"
                },
                {
                    "name": "newOwner",
                    "type": "address",
                    "indexed": true,
                    "internalType": "address"
                }
            ],
            "anonymous": false
        },
        {
            "type": "event",
            "name": "Transfer",
            "inputs": [
                {
                    "name": "from",
                    "type": "address",
                    "indexed": true,
                    "internalType": "address"
                },
                {
                    "name": "to",
                    "type": "address",
                    "indexed": true,
                    "internalType": "address"
                },
                {
                    "name": "value",
                    "type": "uint256",
                    "indexed": false,
                    "internalType": "uint256"
                }
            ],
            "anonymous": false
        }
    ],
    "bytecode": {
        "object": "0x60806040526003805460ff60a81b191690553480156200001e57600080fd5b5060038054610100338102610100600160a81b0319909216919091179182905560405191046001600160a01b0316906000907f8be0079c531659141344cd1fd0a4f28419497f9722a3daafe3b4186f6b6457e0908290a3620000886001600160e01b036200008e16565b620000a3565b6003805460ff60a81b1916600160a81b179055565b61403d80620000b36000396000f3fe608060405234801561001057600080fd5b50600436106104335760003560e01c806383f3962a11610236578063b60c76fa1161013b578063dd62ed3e116100c3578063e570b78b11610087578063e570b78b14610b61578063e97fddc214610b84578063eaf43bb514610ba1578063f2fde38b14610bdf578063f83d08ba14610c0557610433565b8063dd62ed3e14610ada578063df5cf72314610b08578063e0db556b14610b10578063e4457a8a14610b18578063e4cd1aec14610b3b57610433565b8063c7b8981c1161010a578063c7b8981c14610a39578063c83ec04d14610a41578063c8f1ecd814610a64578063cf30901214610a81578063d505accf14610a8957610433565b8063b60c76fa146109da578063b6658d0714610a06578063b89b63c114610a0e578063bfb18f2914610a3157610433565b80639356f290116101be578063a0c1ca341161018d578063a0c1ca341461091a578063a457c2d714610946578063a69df4b514610972578063a9059cbb1461097a578063b4988fd0146109a657610433565b80639356f290146108cc57806395d89b41146109025780639ad5f5a41461090a5780639b2cb5d81461091257610433565b80638ccdd289116102055780638ccdd289146108a45780638d086da4146108ac5780638d16a14a146108b45780638da5cb5b146108bc5780638f32d59b146108c457610433565b806383f3962a1461085a578063851e286e146108775780638759c2341461087f578063883b455f1461089c57610433565b8063533573b71161033c5780636e7ce591116102c45780637542ff95116102935780637542ff95146107c457806375cbee12146107cc578063795be587146107e95780637ba8c820146108155780637ecebe001461083457610433565b80636e7ce5911461076257806370a082311461078e578063715018a6146107b457806374773412146107bc57610433565b80636035083f1161030b5780636035083f146106c0578063653ec134146106eb578063676e5550146107115780636854d2a0146107375780636ab150711461073f57610433565b8063533573b71461068257806354fd4d50146106a85780635c42c733146106b05780635c5f7dae146106b857610433565b806331f438a7116103bf5780633a09bf441161038e5780633a09bf441461063e5780633ba0b9a9146106465780633d94eb051461064e578063446a2ec8146106725780634f91440d1461067a57610433565b806331f438a7146105df5780633644e51514610602578063395093511461060a57806339c31e931461063657610433565b80631bf494a7116104065780631bf494a7146105345780631e7ff8f61461053c578063232e54151461057b57806323b872dd146105835780633046c204146105b957610433565b8063029d30401461043857806306fdde031461045d578063095ea7b3146104da57806318160ddd1461051a575b600080fd5b61045b6004803603604081101561044e57600080fd5b5080359060200135610c0d565b005b610465610c1d565b6040805160208082528351818301528351919283929083019185019080838360005b8381101561049f578181015183820152602001610487565b50505050905090810190601f1680156104cc5780820380516001836020036101000a031916815260200191505b509250505060405180910390f35b610506600480360360408110156104f057600080fd5b506001600160a01b038135169060200135610cb0565b604080519115158252519081900360200190f35b610522610cc7565b60408051918252519081900360200190f35b610522610ccd565b6105626004803603602081101561055257600080fd5b50356001600160a01b0316610d59565b6040805192835260208301919091528051918290030190f35b61045b610db9565b6105066004803603606081101561059957600080fd5b506001600160a01b03813581169160208101359091169060400135610dc5565b610522600480360360208110156105cf57600080fd5b50356001600160a01b0316610e7b565b610522600480360360408110156105f557600080fd5b5080359060200135610e8d565b610522610ec8565b6105066004803603604081101561062057600080fd5b506001600160a01b038135169060200135610ece565b610522610f0f565b610522610f15565b610522610f1b565b610656610fd8565b604080516001600160a01b039092168252519081900360200190f35b610522610fe7565b610562610fed565b6105626004803603602081101561069857600080fd5b50356001600160a01b0316611003565b6104656111f0565b61052261120f565b610522611215565b61045b600480360360608110156106d657600080fd5b5080359060208101359060400135151561121b565b6105626004803603602081101561070157600080fd5b50356001600160a01b0316611416565b6105226004803603602081101561072757600080fd5b50356001600160a01b031661142f565b61046561144a565b6105226004803603604081101561075557600080fd5b5080359060200135611465565b61045b6004803603604081101561077857600080fd5b506001600160a01b03813516906020013561147a565b610522600480360360208110156107a457600080fd5b50356001600160a01b0316611706565b61045b611721565b610522611782565b610656611786565b610562600480360360208110156107e257600080fd5b5035611795565b610562600480360360408110156107ff57600080fd5b506001600160a01b03813516906020013561196b565b61045b6004803603602081101561082b57600080fd5b5035151561198f565b6105226004803603602081101561084a57600080fd5b50356001600160a01b03166119b3565b6105626004803603602081101561087057600080fd5b50356119ce565b6105226119ea565b61045b6004803603602081101561089557600080fd5b5035611a7d565b610656611a8b565b610522611a9a565b610522611aa0565b61045b611aa6565b610656611ab0565b610506611ac4565b610506600480360360608110156108e257600080fd5b506001600160a01b03813581169160208101359091169060400135611ada565b610465611e6d565b610562611eba565b610522611ec8565b61045b6004803603604081101561093057600080fd5b506001600160a01b038135169060200135611ece565b6105066004803603604081101561095c57600080fd5b506001600160a01b038135169060200135611efc565b61045b611f38565b6105066004803603604081101561099057600080fd5b506001600160a01b038135169060200135611f51565b61045b600480360360608110156109bc57600080fd5b508035906001600160a01b0360208201358116916040013516611f5f565b610506600480360360408110156109f057600080fd5b506001600160a01b03813516906020013561202d565b61065661203b565b61045b60048036036040811015610a2457600080fd5b508035906020013561204a565b610522612056565b61045b61209d565b61045b60048036036040811015610a5757600080fd5b50803590602001356120a8565b61052260048036036020811015610a7a57600080fd5b50356120b4565b6105066120c2565b61045b600480360360e0811015610a9f57600080fd5b506001600160a01b03813581169160208101359091169060408101359060608101359060ff6080820135169060a08101359060c001356120cb565b61052260048036036040811015610af057600080fd5b506001600160a01b038135811691602001351661223a565b610506612265565b61045b61226e565b61052260048036036040811015610b2e57600080fd5b5080359060200135612279565b61052260048036036020811015610b5157600080fd5b50356001600160a01b0316612287565b61045b60048036036040811015610b7757600080fd5b5080359060200135612299565b61045b60048036036020811015610b9a57600080fd5b50356122a5565b610522600480360360c0811015610bb757600080fd5b5080359060208101359060408101359060ff6060820135169060808101359060a001356122b0565b61045b60048036036020811015610bf557600080fd5b50356001600160a01b0316612499565b61045b6124b3565b610c19828260006124cc565b5050565b6060610c2a60065461267c565b60405160200180806e44656c65676174656420504f4c202360881b815250600f0182805190602001908083835b60208310610c765780518252601f199092019160209182019101610c57565b6001836020036101000a03801982511681845116808217855250505050505090500191505060405160208183030381529060405290505b90565b6000610cbd338484612757565b5060015b92915050565b60025490565b6005546006546040805163072c21ef60e31b8152600481019290925251600092610d54926001600160a01b03909116916339610f7891602480820192602092909190829003018186803b158015610d2357600080fd5b505afa158015610d37573d6000803e3d6000fd5b505050506040513d6020811015610d4d57600080fd5b50516127df565b905090565b6000806000610d6784611706565b90506000610d73610f1b565b905081610d8757600093509150610db49050565b610dae610d92612836565b610da2838563ffffffff61285d16565b9063ffffffff61288416565b93509150505b915091565b610dc360016128a6565b565b6000610dd2836001612973565b50610dde846001612973565b506000610dec858585612a3c565b9050610df6612a8e565b6006546040805163c08b3f9d60e01b815260048101929092526001600160a01b038881166024840152878116604484015260648301879052905192169163c08b3f9d9160848082019260009290919082900301818387803b158015610e5a57600080fd5b505af1158015610e6e573d6000803e3d6000fd5b5092979650505050505050565b60146020526000908152604090205481565b6040805161190160f01b6020808301919091526022820194909452604280820193909352815180820390930183526062019052805191012090565b60195490565b3360008181526001602090815260408083206001600160a01b03871684529091528120549091610cbd918590610f0a908663ffffffff612bcb16565b612757565b60075481565b600d5481565b600080610f26610cc7565b90506000610f32612836565b90508115610fcf5760055460065460408051637f4b432360e01b8152600481019290925251610fca928592610da29286926001600160a01b031691637f4b4323916024808301926020929190829003018186803b158015610f9257600080fd5b505afa158015610fa6573d6000803e3d6000fd5b505050506040513d6020811015610fbc57600080fd5b50519063ffffffff61285d16565b610fd1565b805b9250505090565b6004546001600160a01b031681565b600c5481565b600080610ffb336000612bdd565b915091509091565b600080600061101184611706565b905080611025575060009150819050610db4565b600061102f610cc7565b60055460065460408051637f4b432360e01b81526004810192909252519293506000926001600160a01b0390921691637f4b432391602480820192602092909190829003018186803b15801561108457600080fd5b505afa158015611098573d6000803e3d6000fd5b505050506040513d60208110156110ae57600080fd5b505190506110c682610da2838663ffffffff61285d16565b6005546006546040805163072c21ef60e31b81526004810192909252519297506000926001600160a01b03909216916339610f7891602480820192602092909190829003018186803b15801561111b57600080fd5b505afa15801561112f573d6000803e3d6000fd5b505050506040513d602081101561114557600080fd5b5051600c54909150811580159061115b57508315155b156111925761118f61118285610da2856a084595161401484a00000063ffffffff61285d16565b829063ffffffff612bcb16565b90505b6001600160a01b038816600090815260136020526040902054808211156111e5576111e26a084595161401484a000000610da2886111d6868663ffffffff612d4d16565b9063ffffffff61285d16565b96505b505050505050915091565b6040805180820190915260058152640322e332e360dc1b602082015290565b600f5481565b60065481565b600080611229858585612d62565b336000908152601460205260408120549294509092509061125190600163ffffffff612bcb16565b905061125b613f4a565b6040518060400160405280848152602001600560009054906101000a90046001600160a01b03166001600160a01b031663900cf0cf6040518163ffffffff1660e01b815260040160206040518083038186803b1580156112ba57600080fd5b505afa1580156112ce573d6000803e3d6000fd5b505050506040513d60208110156112e457600080fd5b505190523360008181526015602090815260408083208784528252808320855181558583015160019091015592825260149052208390559050611325612a8e565b60065460408051632a9b5b4160e11b81526004810192909252336024830152604482018a90526064820187905260848201859052516001600160a01b039290921691635536b6829160a48082019260009290919082900301818387803b15801561138e57600080fd5b505af11580156113a2573d6000803e3d6000fd5b5050600480546006546040805163532e19a960e01b815293840191909152516001600160a01b03909116935063532e19a99250602480830192600092919082900301818387803b1580156113f557600080fd5b505af1158015611409573d6000803e3d6000fd5b5050505050505050505050565b6012602052600090815260409020805460019091015482565b60006114428261143d610ccd565b612f2e565b90505b919050565b6040805180820190915260018152603160f81b602082015290565b600061147383836000612fa3565b9392505050565b611482611ac4565b61148b57600080fd5b611496826001612973565b506000806114a384610d59565b91509150828210156114f1576040805162461bcd60e51b815260206004820152601260248201527109ad2cee4c2e8d2dcce40e8dede40daeac6d60731b604482015290519081900360640190fd5b60006114fb612836565b9050600061151383610da2878563ffffffff61285d16565b905061151f868261311d565b60055460065460408051629ff11560e81b815260048101929092526000888103602484015290516001600160a01b0390931692639ff1150092604480820193929182900301818387803b15801561157557600080fd5b505af1158015611589573d6000803e3d6000fd5b5050600d546115a1925090508663ffffffff612d4d16565b600d55600480546006546040805163f1382b5360e01b8152938401919091526001600160a01b0389811660248501526044840189905260648401859052905191169163f1382b5391608480830192600092919082900301818387803b15801561160957600080fd5b505af115801561161d573d6000803e3d6000fd5b5050600480546006546040805163532e19a960e01b815293840191909152516001600160a01b03909116935063532e19a99250602480830192600092919082900301818387803b15801561167057600080fd5b505af1158015611684573d6000803e3d6000fd5b5050600480546006546040805163302df4df60e11b8152938401919091526001600160a01b038b81166024850152604484018b905290519116935063605be9be9250606480830192600092919082900301818387803b1580156116e657600080fd5b505af11580156116fa573d6000803e3d6000fd5b50505050505050505050565b6001600160a01b031660009081526020819052604090205490565b611729611ac4565b61173257600080fd5b60035460405160009161010090046001600160a01b0316907f8be0079c531659141344cd1fd0a4f28419497f9722a3daafe3b4186f6b6457e0908390a360038054610100600160a81b0319169055565b4690565b6005546001600160a01b031681565b60008060006117a3336131c4565b905060006117b7858363ffffffff612bcb16565b905060006117c6828333613272565b9050818114611812576040805162461bcd60e51b815260206004820152601360248201527265786368616e67652072617465206e6f74203160681b604482015290519081900360640190fd5b600061181d33610d59565b506004805460065460408051637f88a95760e01b81529384019190915233602484015260448301849052519293506001600160a01b031691637f88a9579160648082019260009290919082900301818387803b15801561187c57600080fd5b505af1158015611890573d6000803e3d6000fd5b505060055460065460408051624c025560e81b81526004810192909252602482018c9052336044830152516001600160a01b039092169350634c02550092506064808201926020929091908290030181600087803b1580156118f157600080fd5b505af1158015611905573d6000803e3d6000fd5b505050506040513d602081101561191b57600080fd5b505161195f576040805162461bcd60e51b815260206004820152600e60248201526d19195c1bdcda5d0819985a5b195960921b604482015290519081900360640190fd5b50935090915050915091565b60156020908152600092835260408084209091529082529020805460019091015482565b611997611ac4565b6119a057600080fd5b600e805460ff1916911515919091179055565b6001600160a01b031660009081526018602052604090205490565b6000806119dc336001612bdd565b5050610db4838460016124cc565b6000806119f5610c1d565b805160209182012060408051808201825260018152603160f81b93019290925290519091507fc89efdaa54c0f20c7adf612882df0950f5a951637e0307cdcb4c672f298b8bc690806052613fb78239604051908190036052019020601d5550601b829055601c819055611a66611782565b601a55611a71613531565b60198190559250505090565b611a8881600161358a565b50565b6016546001600160a01b031681565b60085481565b60105481565b610dc360006128a6565b60035461010090046001600160a01b031690565b60035461010090046001600160a01b0316331490565b600080611ae6856131c4565b90508015611c38576005546006546040805163c7f067cb60e01b81526004810192909252602482018490526001600160a01b038881166044840152905192169163c7f067cb916064808201926020929091908290030181600087803b158015611b4e57600080fd5b505af1158015611b62573d6000803e3d6000fd5b505050506040513d6020811015611b7857600080fd5b5051611bc1576040805162461bcd60e51b8152602060048201526013602482015272496e737566666963656e74207265776172647360681b604482015290519081900360640190fd5b600480546006546040805163b7721d2d60e01b8152938401919091526001600160a01b03888116602485015260448401859052905191169163b7721d2d91606480830192600092919082900301818387803b158015611c1f57600080fd5b505af1158015611c33573d6000803e3d6000fd5b505050505b6000611c4385611706565b1115611db3576000611c5785600c54612f2e565b90508015611db1576000611c6d82600088613272565b905080821115611d2957611cb18183038760405180604001604052806013815260200172496e737566666963656e74207265776172647360681b815250600161367a565b600480546006546040805163b7721d2d60e01b8152938401919091526001600160a01b0389811660248501528486036044850152905191169163b7721d2d91606480830192600092919082900301818387803b158015611d1057600080fd5b505af1158015611d24573d6000803e3d6000fd5b505050505b6000611d3487610d59565b506004805460065460408051637f88a95760e01b8152938401919091526001600160a01b038b811660248501526044840185905290519394501691637f88a9579160648082019260009290919082900301818387803b158015611d9657600080fd5b505af1158015611daa573d6000803e3d6000fd5b5050505050505b505b600c546001600160a01b038516600090815260136020526040812091909155611ddd868686612a3c565b9050611de7612a8e565b6006546040805163c08b3f9d60e01b815260048101929092526001600160a01b038981166024840152888116604484015260648301889052905192169163c08b3f9d9160848082019260009290919082900301818387803b158015611e4b57600080fd5b505af1158015611e5f573d6000803e3d6000fd5b509298975050505050505050565b6060611e7a60065461267c565b604051602001808063191413d360e21b815250600401828051906020019080838360208310610c765780518252601f199092019160209182019101610c57565b600080610ffb336001612bdd565b600a5481565b611ed6611ac4565b611edf57600080fd5b611eea826001612973565b50611ef781600084613272565b505050565b3360008181526001602090815260408083206001600160a01b03871684529091528120549091610cbd918590610f0a908663ffffffff612d4d16565b611f40611ac4565b611f4957600080fd5b610dc361382e565b6000610cbd8383600061383a565b600354600160a81b900460ff1615611faf576040805162461bcd60e51b815260206004820152600e60248201526d185b1c9958591e481a5b9a5d195960921b604482015290519081900360640190fd5b6003805460ff60a81b1916600160a81b1790556006839055600480546001600160a01b038085166001600160a01b0319928316179092556005805492841692909116919091179055612000816138c8565b612008612a8e565b50612011613942565b50600e805460ff191660011790556120276119ea565b50505050565b6000610cbd8383600161383a565b6017546001600160a01b031681565b610c19828260016124cc565b600080612061612836565b905060086006541015612075579050610cad565b601054801561209757610fca81610da284600f5461285d90919063ffffffff16565b50919050565b611a88336000612973565b610c198282600061121b565b600061144260195483610e8d565b60035460ff1681565b83421115612120576040805162461bcd60e51b815260206004820152601760248201527f45524332363132457870697265645369676e6174757265000000000000000000604482015290519081900360640190fd5b60006040518080613f6560529139605201905060405180910390208888886121478c613abc565b604080516020808201979097526001600160a01b0395861681830152939094166060840152608083019190915260a082015260c08082018990528251808303909101815260e09091019091528051910120601a549091506121a6611782565b146121b5576121b36119ea565b505b60006121c0826120b4565b905060006121d082878787613adf565b9050896001600160a01b0316816001600160a01b03161461222f576040805162461bcd60e51b815260206004820152601460248201527322a921991b189924b73b30b634b229b4b3b732b960611b604482015290519081900360640190fd5b6116fa8a8a8a612757565b6001600160a01b03918216600090815260016020908152604080832093909416825291909152205490565b600e5460ff1681565b611a88336001612973565b600061147383836001612fa3565b60136020526000908152604090205481565b610c198282600161121b565b611a8881600061358a565b6000806122bb613942565b60408051623f675f60e91b815233600482015290519192506000916001600160a01b03841691637ecebe00916024808301926020929190829003018186803b15801561230657600080fd5b505afa15801561231a573d6000803e3d6000fd5b505050506040513d602081101561233057600080fd5b50516005546040805163d505accf60e01b81523360048201526001600160a01b039283166024820152604481018d9052606481018b905260ff8a16608482015260a4810189905260c4810188905290519293509084169163d505accf9160e48082019260009290919082900301818387803b1580156123ae57600080fd5b505af11580156123c2573d6000803e3d6000fd5b505060408051623f675f60e91b815233600482015290516001850193506001600160a01b0386169250637ecebe0091602480820192602092909190829003018186803b15801561241157600080fd5b505afa158015612425573d6000803e3d6000fd5b505050506040513d602081101561243b57600080fd5b505114612480576040805162461bcd60e51b815260206004820152600e60248201526d125b9d985b1a59081c195c9b5a5d60921b604482015290519081900360640190fd5b61248c89896001612fa3565b9998505050505050505050565b6124a1611ac4565b6124aa57600080fd5b611a88816138c8565b6124bb611ac4565b6124c457600080fd5b610dc3613ba7565b6000806124da858585612d62565b915091506124e6613f4a565b50336000908152601260209081526040918290208251808401909352805480845260019091015491830191909152612524908363ffffffff612bcb16565b81526005546040805163900cf0cf60e01b815290516001600160a01b039092169163900cf0cf91600480820192602092909190829003018186803b15801561256b57600080fd5b505afa15801561257f573d6000803e3d6000fd5b505050506040513d602081101561259557600080fd5b505160208281019182523360008181526012909252604080832085518155935160019094019390935560048054600654855163f1382b5360e01b8152928301526024820192909252604481018a90526064810187905292516001600160a01b0390911692839263f1382b539260848084019382900301818387803b15801561261c57600080fd5b505af1158015612630573d6000803e3d6000fd5b50505050806001600160a01b031663532e19a96006546040518263ffffffff1660e01b815260040180828152602001915050600060405180830381600087803b1580156113f557600080fd5b6060816126a157506040805180820190915260018152600360fc1b6020820152611445565b8160005b81156126ba5760049190911c906001016126a5565b6060816040519080825280601f01601f1916602001820160405280156126e7576020820181803883390190505b509050815b801561274e576f181899199a1a9b1b9c1cb0b131b232b360811b86600f166010811061271457fe5b1a60f81b82600183038151811061272757fe5b60200101906001600160f81b031916908160001a90535060049590951c94600019016126ec565b50949350505050565b6001600160a01b03821661276a57600080fd5b6001600160a01b03831661277d57600080fd5b6001600160a01b03808416600081815260016020908152604080832094871680845294825291829020859055815185815291517f8c5be1e5ebec7d5bd14f71427d1e84f3dd0314c0f7b2291e5b200ac8c7c3b9259281900390910190a3505050565b600c5460009082156114425760006127f5610cc7565b9050801561282f5761282c61281f82610da2876a084595161401484a00000063ffffffff61285d16565b839063ffffffff612bcb16565b91505b5092915050565b60006008600654101561284b57506064610cad565b506c01431e0fae6d7217caa000000090565b60008261286c57506000610cc1565b8282028284828161287957fe5b041461147357600080fd5b600080821161289257600080fd5b600082848161289d57fe5b04949350505050565b6128ae613f4a565b503360009081526012602090815260408083208151808301909252805482526001015491810191909152906128e38284613bb6565b3360008181526012602052604080822082815560010182905560048054600654835163302df4df60e11b81529283015260248201949094526044810185905290519394506001600160a01b039092169263605be9be92606480820193929182900301818387803b15801561295657600080fd5b505af115801561296a573d6000803e3d6000fd5b50505050505050565b60008061297f846131c4565b90508015611473576129be818560405180604001604052806013815260200172496e737566666963656e74207265776172647360681b8152508661367a565b600480546006546040805163b7721d2d60e01b8152938401919091526001600160a01b03878116602485015260448401859052905191169163b7721d2d91606480830192600092919082900301818387803b158015612a1c57600080fd5b505af1158015612a30573d6000803e3d6000fd5b50505050905092915050565b6000612a49848484613d96565b6001600160a01b038416600090815260016020908152604080832033808552925290912054612a84918691610f0a908663ffffffff612d4d16565b5060019392505050565b6016546000906001600160a01b031680610d5457600560009054906101000a90046001600160a01b03166001600160a01b0316635ab1bd536040518163ffffffff1660e01b815260040160206040518083038186803b158015612af057600080fd5b505afa158015612b04573d6000803e3d6000fd5b505050506040513d6020811015612b1a57600080fd5b5051604080516832bb32b73a39a43ab160b91b8152815190819003600901812063cac39a0560e01b8252600482015290516001600160a01b039092169163cac39a0591602480820192602092909190829003018186803b158015612b7d57600080fd5b505afa158015612b91573d6000803e3d6000fd5b505050506040513d6020811015612ba757600080fd5b5051601680546001600160a01b0319166001600160a01b0383161790559050905090565b60008282018381101561147357600080fd5b6000806000612beb856131c4565b905060008115612d4357612c0182600088613272565b905080821115612cbc57612c448183038760405180604001604052806013815260200172496e737566666963656e74207265776172647360681b8152508861367a565b600480546006546040805163b7721d2d60e01b8152938401919091526001600160a01b0389811660248501528486036044850152905191169163b7721d2d91606480830192600092919082900301818387803b158015612ca357600080fd5b505af1158015612cb7573d6000803e3d6000fd5b505050505b6000612cc787610d59565b506004805460065460408051637f88a95760e01b8152938401919091526001600160a01b038b811660248501526044840185905290519394501691637f88a9579160648082019260009290919082900301818387803b158015612d2957600080fd5b505af1158015612d3d573d6000803e3d6000fd5b50505050505b9590945092505050565b600082821115612d5c57600080fd5b50900390565b600080600080612d7133610d59565b9150915081600014158015612d865750868210155b612dcc576040805162461bcd60e51b8152602060048201526012602482015271151bdbc81b5d58da081c995c5d595cdd195960721b604482015290519081900360640190fd5b6000612dd6612836565b90506000612dee83610da28b8563ffffffff61285d16565b905087811115612e39576040805162461bcd60e51b8152602060048201526011602482015270746f6f206d75636820736c69707061676560781b604482015290519081900360640190fd5b612e433388612973565b50612e4e338261311d565b60055460065460408051629ff11560e81b8152600481019290925260008c8103602484015290516001600160a01b0390931692639ff1150092604480820193929182900301818387803b158015612ea457600080fd5b505af1158015612eb8573d6000803e3d6000fd5b5050600d54612ed0925090508a63ffffffff612d4d16565b600d556000612ef0612ee0612056565b610da28c8663ffffffff61285d16565b600f54909150612f06908b63ffffffff612bcb16565b600f55601054612f1c908263ffffffff612bcb16565b60105590999098509650505050505050565b600080612f3a84611706565b905080612f4b576000915050610cc1565b6001600160a01b03841660009081526013602052604090205483811415612f7757600092505050610cc1565b612f9a6a084595161401484a000000610da2846111d6888663ffffffff612d4d16565b95945050505050565b6000612faf3383612973565b50612fbb848433613272565b9050816130515760055460065460408051636901b25360e01b8152600481019290925260248201849052336044830152516001600160a01b0390921691636901b253916064808201926020929091908290030181600087803b15801561302057600080fd5b505af1158015613034573d6000803e3d6000fd5b505050506040513d602081101561304a57600080fd5b50516130db565b60055460065460408051624c025560e81b8152600481019290925260248201849052336044830152516001600160a01b0390921691634c025500916064808201926020929091908290030181600087803b1580156130ae57600080fd5b505af11580156130c2573d6000803e3d6000fd5b505050506040513d60208110156130d857600080fd5b50515b611473576040805162461bcd60e51b815260206004820152600e60248201526d19195c1bdcda5d0819985a5b195960921b604482015290519081900360640190fd5b6001600160a01b03821661313057600080fd5b600254613143908263ffffffff612d4d16565b6002556001600160a01b03821660009081526020819052604090205461316f908263ffffffff612d4d16565b6001600160a01b038316600081815260208181526040808320949094558351858152935191937fddf252ad1be2c89b69c2b068fc378daa952ba7f163c4a11628f55a4df523b3ef929081900390910190a35050565b60008061323b600560009054906101000a90046001600160a01b03166001600160a01b0316637ed4b27c6006546040518263ffffffff1660e01b815260040180828152602001915050602060405180830381600087803b15801561322757600080fd5b505af1158015610d37573d6000803e3d6000fd5b905060006132498483612f2e565b600c8390556001600160a01b038516600090815260136020526040902092909255509050919050565b600061327c613e61565b600e5460ff166132cc576040805162461bcd60e51b815260206004820152601660248201527511195b1959d85d1a5bdb881a5cc8191a5cd8589b195960521b604482015290519081900360640190fd5b60006132d6610f1b565b905060006132e2612836565b905060006132fa83610da2898563ffffffff61285d16565b905085811015613345576040805162461bcd60e51b8152602060048201526011602482015270546f6f206d75636820736c69707061676560781b604482015290519081900360640190fd5b6001600160a01b0385166000908152601260205260409020541561339f576040805162461bcd60e51b815260206004820152600c60248201526b13db99dbda5b99c8195e1a5d60a21b604482015290519081900360640190fd5b6133a98582613ea2565b6133bd82610da2858463ffffffff61285d16565b60055460065460408051629ff11560e81b8152600481019290925260248201849052519299506001600160a01b0390911691639ff115009160448082019260009290919082900301818387803b15801561341657600080fd5b505af115801561342a573d6000803e3d6000fd5b5050600d54613442925090508863ffffffff612bcb16565b600d55600480546006546040805163c69d057360e01b8152938401919091526001600160a01b038881166024850152604484018b9052606484018590529051911691829163c69d05739160848082019260009290919082900301818387803b1580156134ad57600080fd5b505af11580156134c1573d6000803e3d6000fd5b50505050806001600160a01b031663532e19a96006546040518263ffffffff1660e01b815260040180828152602001915050600060405180830381600087803b15801561350d57600080fd5b505af1158015613521573d6000803e3d6000fd5b50999a9950505050505050505050565b6000601d54601b54601c54613544611782565b6040805160208082019690965280820194909452606084019290925260808301523060a0808401919091528151808403909101815260c090920190528051910120905090565b613592613f4a565b5033600090815260156020908152604080832085845282528083208151808301909252805482526001015491810191909152906135cf8284613bb6565b33600090815260156020908152604080832088845290915281208181556001015590506135fa612a8e565b60065460408051636e699d8760e01b815260048101929092523360248301526044820184905260648201879052516001600160a01b039290921691636e699d879160848082019260009290919082900301818387803b15801561365c57600080fd5b505af1158015613670573d6000803e3d6000fd5b5050505050505050565b80613710576005546006546040805163bc8756a960e01b81526004810192909252602482018790526001600160a01b038681166044840152905192169163bc8756a9916064808201926020929091908290030181600087803b1580156136df57600080fd5b505af11580156136f3573d6000803e3d6000fd5b505050506040513d602081101561370957600080fd5b505161379d565b6005546006546040805163c7f067cb60e01b81526004810192909252602482018790526001600160a01b038681166044840152905192169163c7f067cb916064808201926020929091908290030181600087803b15801561377057600080fd5b505af1158015613784573d6000803e3d6000fd5b505050506040513d602081101561379a57600080fd5b50515b82906138275760405162461bcd60e51b81526004018080602001828103825283818151815260200191508051906020019080838360005b838110156137ec5781810151838201526020016137d4565b50505050905090810190601f1680156138195780820380516001836020036101000a031916815260200191505b509250505060405180910390fd5b5050505050565b6003805460ff19169055565b336138458483612973565b506138508183612973565b5061385c818585613d96565b613864612a8e565b6006546040805163c08b3f9d60e01b815260048101929092526001600160a01b038481166024840152878116604484015260648301879052905192169163c08b3f9d9160848082019260009290919082900301818387803b15801561365c57600080fd5b6001600160a01b0381166138db57600080fd5b6003546040516001600160a01b0380841692610100900416907f8be0079c531659141344cd1fd0a4f28419497f9722a3daafe3b4186f6b6457e090600090a3600380546001600160a01b0390921661010002610100600160a81b0319909216919091179055565b6017546000906001600160a01b031680610d5457600560009054906101000a90046001600160a01b03166001600160a01b0316635ab1bd536040518163ffffffff1660e01b815260040160206040518083038186803b1580156139a457600080fd5b505afa1580156139b8573d6000803e3d6000fd5b505050506040513d60208110156139ce57600080fd5b505160408051621c1bdb60ea1b8152815190819003600301812063cac39a0560e01b8252600482015290516001600160a01b039092169163cac39a0591602480820192602092909190829003018186803b158015613a2b57600080fd5b505afa158015613a3f573d6000803e3d6000fd5b505050506040513d6020811015613a5557600080fd5b505190506001600160a01b038116613a9c576040805162461bcd60e51b81526020600482015260056024820152641d5b9cd95d60da1b604482015290519081900360640190fd5b601780546001600160a01b0319166001600160a01b038316179055919050565b6001600160a01b0316600090815260186020526040902080546001810190915590565b60008060018686868660405160008152602001604052604051808581526020018460ff1660ff1681526020018381526020018281526020019450505050506020604051602081039080840390855afa158015613b3f573d6000803e3d6000fd5b5050604051601f1901519150506001600160a01b038116612f9a576040805162461bcd60e51b815260206004820152601d60248201527f7369676e617475726520766572696669636174696f6e206661696c6564000000604482015290519081900360640190fd5b6003805460ff19166001179055565b81516005546040805163900cf0cf60e01b81529051600093926001600160a01b03169163900cf0cf916004808301926020929190829003018186803b158015613bfe57600080fd5b505afa158015613c12573d6000803e3d6000fd5b505050506040513d6020811015613c2857600080fd5b50516005546040805163a7ab696160e01b81529051613cad926001600160a01b03169163a7ab6961916004808301926020929190829003018186803b158015613c7057600080fd5b505afa158015613c84573d6000803e3d6000fd5b505050506040513d6020811015613c9a57600080fd5b505160208701519063ffffffff612bcb16565b11158015613cbb5750600081115b613d0c576040805162461bcd60e51b815260206004820152601c60248201527f496e636f6d706c657465207769746864726177616c20706572696f6400000000604482015290519081900360640190fd5b6000613d25613d19612836565b610da2846111d6612056565b601054909150613d3b908363ffffffff612d4d16565b601055600f54613d51908263ffffffff612d4d16565b600f81905550613d8e813360405180604001604052806013815260200172496e737566666963656e74207265776172647360681b8152508761367a565b949350505050565b6001600160a01b038216613da957600080fd5b6001600160a01b038316600090815260208190526040902054613dd2908263ffffffff612d4d16565b6001600160a01b038085166000908152602081905260408082209390935590841681522054613e07908263ffffffff612bcb16565b6001600160a01b038084166000818152602081815260409182902094909455805185815290519193928716927fddf252ad1be2c89b69c2b068fc378daa952ba7f163c4a11628f55a4df523b3ef92918290030190a3505050565b60035460ff1615610dc3576040805162461bcd60e51b81526020600482015260066024820152651b1bd8dad95960d21b604482015290519081900360640190fd5b6001600160a01b038216613eb557600080fd5b600254613ec8908263ffffffff612bcb16565b6002556001600160a01b038216600090815260208190526040902054613ef4908263ffffffff612bcb16565b6001600160a01b0383166000818152602081815260408083209490945583518581529351929391927fddf252ad1be2c89b69c2b068fc378daa952ba7f163c4a11628f55a4df523b3ef9281900390910190a35050565b60405180604001604052806000815260200160008152509056fe5065726d69742861646472657373206f776e65722c61646472657373207370656e6465722c75696e743235362076616c75652c75696e74323536206e6f6e63652c75696e7432353620646561646c696e6529454950373132446f6d61696e28737472696e67206e616d652c737472696e672076657273696f6e2c75696e7432353620636861696e49642c6164647265737320766572696679696e67436f6e747261637429a265627a7a72315820ed5ea909f8feb90b388e0993e6f0ef349689190451e6e233a6db71e587d556a164736f6c63430005110032",
        "linkReferences": {}
    },
    "methodIdentifiers": {
        "DOMAIN_SEPARATOR()": "3644e515",
        "_cacheDomainSeparatorV4()": "851e286e",
        "_chainId()": "74773412",
        "_hashTypedDataV4(bytes32)": "c8f1ecd8",
        "_sellVoucher_new(uint256,uint256,bool)": "6035083f",
        "_toTypedDataHash(bytes32,bytes32)": "31f438a7",
        "activeAmount()": "3a09bf44",
        "allowance(address,address)": "dd62ed3e",
        "approve(address,uint256)": "095ea7b3",
        "balanceOf(address)": "70a08231",
        "buyVoucher(uint256,uint256)": "6ab15071",
        "buyVoucherPOL(uint256,uint256)": "e4457a8a",
        "buyVoucherWithPermit(uint256,uint256,uint256,uint8,bytes32,bytes32)": "eaf43bb5",
        "commissionRate_deprecated()": "8ccdd289",
        "decreaseAllowance(address,uint256)": "a457c2d7",
        "delegation()": "df5cf723",
        "eip712Version()": "6854d2a0",
        "eventsHub()": "883b455f",
        "exchangeRate()": "3ba0b9a9",
        "getLiquidRewards(address)": "676e5550",
        "getRewardPerShare()": "1bf494a7",
        "getStakeAndRewards(address)": "533573b7",
        "getTotalStake(address)": "1e7ff8f6",
        "increaseAllowance(address,uint256)": "39509351",
        "initalRewardPerShare(address)": "e4cd1aec",
        "initialize(uint256,address,address)": "b4988fd0",
        "isOwner()": "8f32d59b",
        "lock()": "f83d08ba",
        "locked()": "cf309012",
        "migrateIn(address,uint256)": "a0c1ca34",
        "migrateOut(address,uint256)": "6e7ce591",
        "minAmount()": "9b2cb5d8",
        "name()": "06fdde03",
        "nonces(address)": "7ecebe00",
        "owner()": "8da5cb5b",
        "permit(address,address,uint256,uint256,uint8,bytes32,bytes32)": "d505accf",
        "polToken()": "b6658d07",
        "renounceOwnership()": "715018a6",
        "restake()": "4f91440d",
        "restakeAndStakePOL(uint256)": "75cbee12",
        "restakeAndTransferFrom(address,address,uint256)": "9356f290",
        "restakeAndUnstakePOL(uint256)": "83f3962a",
        "restakePOL()": "9ad5f5a4",
        "rewardPerShare()": "446a2ec8",
        "sellVoucher(uint256,uint256)": "029d3040",
        "sellVoucherPOL(uint256,uint256)": "b89b63c1",
        "sellVoucher_new(uint256,uint256)": "c83ec04d",
        "sellVoucher_newPOL(uint256,uint256)": "e570b78b",
        "stakeManager()": "7542ff95",
        "stakingLogger()": "3d94eb05",
        "symbol()": "95d89b41",
        "totalSupply()": "18160ddd",
        "transfer(address,uint256)": "a9059cbb",
        "transferFrom(address,address,uint256)": "23b872dd",
        "transferOwnership(address)": "f2fde38b",
        "transferPOL(address,uint256)": "b60c76fa",
        "unbondNonces(address)": "3046c204",
        "unbonds(address)": "653ec134",
        "unbonds_new(address,uint256)": "795be587",
        "unlock()": "a69df4b5",
        "unstakeClaimTokens()": "8d16a14a",
        "unstakeClaimTokensPOL()": "232e5415",
        "unstakeClaimTokens_new(uint256)": "e97fddc2",
        "unstakeClaimTokens_newPOL(uint256)": "8759c234",
        "updateDelegation(bool)": "7ba8c820",
        "validatorId()": "5c5f7dae",
        "validatorRewards_deprecated()": "39c31e93",
        "version()": "54fd4d50",
        "withdrawExchangeRate()": "bfb18f29",
        "withdrawPool()": "5c42c733",
        "withdrawRewards()": "c7b8981c",
        "withdrawRewardsPOL()": "e0db556b",
        "withdrawShares()": "8d086da4"
    },
    "id": 44
}