{"abi":[{"type":"constructor","inputs":[],"stateMutability":"nonpayable"},{"type":"function","name":"DOMAIN_SEPARATOR","inputs":[],"outputs":[{"name":"","type":"bytes32","internalType":"bytes32"}],"stateMutability":"view"},{"type":"function","name":"_cacheDomainSeparatorV4","inputs":[],"outputs":[{"name":"","type":"bytes32","internalType":"bytes32"}],"stateMutability":"nonpayable"},{"type":"function","name":"_chainId","inputs":[],"outputs":[{"name":"chainId","type":"uint256","internalType":"uint256"}],"stateMutability":"pure"},{"type":"function","name":"_hashTypedDataV4","inputs":[{"name":"structHash","type":"bytes32","internalType":"bytes32"}],"outputs":[{"name":"","type":"bytes32","internalType":"bytes32"}],"stateMutability":"view"},{"type":"function","name":"_sellVoucher_new","inputs":[{"name":"claimAmount","type":"uint256","internalType":"uint256"},{"name":"maximumSharesToBurn","type":"uint256","internalType":"uint256"},{"name":"pol","type":"bool","internalType":"bool"}],"outputs":[],"stateMutability":"nonpayable"},{"type":"function","name":"_toTypedDataHash","inputs":[{"name":"domainSeparator","type":"bytes32","internalType":"bytes32"},{"name":"structHash","type":"bytes32","internalType":"bytes32"}],"outputs":[{"name":"","type":"bytes32","internalType":"bytes32"}],"stateMutability":"pure"},{"type":"function","name":"activeAmount","inputs":[],"outputs":[{"name":"","type":"uint256","internalType":"uint256"}],"stateMutability":"view"},{"type":"function","name":"allowance","inputs":[{"name":"owner","type":"address","internalType":"address"},{"name":"spender","type":"address","internalType":"address"}],"outputs":[{"name":"","type":"uint256","internalType":"uint256"}],"stateMutability":"view"},{"type":"function","name":"approve","inputs":[{"name":"spender","type":"address","internalType":"address"},{"name":"value","type":"uint256","internalType":"uint256"}],"outputs":[{"name":"","type":"bool","internalType":"bool"}],"stateMutability":"nonpayable"},{"type":"function","name":"balanceOf","inputs":[{"name":"owner","type":"address","internalType":"address"}],"outputs":[{"name":"","type":"uint256","internalType":"uint256"}],"stateMutability":"view"},{"type":"function","name":"buyVoucher","inputs":[{"name":"_amount","type":"uint256","internalType":"uint256"},{"name":"_minSharesToMint","type":"uint256","internalType":"uint256"}],"outputs":[{"name":"amountToDeposit","type":"uint256","internalType":"uint256"}],"stateMutability":"nonpayable"},{"type":"function","name":"buyVoucherPOL","inputs":[{"name":"_amount","type":"uint256","internalType":"uint256"},{"name":"_minSharesToMint","type":"uint256","internalType":"uint256"}],"outputs":[{"name":"amountToDeposit","type":"uint256","internalType":"uint256"}],"stateMutability":"nonpayable"},{"type":"function","name":"buyVoucherWithPermit","inputs":[{"name":"_amount","type":"uint256","internalType":"uint256"},{"name":"_minSharesToMint","type":"uint256","internalType":"uint256"},{"name":"deadline","type":"uint256","internalType":"uint256"},{"name":"v","type":"uint8","internalType":"uint8"},{"name":"r","type":"bytes32","internalType":"bytes32"},{"name":"s","type":"bytes32","internalType":"bytes32"}],"outputs":[{"name":"amountToDeposit","type":"uint256","internalType":"uint256"}],"stateMutability":"nonpayable"},{"type":"function","name":"commissionRate_deprecated","inputs":[],"outputs":[{"name":"","type":"uint256","internalType":"uint256"}],"stateMutability":"view"},{"type":"function","name":"decreaseAllowance","inputs":[{"name":"spender","type":"address","internalType":"address"},{"name":"subtractedValue","type":"uint256","internalType":"uint256"}],"outputs":[{"name":"","type":"bool","internalType":"bool"}],"stateMutability":"nonpayable"},{"type":"function","name":"delegation","inputs":[],"outputs":[{"name":"","type":"bool","internalType":"bool"}],"stateMutability":"view"},{"type":"function","name":"eip712Version","inputs":[],"outputs":[{"name":"","type":"string","internalType":"string"}],"stateMutability":"view"},{"type":"function","name":"eventsHub","inputs":[],"outputs":[{"name":"","type":"address","internalType":"contract EventsHub"}],"stateMutability":"view"},{"type":"function","name":"exchangeRate","inputs":[],"outputs":[{"name":"","type":"uint256","internalType":"uint256"}],"stateMutability":"view"},{"type":"function","name":"getLiquidRewards","inputs":[{"name":"user","type":"address","internalType":"address"}],"outputs":[{"name":"","type":"uint256","internalType":"uint256"}],"stateMutability":"view"},{"type":"function","name":"getRewardPerShare","inputs":[],"outputs":[{"name":"","type":"uint256","internalType":"uint256"}],"stateMutability":"view"},{"type":"function","name":"getStakeAndRewards","inputs":[{"name":"user","type":"address","internalType":"address"}],"outputs":[{"name":"stakeAmount","type":"uint256","internalType":"uint256"},{"name":"liquidRewards","type":"uint256","internalType":"uint256"}],"stateMutability":"view"},{"type":"function","name":"getTotalStake","inputs":[{"name":"user","type":"address","internalType":"address"}],"outputs":[{"name":"","type":"uint256","internalType":"uint256"},{"name":"","type":"uint256","internalType":"uint256"}],"stateMutability":"view"},{"type":"function","name":"increaseAllowance","inputs":[{"name":"spender","type":"address","internalType":"address"},{"name":"addedValue","type":"uint256","internalType":"uint256"}],"outputs":[{"name":"","type":"bool","internalType":"bool"}],"stateMutability":"nonpayable"},{"type":"function","name":"initalRewardPerShare","inputs":[{"name":"","type":"address","internalType":"address"}],"outputs":[{"name":"","type":"uint256","internalType":"uint256"}],"stateMutability":"view"},{"type":"function","name":"initialize","inputs":[{"name":"_validatorId","type":"uint256","internalType":"uint256"},{"name":"_stakingLogger","type":"address","internalType":"address"},{"name":"_stakeManager","type":"address","internalType":"address"}],"outputs":[],"stateMutability":"nonpayable"},{"type":"function","name":"isOwner","inputs":[],"outputs":[{"name":"","type":"bool","internalType":"bool"}],"stateMutability":"view"},{"type":"function","name":"lock","inputs":[],"outputs":[],"stateMutability":"nonpayable"},{"type":"function","name":"locked","inputs":[],"outputs":[{"name":"","type":"bool","internalType":"bool"}],"stateMutability":"view"},{"type":"function","name":"migrateIn","inputs":[{"name":"user","type":"address","internalType":"address"},{"name":"amount","type":"uint256","internalType":"uint256"}],"outputs":[],"stateMutability":"nonpayable"},{"type":"function","name":"migrateOut","inputs":[{"name":"user","type":"address","internalType":"address"},{"name":"amount","type":"uint256","internalType":"uint256"}],"outputs":[],"stateMutability":"nonpayable"},{"type":"function","name":"minAmount","inputs":[],"outputs":[{"name":"","type":"uint256","internalType":"uint256"}],"stateMutability":"view"},{"type":"function","name":"name","inputs":[],"outputs":[{"name":"","type":"string","internalType":"string"}],"stateMutability":"view"},{"type":"function","name":"nonces","inputs":[{"name":"owner","type":"address","internalType":"address"}],"outputs":[{"name":"","type":"uint256","internalType":"uint256"}],"stateMutability":"view"},{"type":"function","name":"owner","inputs":[],"outputs":[{"name":"","type":"address","internalType":"address"}],"stateMutability":"view"},{"type":"function","name":"permit","inputs":[{"name":"owner","type":"address","internalType":"address"},{"name":"spender","type":"address","internalType":"address"},{"name":"value","type":"uint256","internalType":"uint256"},{"name":"deadline","type":"uint256","internalType":"uint256"},{"name":"v","type":"uint8","internalType":"uint8"},{"name":"r","type":"bytes32","internalType":"bytes32"},{"name":"s","type":"bytes32","internalType":"bytes32"}],"outputs":[],"stateMutability":"nonpayable"},{"type":"function","name":"polToken","inputs":[],"outputs":[{"name":"","type":"address","internalType":"contract IERC20Permit"}],"stateMutability":"view"},{"type":"function","name":"renounceOwnership","inputs":[],"outputs":[],"stateMutability":"nonpayable"},{"type":"function","name":"restake","inputs":[],"outputs":[{"name":"","type":"uint256","internalType":"uint256"},{"name":"","type":"uint256","internalType":"uint256"}],"stateMutability":"nonpayable"},{"type":"function","name":"restakeAndStakePOL","inputs":[{"name":"_amount","type":"uint256","internalType":"uint256"}],"outputs":[{"name":"","type":"uint256","internalType":"uint256"},{"name":"","type":"uint256","internalType":"uint256"}],"stateMutability":"nonpayable"},{"type":"function","name":"restakeAndTransferFrom","inputs":[{"name":"from","type":"address","internalType":"address"},{"name":"to","type":"address","internalType":"address"},{"name":"value","type":"uint256","internalType":"uint256"}],"outputs":[{"name":"","type":"bool","internalType":"bool"},{"name":"","type":"uint256","internalType":"uint256"}],"stateMutability":"nonpayable"},{"type":"function","name":"restakeAndUnstakePOL","inputs":[{"name":"_amount","type":"uint256","internalType":"uint256"}],"outputs":[{"name":"","type":"uint256","internalType":"uint256"}],"stateMutability":"nonpayable"},{"type":"function","name":"restakePOL","inputs":[],"outputs":[{"name":"","type":"uint256","internalType":"uint256"},{"name":"","type":"uint256","internalType":"uint256"}],"stateMutability":"nonpayable"},{"type":"function","name":"rewardPerShare","inputs":[],"outputs":[{"name":"","type":"uint256","internalType":"uint256"}],"stateMutability":"view"},{"type":"function","name":"sellVoucher","inputs":[{"name":"claimAmount","type":"uint256","internalType":"uint256"},{"name":"maximumSharesToBurn","type":"uint256","internalType":"uint256"}],"outputs":[],"stateMutability":"nonpayable"},{"type":"function","name":"sellVoucherPOL","inputs":[{"name":"claimAmount","type":"uint256","internalType":"uint256"},{"name":"maximumSharesToBurn","type":"uint256","internalType":"uint256"}],"outputs":[],"stateMutability":"nonpayable"},{"type":"function","name":"sellVoucher_new","inputs":[{"name":"claimAmount","type":"uint256","internalType":"uint256"},{"name":"maximumSharesToBurn","type":"uint256","internalType":"uint256"}],"outputs":[],"stateMutability":"nonpayable"},{"type":"function","name":"sellVoucher_newPOL","inputs":[{"name":"claimAmount","type":"uint256","internalType":"uint256"},{"name":"maximumSharesToBurn","type":"uint256","internalType":"uint256"}],"outputs":[],"stateMutability":"nonpayable"},{"type":"function","name":"stakeManager","inputs":[],"outputs":[{"name":"","type":"address","internalType":"contract IStakeManager"}],"stateMutability":"view"},{"type":"function","name":"stakingLogger","inputs":[],"outputs":[{"name":"","type":"address","internalType":"contract StakingInfo"}],"stateMutability":"view"},{"type":"function","name":"symbol","inputs":[],"outputs":[{"name":"","type":"string","internalType":"string"}],"stateMutability":"view"},{"type":"function","name":"totalSupply","inputs":[],"outputs":[{"name":"","type":"uint256","internalType":"uint256"}],"stateMutability":"view"},{"type":"function","name":"transfer","inputs":[{"name":"to","type":"address","internalType":"address"},{"name":"value","type":"uint256","internalType":"uint256"}],"outputs":[{"name":"","type":"bool","internalType":"bool"}],"stateMutability":"nonpayable"},{"type":"function","name":"transferFrom","inputs":[{"name":"from","type":"address","internalType":"address"},{"name":"to","type":"address","internalType":"address"},{"name":"value","type":"uint256","internalType":"uint256"}],"outputs":[{"name":"","type":"bool","internalType":"bool"}],"stateMutability":"nonpayable"},{"type":"function","name":"transferOwnership","inputs":[{"name":"newOwner","type":"address","internalType":"address"}],"outputs":[],"stateMutability":"nonpayable"},{"type":"function","name":"transferPOL","inputs":[{"name":"to","type":"address","internalType":"address"},{"name":"value","type":"uint256","internalType":"uint256"}],"outputs":[{"name":"","type":"bool","internalType":"bool"}],"stateMutability":"nonpayable"},{"type":"function","name":"unbondNonces","inputs":[{"name":"","type":"address","internalType":"address"}],"outputs":[{"name":"","type":"uint256","internalType":"uint256"}],"stateMutability":"view"},{"type":"function","name":"unbonds","inputs":[{"name":"","type":"address","internalType":"address"}],"outputs":[{"name":"shares","type":"uint256","internalType":"uint256"},{"name":"withdrawEpoch","type":"uint256","internalType":"uint256"}],"stateMutability":"view"},{"type":"function","name":"unbonds_new","inputs":[{"name":"","type":"address","internalType":"address"},{"name":"","type":"uint256","internalType":"uint256"}],"outputs":[{"name":"shares","type":"uint256","internalType":"uint256"},{"name":"withdrawEpoch","type":"uint256","internalType":"uint256"}],"stateMutability":"view"},{"type":"function","name":"unlock","inputs":[],"outputs":[],"stateMutability":"nonpayable"},{"type":"function","name":"unstakeClaimTokens","inputs":[],"outputs":[],"stateMutability":"nonpayable"},{"type":"function","name":"unstakeClaimTokensPOL","inputs":[],"outputs":[],"stateMutability":"nonpayable"},{"type":"function","name":"unstakeClaimTokens_new","inputs":[{"name":"unbondNonce","type":"uint256","internalType":"uint256"}],"outputs":[],"stateMutability":"nonpayable"},{"type":"function","name":"unstakeClaimTokens_newPOL","inputs":[{"name":"unbondNonce","type":"uint256","internalType":"uint256"}],"outputs":[],"stateMutability":"nonpayable"},{"type":"function","name":"updateDelegation","inputs":[{"name":"_delegation","type":"bool","internalType":"bool"}],"outputs":[],"stateMutability":"nonpayable"},{"type":"function","name":"validatorId","inputs":[],"outputs":[{"name":"","type":"uint256","internalType":"uint256"}],"stateMutability":"view"},{"type":"function","name":"validatorRewards_deprecated","inputs":[],"outputs":[{"name":"","type":"uint256","internalType":"uint256"}],"stateMutability":"view"},{"type":"function","name":"version","inputs":[],"outputs":[{"name":"","type":"string","internalType":"string"}],"stateMutability":"pure"},{"type":"function","name":"withdrawExchangeRate","inputs":[],"outputs":[{"name":"","type":"uint256","internalType":"uint256"}],"stateMutability":"view"},{"type":"function","name":"withdrawPool","inputs":[],"outputs":[{"name":"","type":"uint256","internalType":"uint256"}],"stateMutability":"view"},{"type":"function","name":"withdrawRewards","inputs":[],"outputs":[],"stateMutability":"nonpayable"},{"type":"function","name":"withdrawRewardsPOL","inputs":[],"outputs":[],"stateMutability":"nonpayable"},{"type":"function","name":"withdrawShares","inputs":[],"outputs":[{"name":"","type":"uint256","internalType":"uint256"}],"stateMutability":"view"},{"type":"event","name":"Approval","inputs":[{"name":"owner","type":"address","indexed":true,"internalType":"address"},{"name":"spender","type":"address","indexed":true,"internalType":"address"},{"name":"value","type":"uint256","indexed":false,"internalType":"uint256"}],"anonymous":false},{"type":"event","name":"OwnershipTransferred","inputs":[{"name":"previousOwner","type":"address","indexed":true,"internalType":"address"},{"name":"newOwner","type":"address","indexed":true,"internalType":"address"}],"anonymous":false},{"type":"event","name":"Transfer","inputs":[{"name":"from","type":"address","indexed":true,"internalType":"address"},{"name":"to","type":"address","indexed":true,"internalType":"address"},{"name":"value","type":"uint256","indexed":false,"internalType":"uint256"}],"anonymous":false}],"bytecode":{"object":"0x60806040526003805460ff60a81b191690553480156200001e57600080fd5b5060038054610100338102610100600160a81b0319909216919091179182905560405191046001600160a01b0316906000907f8be0079c531659141344cd1fd0a4f28419497f9722a3daafe3b4186f6b6457e0908290a3620000886001600160e01b036200008e16565b620000a3565b6003805460ff60a81b1916600160a81b179055565b61405d80620000b36000396000f3fe608060405234801561001057600080fd5b50600436106104335760003560e01c806383f3962a11610236578063b60c76fa1161013b578063dd62ed3e116100c3578063e570b78b11610087578063e570b78b14610b7c578063e97fddc214610b9f578063eaf43bb514610bbc578063f2fde38b14610bfa578063f83d08ba14610c2057610433565b8063dd62ed3e14610af5578063df5cf72314610b23578063e0db556b14610b2b578063e4457a8a14610b33578063e4cd1aec14610b5657610433565b8063c7b8981c1161010a578063c7b8981c14610a54578063c83ec04d14610a5c578063c8f1ecd814610a7f578063cf30901214610a9c578063d505accf14610aa457610433565b8063b60c76fa146109f5578063b6658d0714610a21578063b89b63c114610a29578063bfb18f2914610a4c57610433565b80639356f290116101be578063a0c1ca341161018d578063a0c1ca3414610935578063a457c2d714610961578063a69df4b51461098d578063a9059cbb14610995578063b4988fd0146109c157610433565b80639356f290146108cc57806395d89b411461091d5780639ad5f5a4146109255780639b2cb5d81461092d57610433565b80638ccdd289116102055780638ccdd289146108a45780638d086da4146108ac5780638d16a14a146108b45780638da5cb5b146108bc5780638f32d59b146108c457610433565b806383f3962a1461085a578063851e286e146108775780638759c2341461087f578063883b455f1461089c57610433565b8063533573b71161033c5780636e7ce591116102c45780637542ff95116102935780637542ff95146107c457806375cbee12146107cc578063795be587146107e95780637ba8c820146108155780637ecebe001461083457610433565b80636e7ce5911461076257806370a082311461078e578063715018a6146107b457806374773412146107bc57610433565b80636035083f1161030b5780636035083f146106c0578063653ec134146106eb578063676e5550146107115780636854d2a0146107375780636ab150711461073f57610433565b8063533573b71461068257806354fd4d50146106a85780635c42c733146106b05780635c5f7dae146106b857610433565b806331f438a7116103bf5780633a09bf441161038e5780633a09bf441461063e5780633ba0b9a9146106465780633d94eb051461064e578063446a2ec8146106725780634f91440d1461067a57610433565b806331f438a7146105df5780633644e51514610602578063395093511461060a57806339c31e931461063657610433565b80631bf494a7116104065780631bf494a7146105345780631e7ff8f61461053c578063232e54151461057b57806323b872dd146105835780633046c204146105b957610433565b8063029d30401461043857806306fdde031461045d578063095ea7b3146104da57806318160ddd1461051a575b600080fd5b61045b6004803603604081101561044e57600080fd5b5080359060200135610c28565b005b610465610c38565b6040805160208082528351818301528351919283929083019185019080838360005b8381101561049f578181015183820152602001610487565b50505050905090810190601f1680156104cc5780820380516001836020036101000a031916815260200191505b509250505060405180910390f35b610506600480360360408110156104f057600080fd5b506001600160a01b038135169060200135610ccb565b604080519115158252519081900360200190f35b610522610ce2565b60408051918252519081900360200190f35b610522610ce8565b6105626004803603602081101561055257600080fd5b50356001600160a01b0316610d74565b6040805192835260208301919091528051918290030190f35b61045b610dd4565b6105066004803603606081101561059957600080fd5b506001600160a01b03813581169160208101359091169060400135610de0565b610522600480360360208110156105cf57600080fd5b50356001600160a01b0316610e96565b610522600480360360408110156105f557600080fd5b5080359060200135610ea8565b610522610ee3565b6105066004803603604081101561062057600080fd5b506001600160a01b038135169060200135610ee9565b610522610f2a565b610522610f30565b610522610f36565b610656610ff3565b604080516001600160a01b039092168252519081900360200190f35b610522611002565b610562611008565b6105626004803603602081101561069857600080fd5b50356001600160a01b031661101e565b61046561120b565b61052261122a565b610522611230565b61045b600480360360608110156106d657600080fd5b50803590602081013590604001351515611236565b6105626004803603602081101561070157600080fd5b50356001600160a01b0316611431565b6105226004803603602081101561072757600080fd5b50356001600160a01b031661144a565b610465611465565b6105226004803603604081101561075557600080fd5b5080359060200135611480565b61045b6004803603604081101561077857600080fd5b506001600160a01b038135169060200135611495565b610522600480360360208110156107a457600080fd5b50356001600160a01b0316611721565b61045b61173c565b61052261179d565b6106566117a1565b610562600480360360208110156107e257600080fd5b50356117b0565b610562600480360360408110156107ff57600080fd5b506001600160a01b038135169060200135611986565b61045b6004803603602081101561082b57600080fd5b503515156119aa565b6105226004803603602081101561084a57600080fd5b50356001600160a01b03166119ce565b6105226004803603602081101561087057600080fd5b50356119e9565b610522611a06565b61045b6004803603602081101561089557600080fd5b5035611a99565b610656611aa7565b610522611ab6565b610522611abc565b61045b611ac2565b610656611acc565b610506611ae0565b610902600480360360608110156108e257600080fd5b506001600160a01b03813581169160208101359091169060400135611af6565b60408051921515835260208301919091528051918290030190f35b610465611e8d565b610562611eda565b610522611ee8565b61045b6004803603604081101561094b57600080fd5b506001600160a01b038135169060200135611eee565b6105066004803603604081101561097757600080fd5b506001600160a01b038135169060200135611f1c565b61045b611f58565b610506600480360360408110156109ab57600080fd5b506001600160a01b038135169060200135611f71565b61045b600480360360608110156109d757600080fd5b508035906001600160a01b0360208201358116916040013516611f7f565b61050660048036036040811015610a0b57600080fd5b506001600160a01b03813516906020013561204d565b61065661205b565b61045b60048036036040811015610a3f57600080fd5b508035906020013561206a565b610522612076565b61045b6120bd565b61045b60048036036040811015610a7257600080fd5b50803590602001356120c8565b61052260048036036020811015610a9557600080fd5b50356120d4565b6105066120e2565b61045b600480360360e0811015610aba57600080fd5b506001600160a01b03813581169160208101359091169060408101359060608101359060ff6080820135169060a08101359060c001356120eb565b61052260048036036040811015610b0b57600080fd5b506001600160a01b038135811691602001351661225a565b610506612285565b61045b61228e565b61052260048036036040811015610b4957600080fd5b5080359060200135612299565b61052260048036036020811015610b6c57600080fd5b50356001600160a01b03166122a7565b61045b60048036036040811015610b9257600080fd5b50803590602001356122b9565b61045b60048036036020811015610bb557600080fd5b50356122c5565b610522600480360360c0811015610bd257600080fd5b5080359060208101359060408101359060ff6060820135169060808101359060a001356122d0565b61045b60048036036020811015610c1057600080fd5b50356001600160a01b03166124b9565b61045b6124d3565b610c34828260006124ec565b5050565b6060610c4560065461269c565b60405160200180806e44656c65676174656420504f4c202360881b815250600f0182805190602001908083835b60208310610c915780518252601f199092019160209182019101610c72565b6001836020036101000a03801982511681845116808217855250505050505090500191505060405160208183030381529060405290505b90565b6000610cd8338484612777565b5060015b92915050565b60025490565b6005546006546040805163072c21ef60e31b8152600481019290925251600092610d6f926001600160a01b03909116916339610f7891602480820192602092909190829003018186803b158015610d3e57600080fd5b505afa158015610d52573d6000803e3d6000fd5b505050506040513d6020811015610d6857600080fd5b50516127ff565b905090565b6000806000610d8284611721565b90506000610d8e610f36565b905081610da257600093509150610dcf9050565b610dc9610dad612856565b610dbd838563ffffffff61287d16565b9063ffffffff6128a416565b93509150505b915091565b610dde60016128c6565b565b6000610ded836001612993565b50610df9846001612993565b506000610e07858585612a5c565b9050610e11612aae565b6006546040805163c08b3f9d60e01b815260048101929092526001600160a01b038881166024840152878116604484015260648301879052905192169163c08b3f9d9160848082019260009290919082900301818387803b158015610e7557600080fd5b505af1158015610e89573d6000803e3d6000fd5b5092979650505050505050565b60146020526000908152604090205481565b6040805161190160f01b6020808301919091526022820194909452604280820193909352815180820390930183526062019052805191012090565b60195490565b3360008181526001602090815260408083206001600160a01b03871684529091528120549091610cd8918590610f25908663ffffffff612beb16565b612777565b60075481565b600d5481565b600080610f41610ce2565b90506000610f4d612856565b90508115610fea5760055460065460408051637f4b432360e01b8152600481019290925251610fe5928592610dbd9286926001600160a01b031691637f4b4323916024808301926020929190829003018186803b158015610fad57600080fd5b505afa158015610fc1573d6000803e3d6000fd5b505050506040513d6020811015610fd757600080fd5b50519063ffffffff61287d16565b610fec565b805b9250505090565b6004546001600160a01b031681565b600c5481565b600080611016336000612bfd565b915091509091565b600080600061102c84611721565b905080611040575060009150819050610dcf565b600061104a610ce2565b60055460065460408051637f4b432360e01b81526004810192909252519293506000926001600160a01b0390921691637f4b432391602480820192602092909190829003018186803b15801561109f57600080fd5b505afa1580156110b3573d6000803e3d6000fd5b505050506040513d60208110156110c957600080fd5b505190506110e182610dbd838663ffffffff61287d16565b6005546006546040805163072c21ef60e31b81526004810192909252519297506000926001600160a01b03909216916339610f7891602480820192602092909190829003018186803b15801561113657600080fd5b505afa15801561114a573d6000803e3d6000fd5b505050506040513d602081101561116057600080fd5b5051600c54909150811580159061117657508315155b156111ad576111aa61119d85610dbd856a084595161401484a00000063ffffffff61287d16565b829063ffffffff612beb16565b90505b6001600160a01b03881660009081526013602052604090205480821115611200576111fd6a084595161401484a000000610dbd886111f1868663ffffffff612d6d16565b9063ffffffff61287d16565b96505b505050505050915091565b6040805180820190915260058152640322e332e360dc1b602082015290565b600f5481565b60065481565b600080611244858585612d82565b336000908152601460205260408120549294509092509061126c90600163ffffffff612beb16565b9050611276613f6a565b6040518060400160405280848152602001600560009054906101000a90046001600160a01b03166001600160a01b031663900cf0cf6040518163ffffffff1660e01b815260040160206040518083038186803b1580156112d557600080fd5b505afa1580156112e9573d6000803e3d6000fd5b505050506040513d60208110156112ff57600080fd5b505190523360008181526015602090815260408083208784528252808320855181558583015160019091015592825260149052208390559050611340612aae565b60065460408051632a9b5b4160e11b81526004810192909252336024830152604482018a90526064820187905260848201859052516001600160a01b039290921691635536b6829160a48082019260009290919082900301818387803b1580156113a957600080fd5b505af11580156113bd573d6000803e3d6000fd5b5050600480546006546040805163532e19a960e01b815293840191909152516001600160a01b03909116935063532e19a99250602480830192600092919082900301818387803b15801561141057600080fd5b505af1158015611424573d6000803e3d6000fd5b5050505050505050505050565b6012602052600090815260409020805460019091015482565b600061145d82611458610ce8565b612f4e565b90505b919050565b6040805180820190915260018152603160f81b602082015290565b600061148e83836000612fc3565b9392505050565b61149d611ae0565b6114a657600080fd5b6114b1826001612993565b506000806114be84610d74565b915091508282101561150c576040805162461bcd60e51b815260206004820152601260248201527109ad2cee4c2e8d2dcce40e8dede40daeac6d60731b604482015290519081900360640190fd5b6000611516612856565b9050600061152e83610dbd878563ffffffff61287d16565b905061153a868261313d565b60055460065460408051629ff11560e81b815260048101929092526000888103602484015290516001600160a01b0390931692639ff1150092604480820193929182900301818387803b15801561159057600080fd5b505af11580156115a4573d6000803e3d6000fd5b5050600d546115bc925090508663ffffffff612d6d16565b600d55600480546006546040805163f1382b5360e01b8152938401919091526001600160a01b0389811660248501526044840189905260648401859052905191169163f1382b5391608480830192600092919082900301818387803b15801561162457600080fd5b505af1158015611638573d6000803e3d6000fd5b5050600480546006546040805163532e19a960e01b815293840191909152516001600160a01b03909116935063532e19a99250602480830192600092919082900301818387803b15801561168b57600080fd5b505af115801561169f573d6000803e3d6000fd5b5050600480546006546040805163302df4df60e11b8152938401919091526001600160a01b038b81166024850152604484018b905290519116935063605be9be9250606480830192600092919082900301818387803b15801561170157600080fd5b505af1158015611715573d6000803e3d6000fd5b50505050505050505050565b6001600160a01b031660009081526020819052604090205490565b611744611ae0565b61174d57600080fd5b60035460405160009161010090046001600160a01b0316907f8be0079c531659141344cd1fd0a4f28419497f9722a3daafe3b4186f6b6457e0908390a360038054610100600160a81b0319169055565b4690565b6005546001600160a01b031681565b60008060006117be336131e4565b905060006117d2858363ffffffff612beb16565b905060006117e1828333613292565b905081811461182d576040805162461bcd60e51b815260206004820152601360248201527265786368616e67652072617465206e6f74203160681b604482015290519081900360640190fd5b600061183833610d74565b506004805460065460408051637f88a95760e01b81529384019190915233602484015260448301849052519293506001600160a01b031691637f88a9579160648082019260009290919082900301818387803b15801561189757600080fd5b505af11580156118ab573d6000803e3d6000fd5b505060055460065460408051624c025560e81b81526004810192909252602482018c9052336044830152516001600160a01b039092169350634c02550092506064808201926020929091908290030181600087803b15801561190c57600080fd5b505af1158015611920573d6000803e3d6000fd5b505050506040513d602081101561193657600080fd5b505161197a576040805162461bcd60e51b815260206004820152600e60248201526d19195c1bdcda5d0819985a5b195960921b604482015290519081900360640190fd5b50935090915050915091565b60156020908152600092835260408084209091529082529020805460019091015482565b6119b2611ae0565b6119bb57600080fd5b600e805460ff1916911515919091179055565b6001600160a01b031660009081526018602052604090205490565b6000806119f7336001612bfd565b50905061145d83846001611236565b600080611a11610c38565b805160209182012060408051808201825260018152603160f81b93019290925290519091507fc89efdaa54c0f20c7adf612882df0950f5a951637e0307cdcb4c672f298b8bc690806052613fd78239604051908190036052019020601d5550601b829055601c819055611a8261179d565b601a55611a8d613551565b60198190559250505090565b611aa48160016135aa565b50565b6016546001600160a01b031681565b60085481565b60105481565b610dde60006128c6565b60035461010090046001600160a01b031690565b60035461010090046001600160a01b0316331490565b6000806000611b04866131e4565b90508015611c56576005546006546040805163c7f067cb60e01b81526004810192909252602482018490526001600160a01b038981166044840152905192169163c7f067cb916064808201926020929091908290030181600087803b158015611b6c57600080fd5b505af1158015611b80573d6000803e3d6000fd5b505050506040513d6020811015611b9657600080fd5b5051611bdf576040805162461bcd60e51b8152602060048201526013602482015272496e737566666963656e74207265776172647360681b604482015290519081900360640190fd5b600480546006546040805163b7721d2d60e01b8152938401919091526001600160a01b03898116602485015260448401859052905191169163b7721d2d91606480830192600092919082900301818387803b158015611c3d57600080fd5b505af1158015611c51573d6000803e3d6000fd5b505050505b600080611c6287611721565b1115611dcf576000611c7687600c54612f4e565b90508015611dcd57611c8a81600089613292565b915081811115611d4657611cce8282038860405180604001604052806013815260200172496e737566666963656e74207265776172647360681b815250600161369a565b600480546006546040805163b7721d2d60e01b8152938401919091526001600160a01b038a811660248501528585036044850152905191169163b7721d2d91606480830192600092919082900301818387803b158015611d2d57600080fd5b505af1158015611d41573d6000803e3d6000fd5b505050505b6000611d5188610d74565b506004805460065460408051637f88a95760e01b8152938401919091526001600160a01b038c811660248501526044840185905290519394501691637f88a9579160648082019260009290919082900301818387803b158015611db357600080fd5b505af1158015611dc7573d6000803e3d6000fd5b50505050505b505b600c546001600160a01b038716600090815260136020526040812091909155611df9888888612a5c565b9050611e03612aae565b6006546040805163c08b3f9d60e01b815260048101929092526001600160a01b038b811660248401528a81166044840152606483018a9052905192169163c08b3f9d9160848082019260009290919082900301818387803b158015611e6757600080fd5b505af1158015611e7b573d6000803e3d6000fd5b50929a93995092975050505050505050565b6060611e9a60065461269c565b604051602001808063191413d360e21b815250600401828051906020019080838360208310610c915780518252601f199092019160209182019101610c72565b600080611016336001612bfd565b600a5481565b611ef6611ae0565b611eff57600080fd5b611f0a826001612993565b50611f1781600084613292565b505050565b3360008181526001602090815260408083206001600160a01b03871684529091528120549091610cd8918590610f25908663ffffffff612d6d16565b611f60611ae0565b611f6957600080fd5b610dde61384e565b6000610cd88383600061385a565b600354600160a81b900460ff1615611fcf576040805162461bcd60e51b815260206004820152600e60248201526d185b1c9958591e481a5b9a5d195960921b604482015290519081900360640190fd5b6003805460ff60a81b1916600160a81b1790556006839055600480546001600160a01b038085166001600160a01b0319928316179092556005805492841692909116919091179055612020816138e8565b612028612aae565b50612031613962565b50600e805460ff19166001179055612047611a06565b50505050565b6000610cd88383600161385a565b6017546001600160a01b031681565b610c34828260016124ec565b600080612081612856565b905060086006541015612095579050610cc8565b60105480156120b757610fe581610dbd84600f5461287d90919063ffffffff16565b50919050565b611aa4336000612993565b610c3482826000611236565b600061145d60195483610ea8565b60035460ff1681565b83421115612140576040805162461bcd60e51b815260206004820152601760248201527f45524332363132457870697265645369676e6174757265000000000000000000604482015290519081900360640190fd5b60006040518080613f8560529139605201905060405180910390208888886121678c613adc565b604080516020808201979097526001600160a01b0395861681830152939094166060840152608083019190915260a082015260c08082018990528251808303909101815260e09091019091528051910120601a549091506121c661179d565b146121d5576121d3611a06565b505b60006121e0826120d4565b905060006121f082878787613aff565b9050896001600160a01b0316816001600160a01b03161461224f576040805162461bcd60e51b815260206004820152601460248201527322a921991b189924b73b30b634b229b4b3b732b960611b604482015290519081900360640190fd5b6117158a8a8a612777565b6001600160a01b03918216600090815260016020908152604080832093909416825291909152205490565b600e5460ff1681565b611aa4336001612993565b600061148e83836001612fc3565b60136020526000908152604090205481565b610c3482826001611236565b611aa48160006135aa565b6000806122db613962565b60408051623f675f60e91b815233600482015290519192506000916001600160a01b03841691637ecebe00916024808301926020929190829003018186803b15801561232657600080fd5b505afa15801561233a573d6000803e3d6000fd5b505050506040513d602081101561235057600080fd5b50516005546040805163d505accf60e01b81523360048201526001600160a01b039283166024820152604481018d9052606481018b905260ff8a16608482015260a4810189905260c4810188905290519293509084169163d505accf9160e48082019260009290919082900301818387803b1580156123ce57600080fd5b505af11580156123e2573d6000803e3d6000fd5b505060408051623f675f60e91b815233600482015290516001850193506001600160a01b0386169250637ecebe0091602480820192602092909190829003018186803b15801561243157600080fd5b505afa158015612445573d6000803e3d6000fd5b505050506040513d602081101561245b57600080fd5b5051146124a0576040805162461bcd60e51b815260206004820152600e60248201526d125b9d985b1a59081c195c9b5a5d60921b604482015290519081900360640190fd5b6124ac89896001612fc3565b9998505050505050505050565b6124c1611ae0565b6124ca57600080fd5b611aa4816138e8565b6124db611ae0565b6124e457600080fd5b610dde613bc7565b6000806124fa858585612d82565b91509150612506613f6a565b50336000908152601260209081526040918290208251808401909352805480845260019091015491830191909152612544908363ffffffff612beb16565b81526005546040805163900cf0cf60e01b815290516001600160a01b039092169163900cf0cf91600480820192602092909190829003018186803b15801561258b57600080fd5b505afa15801561259f573d6000803e3d6000fd5b505050506040513d60208110156125b557600080fd5b505160208281019182523360008181526012909252604080832085518155935160019094019390935560048054600654855163f1382b5360e01b8152928301526024820192909252604481018a90526064810187905292516001600160a01b0390911692839263f1382b539260848084019382900301818387803b15801561263c57600080fd5b505af1158015612650573d6000803e3d6000fd5b50505050806001600160a01b031663532e19a96006546040518263ffffffff1660e01b815260040180828152602001915050600060405180830381600087803b15801561141057600080fd5b6060816126c157506040805180820190915260018152600360fc1b6020820152611460565b8160005b81156126da5760049190911c906001016126c5565b6060816040519080825280601f01601f191660200182016040528015612707576020820181803883390190505b509050815b801561276e576f181899199a1a9b1b9c1cb0b131b232b360811b86600f166010811061273457fe5b1a60f81b82600183038151811061274757fe5b60200101906001600160f81b031916908160001a90535060049590951c946000190161270c565b50949350505050565b6001600160a01b03821661278a57600080fd5b6001600160a01b03831661279d57600080fd5b6001600160a01b03808416600081815260016020908152604080832094871680845294825291829020859055815185815291517f8c5be1e5ebec7d5bd14f71427d1e84f3dd0314c0f7b2291e5b200ac8c7c3b9259281900390910190a3505050565b600c54600090821561145d576000612815610ce2565b9050801561284f5761284c61283f82610dbd876a084595161401484a00000063ffffffff61287d16565b839063ffffffff612beb16565b91505b5092915050565b60006008600654101561286b57506064610cc8565b506c01431e0fae6d7217caa000000090565b60008261288c57506000610cdc565b8282028284828161289957fe5b041461148e57600080fd5b60008082116128b257600080fd5b60008284816128bd57fe5b04949350505050565b6128ce613f6a565b503360009081526012602090815260408083208151808301909252805482526001015491810191909152906129038284613bd6565b3360008181526012602052604080822082815560010182905560048054600654835163302df4df60e11b81529283015260248201949094526044810185905290519394506001600160a01b039092169263605be9be92606480820193929182900301818387803b15801561297657600080fd5b505af115801561298a573d6000803e3d6000fd5b50505050505050565b60008061299f846131e4565b9050801561148e576129de818560405180604001604052806013815260200172496e737566666963656e74207265776172647360681b8152508661369a565b600480546006546040805163b7721d2d60e01b8152938401919091526001600160a01b03878116602485015260448401859052905191169163b7721d2d91606480830192600092919082900301818387803b158015612a3c57600080fd5b505af1158015612a50573d6000803e3d6000fd5b50505050905092915050565b6000612a69848484613db6565b6001600160a01b038416600090815260016020908152604080832033808552925290912054612aa4918691610f25908663ffffffff612d6d16565b5060019392505050565b6016546000906001600160a01b031680610d6f57600560009054906101000a90046001600160a01b03166001600160a01b0316635ab1bd536040518163ffffffff1660e01b815260040160206040518083038186803b158015612b1057600080fd5b505afa158015612b24573d6000803e3d6000fd5b505050506040513d6020811015612b3a57600080fd5b5051604080516832bb32b73a39a43ab160b91b8152815190819003600901812063cac39a0560e01b8252600482015290516001600160a01b039092169163cac39a0591602480820192602092909190829003018186803b158015612b9d57600080fd5b505afa158015612bb1573d6000803e3d6000fd5b505050506040513d6020811015612bc757600080fd5b5051601680546001600160a01b0319166001600160a01b0383161790559050905090565b60008282018381101561148e57600080fd5b6000806000612c0b856131e4565b905060008115612d6357612c2182600088613292565b905080821115612cdc57612c648183038760405180604001604052806013815260200172496e737566666963656e74207265776172647360681b8152508861369a565b600480546006546040805163b7721d2d60e01b8152938401919091526001600160a01b0389811660248501528486036044850152905191169163b7721d2d91606480830192600092919082900301818387803b158015612cc357600080fd5b505af1158015612cd7573d6000803e3d6000fd5b505050505b6000612ce787610d74565b506004805460065460408051637f88a95760e01b8152938401919091526001600160a01b038b811660248501526044840185905290519394501691637f88a9579160648082019260009290919082900301818387803b158015612d4957600080fd5b505af1158015612d5d573d6000803e3d6000fd5b50505050505b9590945092505050565b600082821115612d7c57600080fd5b50900390565b600080600080612d9133610d74565b9150915081600014158015612da65750868210155b612dec576040805162461bcd60e51b8152602060048201526012602482015271151bdbc81b5d58da081c995c5d595cdd195960721b604482015290519081900360640190fd5b6000612df6612856565b90506000612e0e83610dbd8b8563ffffffff61287d16565b905087811115612e59576040805162461bcd60e51b8152602060048201526011602482015270746f6f206d75636820736c69707061676560781b604482015290519081900360640190fd5b612e633388612993565b50612e6e338261313d565b60055460065460408051629ff11560e81b8152600481019290925260008c8103602484015290516001600160a01b0390931692639ff1150092604480820193929182900301818387803b158015612ec457600080fd5b505af1158015612ed8573d6000803e3d6000fd5b5050600d54612ef0925090508a63ffffffff612d6d16565b600d556000612f10612f00612076565b610dbd8c8663ffffffff61287d16565b600f54909150612f26908b63ffffffff612beb16565b600f55601054612f3c908263ffffffff612beb16565b60105590999098509650505050505050565b600080612f5a84611721565b905080612f6b576000915050610cdc565b6001600160a01b03841660009081526013602052604090205483811415612f9757600092505050610cdc565b612fba6a084595161401484a000000610dbd846111f1888663ffffffff612d6d16565b95945050505050565b6000612fcf3383612993565b50612fdb848433613292565b9050816130715760055460065460408051636901b25360e01b8152600481019290925260248201849052336044830152516001600160a01b0390921691636901b253916064808201926020929091908290030181600087803b15801561304057600080fd5b505af1158015613054573d6000803e3d6000fd5b505050506040513d602081101561306a57600080fd5b50516130fb565b60055460065460408051624c025560e81b8152600481019290925260248201849052336044830152516001600160a01b0390921691634c025500916064808201926020929091908290030181600087803b1580156130ce57600080fd5b505af11580156130e2573d6000803e3d6000fd5b505050506040513d60208110156130f857600080fd5b50515b61148e576040805162461bcd60e51b815260206004820152600e60248201526d19195c1bdcda5d0819985a5b195960921b604482015290519081900360640190fd5b6001600160a01b03821661315057600080fd5b600254613163908263ffffffff612d6d16565b6002556001600160a01b03821660009081526020819052604090205461318f908263ffffffff612d6d16565b6001600160a01b038316600081815260208181526040808320949094558351858152935191937fddf252ad1be2c89b69c2b068fc378daa952ba7f163c4a11628f55a4df523b3ef929081900390910190a35050565b60008061325b600560009054906101000a90046001600160a01b03166001600160a01b0316637ed4b27c6006546040518263ffffffff1660e01b815260040180828152602001915050602060405180830381600087803b15801561324757600080fd5b505af1158015610d52573d6000803e3d6000fd5b905060006132698483612f4e565b600c8390556001600160a01b038516600090815260136020526040902092909255509050919050565b600061329c613e81565b600e5460ff166132ec576040805162461bcd60e51b815260206004820152601660248201527511195b1959d85d1a5bdb881a5cc8191a5cd8589b195960521b604482015290519081900360640190fd5b60006132f6610f36565b90506000613302612856565b9050600061331a83610dbd898563ffffffff61287d16565b905085811015613365576040805162461bcd60e51b8152602060048201526011602482015270546f6f206d75636820736c69707061676560781b604482015290519081900360640190fd5b6001600160a01b038516600090815260126020526040902054156133bf576040805162461bcd60e51b815260206004820152600c60248201526b13db99dbda5b99c8195e1a5d60a21b604482015290519081900360640190fd5b6133c98582613ec2565b6133dd82610dbd858463ffffffff61287d16565b60055460065460408051629ff11560e81b8152600481019290925260248201849052519299506001600160a01b0390911691639ff115009160448082019260009290919082900301818387803b15801561343657600080fd5b505af115801561344a573d6000803e3d6000fd5b5050600d54613462925090508863ffffffff612beb16565b600d55600480546006546040805163c69d057360e01b8152938401919091526001600160a01b038881166024850152604484018b9052606484018590529051911691829163c69d05739160848082019260009290919082900301818387803b1580156134cd57600080fd5b505af11580156134e1573d6000803e3d6000fd5b50505050806001600160a01b031663532e19a96006546040518263ffffffff1660e01b815260040180828152602001915050600060405180830381600087803b15801561352d57600080fd5b505af1158015613541573d6000803e3d6000fd5b50999a9950505050505050505050565b6000601d54601b54601c5461356461179d565b6040805160208082019690965280820194909452606084019290925260808301523060a0808401919091528151808403909101815260c090920190528051910120905090565b6135b2613f6a565b5033600090815260156020908152604080832085845282528083208151808301909252805482526001015491810191909152906135ef8284613bd6565b336000908152601560209081526040808320888452909152812081815560010155905061361a612aae565b60065460408051636e699d8760e01b815260048101929092523360248301526044820184905260648201879052516001600160a01b039290921691636e699d879160848082019260009290919082900301818387803b15801561367c57600080fd5b505af1158015613690573d6000803e3d6000fd5b5050505050505050565b80613730576005546006546040805163bc8756a960e01b81526004810192909252602482018790526001600160a01b038681166044840152905192169163bc8756a9916064808201926020929091908290030181600087803b1580156136ff57600080fd5b505af1158015613713573d6000803e3d6000fd5b505050506040513d602081101561372957600080fd5b50516137bd565b6005546006546040805163c7f067cb60e01b81526004810192909252602482018790526001600160a01b038681166044840152905192169163c7f067cb916064808201926020929091908290030181600087803b15801561379057600080fd5b505af11580156137a4573d6000803e3d6000fd5b505050506040513d60208110156137ba57600080fd5b50515b82906138475760405162461bcd60e51b81526004018080602001828103825283818151815260200191508051906020019080838360005b8381101561380c5781810151838201526020016137f4565b50505050905090810190601f1680156138395780820380516001836020036101000a031916815260200191505b509250505060405180910390fd5b5050505050565b6003805460ff19169055565b336138658483612993565b506138708183612993565b5061387c818585613db6565b613884612aae565b6006546040805163c08b3f9d60e01b815260048101929092526001600160a01b038481166024840152878116604484015260648301879052905192169163c08b3f9d9160848082019260009290919082900301818387803b15801561367c57600080fd5b6001600160a01b0381166138fb57600080fd5b6003546040516001600160a01b0380841692610100900416907f8be0079c531659141344cd1fd0a4f28419497f9722a3daafe3b4186f6b6457e090600090a3600380546001600160a01b0390921661010002610100600160a81b0319909216919091179055565b6017546000906001600160a01b031680610d6f57600560009054906101000a90046001600160a01b03166001600160a01b0316635ab1bd536040518163ffffffff1660e01b815260040160206040518083038186803b1580156139c457600080fd5b505afa1580156139d8573d6000803e3d6000fd5b505050506040513d60208110156139ee57600080fd5b505160408051621c1bdb60ea1b8152815190819003600301812063cac39a0560e01b8252600482015290516001600160a01b039092169163cac39a0591602480820192602092909190829003018186803b158015613a4b57600080fd5b505afa158015613a5f573d6000803e3d6000fd5b505050506040513d6020811015613a7557600080fd5b505190506001600160a01b038116613abc576040805162461bcd60e51b81526020600482015260056024820152641d5b9cd95d60da1b604482015290519081900360640190fd5b601780546001600160a01b0319166001600160a01b038316179055919050565b6001600160a01b0316600090815260186020526040902080546001810190915590565b60008060018686868660405160008152602001604052604051808581526020018460ff1660ff1681526020018381526020018281526020019450505050506020604051602081039080840390855afa158015613b5f573d6000803e3d6000fd5b5050604051601f1901519150506001600160a01b038116612fba576040805162461bcd60e51b815260206004820152601d60248201527f7369676e617475726520766572696669636174696f6e206661696c6564000000604482015290519081900360640190fd5b6003805460ff19166001179055565b81516005546040805163900cf0cf60e01b81529051600093926001600160a01b03169163900cf0cf916004808301926020929190829003018186803b158015613c1e57600080fd5b505afa158015613c32573d6000803e3d6000fd5b505050506040513d6020811015613c4857600080fd5b50516005546040805163a7ab696160e01b81529051613ccd926001600160a01b03169163a7ab6961916004808301926020929190829003018186803b158015613c9057600080fd5b505afa158015613ca4573d6000803e3d6000fd5b505050506040513d6020811015613cba57600080fd5b505160208701519063ffffffff612beb16565b11158015613cdb5750600081115b613d2c576040805162461bcd60e51b815260206004820152601c60248201527f496e636f6d706c657465207769746864726177616c20706572696f6400000000604482015290519081900360640190fd5b6000613d45613d39612856565b610dbd846111f1612076565b601054909150613d5b908363ffffffff612d6d16565b601055600f54613d71908263ffffffff612d6d16565b600f81905550613dae813360405180604001604052806013815260200172496e737566666963656e74207265776172647360681b8152508761369a565b949350505050565b6001600160a01b038216613dc957600080fd5b6001600160a01b038316600090815260208190526040902054613df2908263ffffffff612d6d16565b6001600160a01b038085166000908152602081905260408082209390935590841681522054613e27908263ffffffff612beb16565b6001600160a01b038084166000818152602081815260409182902094909455805185815290519193928716927fddf252ad1be2c89b69c2b068fc378daa952ba7f163c4a11628f55a4df523b3ef92918290030190a3505050565b60035460ff1615610dde576040805162461bcd60e51b81526020600482015260066024820152651b1bd8dad95960d21b604482015290519081900360640190fd5b6001600160a01b038216613ed557600080fd5b600254613ee8908263ffffffff612beb16565b6002556001600160a01b038216600090815260208190526040902054613f14908263ffffffff612beb16565b6001600160a01b0383166000818152602081815260408083209490945583518581529351929391927fddf252ad1be2c89b69c2b068fc378daa952ba7f163c4a11628f55a4df523b3ef9281900390910190a35050565b60405180604001604052806000815260200160008152509056fe5065726d69742861646472657373206f776e65722c61646472657373207370656e6465722c75696e743235362076616c75652c75696e74323536206e6f6e63652c75696e7432353620646561646c696e6529454950373132446f6d61696e28737472696e67206e616d652c737472696e672076657273696f6e2c75696e7432353620636861696e49642c6164647265737320766572696679696e67436f6e747261637429a265627a7a72315820b2691dc541a034b343783ff2efc8b83c08089a172be7988536eefcf057be707a64736f6c63430005110032","linkReferences":{}},"methodIdentifiers":{"DOMAIN_SEPARATOR()":"3644e515","_cacheDomainSeparatorV4()":"851e286e","_chainId()":"74773412","_hashTypedDataV4(bytes32)":"c8f1ecd8","_sellVoucher_new(uint256,uint256,bool)":"6035083f","_toTypedDataHash(bytes32,bytes32)":"31f438a7","activeAmount()":"3a09bf44","allowance(address,address)":"dd62ed3e","approve(address,uint256)":"095ea7b3","balanceOf(address)":"70a08231","buyVoucher(uint256,uint256)":"6ab15071","buyVoucherPOL(uint256,uint256)":"e4457a8a","buyVoucherWithPermit(uint256,uint256,uint256,uint8,bytes32,bytes32)":"eaf43bb5","commissionRate_deprecated()":"8ccdd289","decreaseAllowance(address,uint256)":"a457c2d7","delegation()":"df5cf723","eip712Version()":"6854d2a0","eventsHub()":"883b455f","exchangeRate()":"3ba0b9a9","getLiquidRewards(address)":"676e5550","getRewardPerShare()":"1bf494a7","getStakeAndRewards(address)":"533573b7","getTotalStake(address)":"1e7ff8f6","increaseAllowance(address,uint256)":"39509351","initalRewardPerShare(address)":"e4cd1aec","initialize(uint256,address,address)":"b4988fd0","isOwner()":"8f32d59b","lock()":"f83d08ba","locked()":"cf309012","migrateIn(address,uint256)":"a0c1ca34","migrateOut(address,uint256)":"6e7ce591","minAmount()":"9b2cb5d8","name()":"06fdde03","nonces(address)":"7ecebe00","owner()":"8da5cb5b","permit(address,address,uint256,uint256,uint8,bytes32,bytes32)":"d505accf","polToken()":"b6658d07","renounceOwnership()":"715018a6","restake()":"4f91440d","restakeAndStakePOL(uint256)":"75cbee12","restakeAndTransferFrom(address,address,uint256)":"9356f290","restakeAndUnstakePOL(uint256)":"83f3962a","restakePOL()":"9ad5f5a4","rewardPerShare()":"446a2ec8","sellVoucher(uint256,uint256)":"029d3040","sellVoucherPOL(uint256,uint256)":"b89b63c1","sellVoucher_new(uint256,uint256)":"c83ec04d","sellVoucher_newPOL(uint256,uint256)":"e570b78b","stakeManager()":"7542ff95","stakingLogger()":"3d94eb05","symbol()":"95d89b41","totalSupply()":"18160ddd","transfer(address,uint256)":"a9059cbb","transferFrom(address,address,uint256)":"23b872dd","transferOwnership(address)":"f2fde38b","transferPOL(address,uint256)":"b60c76fa","unbondNonces(address)":"3046c204","unbonds(address)":"653ec134","unbonds_new(address,uint256)":"795be587","unlock()":"a69df4b5","unstakeClaimTokens()":"8d16a14a","unstakeClaimTokensPOL()":"232e5415","unstakeClaimTokens_new(uint256)":"e97fddc2","unstakeClaimTokens_newPOL(uint256)":"8759c234","updateDelegation(bool)":"7ba8c820","validatorId()":"5c5f7dae","validatorRewards_deprecated()":"39c31e93","version()":"54fd4d50","withdrawExchangeRate()":"bfb18f29","withdrawPool()":"5c42c733","withdrawRewards()":"c7b8981c","withdrawRewardsPOL()":"e0db556b","withdrawShares()":"8d086da4"},"id":44}